:100000000C948A230C94A9230C94A9230C94A9235F
:100010000C94A9230C94A9230C94A9230C94A92330
:100020000C94A9230C94A9230C94A9230C94A92320
:100030000C94A9230C941D240C94A9230C94A9239B
:100040000C94A9230C94A9230C94A9230C94A92300
:100050000C94A9230C94A9230C94A9230C94A923F0
:100060000C94AB230C94A9230C94A9230C94A923DE
:100070000C94A9230C94A9230C94A9230C94A923D0
:100080000C94A9230C94A9230C94A923808386891A
:100090008C8F9295989B9EA2A5A7AAADB0B3B6B936
:1000A000BCBEC1C4C6C9CBCED0D3D5D7DADCDEE066
:1000B000E2E4E6E8EAEBEDEEF0F1F3F4F5F6F8F958
:1000C000FAFAFBFCFDFDFEFEFEFFFFFFFFFFFFFF58
:1000D000FEFEFEFDFDFCFBFAFAF9F8F6F5F4F3F18D
:1000E000F0EEEDEBEAE8E6E4E2E0DEDCDAD7D5D3E9
:1000F000D0CECBC9C6C4C1BEBCB9B6B3B0ADAAA739
:10010000A5A29E9B9895928F8C898683807C797618
:1001100073706D6A6764615D5A5855524F4C494619
:1001200043413E3B393634312F2C2A282523211FC9
:100130001D1B1917151412110F0E0C0B0A090706B7
:100140000505040302020101010000000000000097
:100150000101010202030405050607090A0B0C0E42
:100160000F1112141517191B1D1F212325282A2CC6
:100170002F313436393B3E414346494C4F52555856
:100180005A5D6164676A6D707376797C000204065B
:10019000080A0C0E10121416181A1C1E20222426EF
:1001A000282A2C2E30323436383A3C3E40424446DF
:1001B000484A4C4E50525456585A5C5E60626466CF
:1001C000686A6C6E70727476787A7C7E80828486BF
:1001D000888A8C8E90929496989A9C9EA0A2A4A6AF
:1001E000A8AAACAEB0B2B4B6B8BABCBEC0C2C4C69F
:1001F000C8CACCCED0D2D4D6D8DADCDEE0E2E4E68F
:10020000E8EAECEEF0F2F4F6F8FAFCFEFEFCFAF89E
:10021000F6F4F2F0EEECEAE8E6E4E2E0DEDCDAD86E
:10022000D6D4D2D0CECCCAC8C6C4C2C0BEBCBAB85E
:10023000B6B4B2B0AEACAAA8A6A4A2A09E9C9A984E
:10024000969492908E8C8A88868482807E7C7A783E
:10025000767472706E6C6A68666462605E5C5A582E
:10026000565452504E4C4A48464442403E3C3A381E
:10027000363432302E2C2A28262422201E1C1A180E
:10028000161412100E0C0A08060402000D1E385532
:100290006F828D9292929192969EA7B4C1CBCFCD50
:1002A000C5BBB1A9A4A19F9E9D9D9EA0A6ADB6C2AF
:1002B000D0DEE6E7DFD2C4B9B4B6BEC7CDCFCCC579
:1002C000BCB0A4998F8A8A8D8F8C816C533C2F305F
:1002D0003E53697B84858078706B6B6E7375736B2E
:1002E0005E51474448505A626768696B727E8E9EC1
:1002F000A8ACA9A09790909AABC4DCEFFBFEFBF5ED
:10030000EEE8E3DDD8D4CFCCC9C7C9CED7DEE3E26F
:10031000DDD7D2D0D4DDE7EDEEEBE2D0B9A69B98E5
:100320009DA6B0B4AEA1907F77798596A1A18F6D7F
:10033000441E05000E28466278858C8F9093969B0C
:100340009FA5ADB6BDC4F7F6F6F6F5F5F4F2F2F1F9
:10035000EEECE9E6E3DFDAD4CFC8C2BBB2ABA39AD6
:1003600092887F756B62584E453C332A221B150FCD
:100370000A060402010204070B11181F27313A452F
:10038000505A646F79838D949CA4ABB1B6BBBFC344
:10039000C8CACDD1D4D7DADCDFE2E5E8EAECEDEF8C
:1003A000EFF0F1F1F0F0F0EFEFEEEEEDECECECEC65
:1003B000ECEBEBEBEAE8E6E3DED8D2CAC2B8ADA2DA
:1003C000978C8074685C51463C332A221C16110DB0
:1003D00009060402010001020305080C10161C2383
:1003E0002B343D48525D6A75818C97A1ACB6BFC76E
:1003F000CFD5DBE1E5E8EBEDEFF0F2F2F3F4F5F564
:10040000F5F5F4F3F1EFEDECEAE8E5E2DED9D4CE70
:10041000C8C2BBB3ABA2988F867D746B625A51473A
:100420003C332A221B15100B070502010204070B9F
:1004300010171E262E37424D5864707A848D949B77
:10044000A2A9AFB5BABEC2C7CBCED2D6D8DBDEDF4B
:10045000E1E3F8FAFBF9F4EEE5DBD0C5BAB0A8A306
:10046000A1A4ACB7C6D5E3EDF2F2EDE4D8CCC1B8A7
:10047000B4B3B7BDC5CED5DADCDAD4C8B8A58F7AA7
:100480006655494342464D57626D78828B92989EDD
:10049000A1A2A19E9A938B82776B60544A413B380C
:1004A000383E4753606C757A7973695D5247403EB8
:1004B0003F46505C697580878A888175644F39240E
:1004C00012060000071220303F4C58626B747B828A
:1004D000888D9091908D877E73675C524A4545491F
:1004E0005361728595A2ABADA9A1968B8079767781
:1004F0007D87929FAAB4BBBDBCB5AA9B8A78685A77
:10050000514E5057616C7781898E93989CA2A7AD0C
:10051000B1B3B4B2ADA79F968D847C746E6B6B6FD4
:100520007883909EAAB2B6B5AFA69C938D8C8E951B
:100530009FACBBC9D6DFE5E6E1D7C7B4A08D7E731B
:100540006E6F757F8C98A4AFB7BFC7CFD8E2ECF5BC
:10055000F601000003070C131B232B343D454E56B8
:100560005D646B71767B7F8386898B8E9093959784
:100570009A9DA0A3A7ABAFB3B7BCC1C5CACED3D712
:10058000DBDFE2E6E9ECEEF1F3F5F7F8FAFBFCFD70
:10059000FDFEFEFEFFFEFEFEFEFDFDFCFBFBFAF98E
:1005A000F8F6F5F4F2F1EFEDECEAE8E6E4E1DFDD90
:1005B000DAD8D5D3D0CDCBC8C5C3C0BDBBB8B5B3D1
:1005C000B0AEABA8A6A3A19E9B999693918E8B8962
:1005D0008683807E7B787573706D6A686562605D06
:1005E0005A585653514F4C4A48464443413F3E3C6B
:1005F0003B393837363534333231302F2F2E2D2DCD
:100600002C2B2B2A2A2A2929292828282828272759
:10061000272728282828282929292A2A2B2B2C2D46
:100620002D2E2F303132333435363738393A3B3D81
:100630003E3F40414344454748494A4C4D4E505146
:10064000525353524F4A433B32281E150D070301A4
:100650007B7B7B7B7B7B7B7B7B7B7B7B7B7B7B7BEA
:100660007B7B7B7B7B7B7B7B7B7B7B7B7B7B7B7BDA
:100670007B7B7B7B7C7C7C7C7C7C7C7C7C7C7C7CBE
:100680007C7C7C7C7D7D7D7C7C7C7D7D7D7C7C7CA4
:100690007C7C7C7C7C7B7B7B7B7B7B7B7B7B7B7BA5
:1006A0007B7B7B7B7B7B7B7B7B7B7A7A7A7A7A7B9F
:1006B0007B7B7B7B7B7B7B7B7B7B7B7B7B7B7B7B8A
:1006C0007B7B7B7B7B7B7C7C7C7C7C7C7C7C7C7C70
:1006D0007C7C7C7C7C7C7D7D7C7C7C7C7C7C7C7C58
:1006E0007B7B7B7B7A7A7A79797878787878777778
:1006F0007776767676767777777878787878797986
:1007000079797A7A7B7C7C7C7C7D7D7E7E7E7E7E28
:100710007E7E7F7E7D7C7C7B7B7B7B7A7A7A79791F
:100720007978787878777776767777777777777656
:10073000767677787879797A7A7B7B7C7C7C7D7D1C
:100740007E7E7E7E7D7D7D7D7D7C7B7A79797978EC
:10075000787777767575747474747474737374744D
:10076000757676777778797A7B7B7C7C7D7E8081E5
:100770008282828283848585858584838383838343
:1007800082807E7D7C7D7D7D7C7B7A7979797979AB
:100790007978787878797A7B7B7B7B7B7B7C7C7DB6
:1007A0007E7F80818283848485868787878685850E
:1007B00084848382807D7B7977777777777573718F
:1007C0007070707171706F6F6F707274767676760C
:1007D00076787A7C7E7F7F80818285888989898905
:1007E000898B8C8D8B89888686868482807E7D7DB0
:1007F0007C7B7A77757371706F6F6E6C6A686869ED
:100800006B6C6C6C6B6C6E70727374747577797DD5
:100810007F818180808286898B8A86838183858699
:1008200084807C79797B7C7C797571706F71727250
:1008300071706E6D6D6F71727372727172747677A2
:100840007878797A7C7E7F7F8080828485848280BC
:100850007E7D7D7D7C7A76747273757676736E6A32
:1008600068686B6D6D6B686565686B6E70707070D5
:1008700072757A7F8282807F81858A8E9090909037
:10088000919191908E8E8D8D8D8C8C8B88847E7BBA
:100890007C8186867E7269676E787F7E766E696AF5
:1008A0006F75797D7F7F7B736D6E778692948B7F7A
:1008B000787D8C9BA09B9087878E9699958D837D64
:1008C0007B7E84888881766C696E78807E72655EB6
:1008D000626E787970655E626C767B78736F6F7428
:1008E000797F828383818081868F9698938B85859B
:1008F0008B929590867D7A7E8487847C746F6F71ED
:100900007373706D6A686768696A6A696867696C39
:100910006F6F6E6D6F72777A7B79797B80878C8D44
:100920008A878585888A89857F7976787B7D7B74BF
:100930006E6A6C707474706B67676A6D6E6E6C6AE9
:10094000696A6D707274767778797A7D7F82838533
:1009500086898D9193928E8B8A8B8C8B867F78750E
:10096000767778756F6964605F5F6163625D575326
:10097000545B6366635B565964727B7B76706F74FD
:100980007F8A92938E86838896A6AEAB9C8D868C4A
:100990009BA7A89D8B7F7F89969C9686756C6E78A9
:1009A00082837B6E65656C7376726D6A6C71757827
:1009B0007B7E807E7A787E8A95978E807C8598A6CD
:1009C000A697868088959D9B90847E7C7D7F818381
:1009D00081786B62616A74776E615A5D676F6F6868
:1009E00064666C727474777C7F7E7A79808B918C6C
:1009F0007F788093A2A1907D7986989F9583777860
:100A0000838B89817A787875706D6E72726A5E58A0
:100A10005C676E6C625C606C75777473787F807BEA
:100A2000777B889492827171859FAA9C806D708774
:100A30009CA0907A6D70797E7C7773726F68605E2F
:100A4000636B6E665A5356626C6F69625F636C7655
:100A50007D807E7974757E8B9391867C7B86959D57
:100A6000998E8381848A8D8C89857E766F71798158
:100A7000807260565C69716A584A495561655E5773
:100A8000575E66696A6E777F7E766F7486999C8CF6
:100A90007771819CACA58E7D7F92A4A6988882896F
:100AA00093958F87858686817975797E7D746A674F
:100AB0006E777A756E6D737B7F7D7D818788827A94
:100AC0007B8899A09581757C91A3A59683797D8873
:100AD0009193928D85786C6B788B95896D54516666
:100AE0008088795E4E536674746B656A7379797920
:100AF000808B908A7C768198A9A48E79778BA3AD20
:100B0000A18B7C7B858E918D89847C726B6E7984C0
:100B100081705C545E6E766D594B4C5862615A56CA
:100B20005C666C6B696E7B8685796E73889FA69810
:100B300080747D94A8A99A877E828C9495908981EF
:100B40007A76757A7F7E766A6263696D695E5553DF
:100B5000585E5F5C5B5E636766666B7782847A6F04
:100B60006D7A8E9A958374758699A09684787A8426
:100B70008C8D87807C7B77716C6C7277756B5F5A1C
:100B80005D646762585150555C60616366696C6F63
:100B9000757E8688827A798497A3A090807F8FA4BF
:100BA000AFA793827F8A99A19F9589817D7E838A51
:100BB0008E8A7E6F676C78817F71646068757D7DD9
:100BC0007874767B82888D908F8983838B9AA4A298
:100BD0009585818C9DA8A597888183898E908E8824
:100BE0007E7065636C777A6F5D5053616E6D605097
:100BF0004B536068686464697075777B8187878010
:100C0000787B899AA29B8B828697A6AAA2958C8BC9
:100C10008F93969999907F6C62697C8B8872584A01
:100C20005164737367585051575D656C7170696298
:100C3000636F808982706264768D9895887F808AE0
:100C4000979F9F9A91888387939D9C8B705C5C6E25
:100C50008287775E4E5265767A71635B5C61676D01
:100C6000727779736C69717F888474656372879316
:100C700090847A7A838E949695928B81797B8692F2
:100C8000917D604B4D62787C6B5243485B6D736D18
:100C9000625B5A5E646D767D7D756B6A7485918D3D
:100CA0007E6E6A768B9CA1998C848591A2AFB2A549
:100CB0008F7D7B8CA3AD9D79574C5E7B8E886F5862
:100CC000515D717D7E766E696768707D8C948E7ED5
:100CD00072748699A0937E7073869AA4A2988F8B63
:100CE0008D96A4B3B9AF957B72819EB0A57E554316
:100CF0004F6C817D664F4751606A6C6A69686765B1
:100D0000666F7D87867A6D6A74848D887B6F6C745C
:100D1000828F999E9C948D8D9AAFBCB69B7C6F7B85
:100D200095A599765246556F7E796758555D676CE3
:100D30006D70716E645A59687D8A84705E5E6F84CE
:100D40008C837164656F7B858C919089807F8DA584
:100D5000B6AD8C695D7092A18E64413E58767C6818
:100D60004E45536A756F64636F7B7B6F646A7F93D4
:100D700095836D66748993897565657284939A9A73
:100D8000968E868895A7B0A181615868828A77552A
:100D90003D3F5364625244475765645851586973E4
:100DA0006E615D6C85948D77666A81989B8B766D9C
:100DB0007587969EA1A2A3A19D9EA8B6BCB1987F5F
:100DC0007987999D8A6D595B6A76746961656F74DC
:100DD0007069697583867C6F6F7E939B917F757B4D
:100DE0008B9590817676808A90949AA5ADACA39BE2
:100DF0009BA1A59D8C7E7C83867963525262727121
:100E0000604E4B586B726B62626E7A796D63697E6D
:100E10009293816B63728A98907A66626D7F8F9AE3
:100E20009FA19E968E8D97A3A89C86726B707879F1
:100E300071666061625F5B5A616B716F6763676F58
:100E400073716D6F7A868A8275707989928C7D6EE6
:100E50006B727E8890989FA1998A7F828F9B9886DB
:100E60007165676E6F675E5D656C6656484A5E7356
:100E7000786B57515E737F7B6F6A73828A857B784C
:100E80008290958C7B71737F898F92979EA09787B4
:100E90007E83929B917860586474796F5F55565C3D
:100EA0005C5652555E61594C485367726A584D5AA8
:100EB0007792998A766F7888908E89888C8D8987C9
:100EC00090A4B6B7A184767F96A39B85757787910A
:100ED0008B796E74838A7F695D6579867F6C6065C6
:100EE000768077655E6E8CA4A493838494A4A49783
:100EF00089868E969793939CA4A08D78717C8E940E
:100F0000856D626E8797917B66626D78776D656699
:100F10006C6B5E4E4958707D7661545E7FA2B3ACB7
:100F20009786828A969EA09F9A90837B7C88969AC9
:100F30008E78655F677680827F7C7C7E7D7A78772D
:100F400078776F63575050565B5D5A54504F545FDB
:100F50006E80919D9F998E878993A0A49984716DCD
:100F60007A8F9D99866F63636A6D6B696D7A888DE0
:100F700087796E6E757C7C74685C5148424248513A
:100F800057575351596B8194A1A8A8A3998E888B68
:100F9000959D9A89756A6E7B848278706F74777379
:100FA0006D6F7C8D958E7D706F777C75665854560D
:100FB000564E423D46566160585665819BA7A59D99
:100FC000999B9D99928D8F94948C807B7E868A8646
:100FD0007E7B7F838178747D94A9AE9E86777985A8
:100FE0008B8373666468675C50505F768481746D30
:100FF0007894B1C0BDAE9E94909093989E9E968733
:101000007974788186847D756F6B696D7889979A1C
:101010008C766664707D8075604D4240444B555FB0
:10102000696D6C696B788CA2B0B3ACA09692949900
:101030009B978D827F848F969285766F707576727E
:101040006E7280929D998B7C75777C7C7467584B0F
:101050004340434B555C5E5E60697B8FA1ABAEA99C
:101060009F90837C7F89908D7F6F686F7C84817671
:101070006D6C7174706A6B7787928F8276737779F3
:101080007264585354544E46444E5E6A6A636270AA
:101090008AA3B0AEA39994908B858081827F766E6F
:1010A0006B717A7C776E6B6F75756F6A7183959AC9
:1010B0008E7A6C6A7071685A515256554B41425340
:1010C0006C7D7D736C758DA9BAB9AB98887E7B8079
:1010D000878D8D857B737174787B7E828582776B3B
:1010E0006B7D9CB4B49A765D5E72878E8371615716
:1010F000504D51627D96A09580737C99BBD0CFBD39
:10110000A6938A898C909395938D847A726F75805B
:101110008C9088786B6D819CADA99276625C5E5DE7
:1011200058504C4D504F4C4D57687982827E7E8589
:10113000909BA3A6A49C90837A7A828A8D8A8583C9
:101140008381796E6A717F89877D788299AFB3A137
:1011500082655654585C5E60615D544A4852677DB2
:1011600088857B747681909EA5A39888766C6C7632
:101170008289867C6F6359545764768282776D7258
:1011800088A2B0A78C6E5A54555552505355534BA4
:1011900048547193A6A0866D687B9BB5BBB09C8AB2
:1011A000807D80878D918E8476685E59595F6973E2
:1011B0007977726F788B9EA5987E63524D4F504C15
:1011C000453F3C3D434F607381847C726F7A8FA4AE
:1011D000B2B4AC9F91868283898F908B81766C6448
:1011E0005E5D637183929A9DA1ABB8BDB297765C48
:1011F000515052525358626B6C655D617694ABB03E
:10120000A4958F98A7B1AFA59B989B9C988F888633
:1012100087847A68595561758A969B9FA8B5BDB831
:10122000A383644E44454C535959544C4547566F1B
:101230008A9B9C8E7A6C6A748598A6ACABA3968ABE
:10124000817C7A79767068605B595B6168727F8FA8
:10125000A1B0B7B3A48F7C6E655E57504A46444434
:101260004852657E96A29D8A756B738AA5B7B9AB05
:1012700098867E7E838889857F76695A4C44475458
:1012800066767F848993A1ACAB9B7F624A3E3B3FED
:10129000454A4D4C4B4C5464788A9390877F7E85A9
:1012A000919DA4A39F999595979A9A968D7F6D5934
:1012B000483E3E495A6E8191A0ACB4B5AB98816C62
:1012C0005C524B453E3833313541546C818B887AC2
:1012D0006C69768DA5B1AFA2928784888F94949023
:1012E000877968574B474D5B6C7C8A96A2B0BDC42A
:1012F000BFAF95785F50494A4E5254535358637369
:10130000869499968F8B8F9AA8B2B3ADA39A959431
:101310009595938F887D7061554E515C6C7E8D984C
:10132000A2ACB6BBB7A5886A534B50585950413848
:101330003C4C627581888B8E8F8E8D8F98A3AAA866
:101340009D908C90999D988B7E746C62554C4D5CF1
:1013500072869092959DAAB3AF9D836B5C55504960
:10136000423E40464E5865768895968D80797D8BB5
:101370009CA7A9A59D96918C8988888B8B85796877
:10138000574B484E5C6C7C8995A0AAAFA996795AB8
:10139000453E434B4C4439333A4C6070787A7B7C01
:1013A0007C7C7C83909FA8A5988B868D979C968843
:1013B0007A6F685E51494C5E76888E8C8D98ABB79B
:1013C000B19B7D665B5751473C35373F485361744D
:1013D00087949286766F738190999E9E9C978F8654
:1013E000807E81817C72655A514C4B5363788C9816
:1013F0009D9FA3A8A6967A5E4F505A5E5441353AF7
:101400004F697D878D9399999084808CA5BDC8C3C1
:10141000B4A7A19E99928C8F96998E775E53596B43
:101420007C878F9BAFC2CABEA58A786F6554403453
:1014300037495B625C54566880908E7F73758598DF
:10144000A2A19A96999D9A908581868D8D806954E6
:101450004B4E5A68748190A0ADB5B6B0A6947B5E31
:1014600045393C48535650494952617280898E90A3
:101470008E8B8B90989D9C968F8E939A9C978D8146
:1014800075675748434D617582868C99ACBCBDAD7C
:10149000937964513E2E2A374F646758443E4E6B11
:1014A00086918F8784878C8D8C8F969D9D94877F66
:1014B000828B928D7C66554F525A636B7582909EDB
:1014C000A9B0B2AC9E856442281E273F58686A6066
:1014D000544F5562717D84898F96999995908C8C23
:1014E0008E8F919395948D7C634A393848637C8CB8
:1014F0009090929CABB7B8A990725741332C2F3A79
:1015000049575E606167737F85848080899AAAB23B
:10151000AFA59A928E8E90959A9C9788725D515342
:1015200061738594A3B3C4D2D7CFBB9F7F61483A80
:101530003843566871706861626A77848C92969BB2
:101540009FA09D96908C8A898A8D909291897860CF
:10155000483B3E516C838E8E8B8E9CB0BEBDAB8F54
:10156000715743352F323F51606767676E7A8588C0
:10157000827C7D8B9FB0B4ADA0948B868382868E57
:10158000938F7E644C3F415063748290A2B6C7CC67
:10159000BFA17A563E35363B3F42464B51565A5FC5
:1015A00067717B818488909AA19E938781858D92B3
:1015B0008F87817F7D756452484C5B6B767E8BA1F3
:1015C000BBCFD3C4A887674D382E313F4E57564EF8
:1015D0004A505F7180898C8C89847F7D81898F914D
:1015E0008F8C8D9090887A6B605A55514F566372EC
:1015F0007B7D7F8CA6C5D8D1AF805334272833415B
:101600004E5656545663798C948E837E8594A0A151
:1016100099908C9095979594969793856F594C4C8B
:10162000586A79858E99AABED1D9D2BD9F7D5E4672
:1016300037343E50636E706D707C8D97958A8186CD
:1016400099B1BFBFB3A3968B817B7C859298917C27
:1016500064524B4D525A667992ABBEC9CAC2AE8D26
:10166000643E241D24313C454F5B676F7375797F61
:101670008587858891A0A9A79A8A818185857F7BA6
:101680007C82847A66544E576979838D9FB9D0D70E
:10169000C9AB896D56443630354452575350576A5A
:1016A000808F908A878A91938D8481858C8E877CA8
:1016B00076797F807767595354595E626A77879845
:1016C000A7B5C2C7BEA27952383033393F454F5D06
:1016D0006971747880898F8D888993A1A8A18E7C87
:1016E00074798185848384857D684D3938475A694A
:1016F000707A8EAAC3CABDA3866C5541312B323F86
:101700004A4C484853697F8C8E8B8B8E9292908F77
:10171000939A9F9E968E89888782786D65616062B4
:1017200068727C848A919FB3C8D2C9AE8B6B5649CC
:10173000423C3B414C5A666F77818C9497949191CF
:10174000979DA2A3A19F9E9A948C87878A8B867966
:10175000685A565C6876818C98AABFD0D5C9AD8886
:1017600063483833353B444D555C636D7B8B979CA8
:10177000978E87868C9296959493918E867D7675BA
:101780007778746A5E595B646E757B8495ACC3D060
:10179000CCB48E64412E2C374650514E4F58697B45
:1017A00087898683858B929596979998948A7E757A
:1017B000737475726D665F59524E505A6A7B8A987F
:1017C000A8BAC6C4AD865B392722262E3A4A5B6684
:1017D0006A6B6D76838C8E8C8F9AA9B4B2A6968B29
:1017E0008784807B7B818A8B7F69554C505A656DDD
:1017F0007789A2BCCCCCBDA38362453026262D368A
:101800003D434A535E6A747D838788898B90979D98
:101810009D968D85817E7C797777746E62554F5465
:1018200061717E8996A9C1D6DCCEAE855E43373A1A
:10183000434C504F5058697E8F969694969BA1A426
:10184000A5A7ABADA99E928B8D929591877C746C68
:101850006359555B6B7E909EADC1D6E1D6B4865B75
:101860003D2F2A2C3340505D6465676F7B868A8AE2
:101870008B93A1ABACA4988F8A86807A7B838E9061
:10188000846D574A4B535D6570829CB8CFD9D3BFE6
:101890009E77523629282F363C424C57636C737A18
:1018A00081898F9295999FA5A49C9085807F808245
:1018B00082817F786B5A4D49505F71818F9DAFC097
:1018C000CDCDBD9D754F35292A3036393C434E5C10
:1018D00069747B81878B8D8F92969897918B888A7C
:1018E0008D8E8A82786E62564C4A5465747D828CE5
:1018F000A1BED5DACAAE90755C422A20283C4D5074
:1019000048434E6C8C9E9C8F86888F938F8A8B93D6
:10191000999485766F73797566544C4E575E606402
:101920006F8295A4B0BBC6CBBD9B6D442F2C3134C8
:1019300032323C4F6476818A939A9D9994949CA804
:10194000AEACA49B96938E8782807D76695C575F50
:101950007080888C93A5C0D8E4DFCFB79B795638C8
:10196000292B353F4448556B8595978F87889199EA
:101970009E9E9FA1A39E92857B7776746E6864621B
:101980005F5A5556606E7C8A9CB7D4E9E7CBA07548
:101990005744372C262A394C5A61656D7A868A89D4
:1019A0008992A3B0B1A6978F8F8F897D7370727360
:1019B00069594B474D55595C667A97B2C3CAC9C23B
:1019C000B3987551392E2C292627344C65757A79B0
:1019D0007A81898D8F939EACB4B0A29287827B6FFF
:1019E000635D5F625E5144434F62727C88A0C3E5D1
:1019F000F2E5C39B795D432B1C1D2C404D50525A80
:101A00006B7C8485858FA1B1B4AA9C9494969185B2
:101A10007A7577776E5D4B403E41444B586E8AA392
:101A2000B6C3CBCFCAB5936E4E392C231D1E2A40A8
:101A3000576972777C83898D9199A5B0B5B2A8A0BA
:101A40009A958C7E736E71736D5E4E464A55626FC9
:101A5000809ABDDEF2F5E9D1B28D6440292631418C
:101A60004E565F6C7C878985858D9DADB7BABBBBB3
:101A7000B8AE9C887B797D7E786C60575049423F38
:101A800046576E859BB3CDE4EBDAB2805437271FFF
:101A90001B1B263B546873757373777F8B9BAEBF9C
:101AA000CAC9BCAA98897D736E6F757C7C72604EC2
:101AB00044434B57687E9EC4E8FEFDE4B88659391E
:101AC000282324282F3A4959666E7172747A848FBC
:101AD0009BA6AFB4B3AC9F8F80746B66625E5B579E
:101AE000514B4543454E5C728DADCBE0E8E0C8A458
:101AF0007B53321D151925364A5D6E7B807E7B7ABD
:101B0000818E9EADB7BDBEB9AB97806D6464696EC2
:101B10006E695F53473E3B404E6481A3C6E3F0E6E7
:101B2000C59666412D2422232833445662696B6E84
:101B3000757F8A95A0AAB4B9B7AEA2958A827B7642
:101B4000726F6D6861574E48464A556A87A8C8E06B
:101B5000EAE5D2B28B623E261A192232475E727FC4
:101B600083807B7C8491A1AFBCC6CAC7BAA6907F94
:101B7000757274777877726A615A585B626E819E6B
:101B8000C3E6FCF8DAAD7E594337302D303948587A
:101B9000646C7073777D85909CA9B4BABBB6AB9C1E
:101BA0008C7B6E6665686A68625A524C4A4D57690A
:101BB00082A2C2DEEDEAD5AF845B3E2E2725272E1A
:101BC0003F577081847C73727C8D9EADB7C1C9C94B
:101BD000BFA78A6E5D57585B5B5A5855504A4546B9
:101BE00050637D9BB9D4E3E0C79C6B402316141768
:101BF000202F455D6F7877726E6F768294A9BFD182
:101C0000DAD5C5AC90766054525A646A68625C5A00
:101C10005C5F636E84A5C9E3E8D9BC9A76502A0B51
:101C2000000B284A626C6C69676665656C7C91A4E0
:101C3000B2BBBFBEB59F80604C4951595850484611
:101C40004B5359606D83A2C2D9E2DDCAAC855C3AC0
:101C5000241F2632404F5F717F8685817F8591A04A
:101C6000AEBAC5CED2CDBEA68D786C66625D575138
:101C7000515660696F77849BBAD8ECEEDDBF9972DC
:101C80004E301D1A263B526571787A7977767984C1
:101C900094A5B3BDC4C7C3B7A28A756B6A6A6559F8
:101CA0004B403D414750607A9BBDD7E4E1D0B491B1
:101CB0006A472C1F1F29374756646E7373717177FB
:101CC0008494A3AFB8BDBFBBB2A49488807C756A6E
:101CD0005B4C4343495159647691B4D3E5E6D7BC94
:101CE0009B775334201B23334350585F666B6C6DD6
:101CF000738092A2ACADABA9A49A887467666F7624
:101D0000715E4838323438404F6B91B7D3E1E1D738
:101D1000C3A3784B271619283A4B5A697477716810
:101D200066708399ABB7C1C9CCC2AB8D756B6D7250
:101D300071695D534B433B363C507196B7D1E1E737
:101D4000DEC39765381B10131F2E40536166635D19
:101D50005B63748A9EB0BEC8CBC2AD91776968716F
:101D60007C817E746553413433415D83AACEE9FAA8
:101D7000FFF2D2A36F42251D2535495B6B767A7839
:101D8000726D707C90A5B9C8D3D7D2C1A78C786F7B
:101D90007073736D6358504A474850637FA1C1DB2D
:101DA000EAEBDEC19A6E462A1C1D293B4E5F696C28
:101DB0006A66676F7E91A3B3C0CACDC6B59C8271B7
:101DC0006B6D73746D605041353135455F81A6C8C8
:101DD000E3F4F5E3BF8D593019161F2E3E4C5962BE
:101DE00065625F606A7D94AABAC5CAC7BBA68D79D1
:101DF0006F71777A7467584A3D342F33446389AFE3
:101E0000CDE1EBE9D8B88C5D38211A1F2A38485843
:101E10006469686567718091A0ADBAC5C9C2B1999E
:101E200085776F6961574F49443F38353B4D6A8C20
:101E3000ACC6DAE5E1CDA87C53362825282D3541FE
:101E40004F5C64686B717A86929EA9B4BCBDB4A3E2
:101E50008F7F7774726A5C4B3D3532343840526FF5
:101E600094BBD8E6E5D6BFA17F5A3925212C3F5037
:101E70005B60646A727E8B99A7B5BFC6C9C9C4BAD4
:101E8000AC9C908986827867554741424750607A7A
:101E90009CBED8E5E4DBCDB99D7A563B2D2E384665
:101EA000535E65696A6B707C8D9FAFBAC3C7C4B857
:101EB000A38C7A716F6D6456473E3B3A393A42556E
:101EC0007294B3CBDAE0DBC7A37850342829313DD4
:101ED0004A58656D707075808F9FAAB3BBC3C7C227
:101EE000B29B897F7E7D766755453A332E2D3549E5
:101EF000698BA9BFCBD2D1C4A8815735211D24310C
:101F000041505D6568686A728090A0ADB9C3C6BF74
:101F1000AE97857B7A7C786D5C4C4039343237459E
:101F20005C7C9DBCD4E3E3D3B3895E3B272126339D
:101F3000435361696D6D6E737D8996A5B5C4CECD31
:101F4000C0AA938177716C655C534C46403B3A4222
:101F5000536B86A1B9CEDAD9C6A172462617161ED2
:101F60002C3D50606C737679808A959FA9B4C0C669
:101F7000C2B19A857772706D665F58534C443E418A
:101F80004F6988A6BFD2DEE0D4B78E623B21171C12
:101F90002E48647B8687837F818996A5B7CCDFE84E
:101FA000E2CDB096847A736D696666645F58535665
:101FB00063788FA5BACEDDE0D2B48C623E22110BDD
:101FC000142B4A6779807E7C7D81858A94A3B6C371
:101FD000C6BDAA95826F5E4F45454B555C5F5F60FD
:101FE000656E7B8DA4BCD1D8CEB38E67452A1A16F8
:101FF00021375168767C7D7F83898D9298A3AFB815
:10200000BAB4A89A8B7A68574A444446474749511C
:102010006074899DAFBFCACEC6AD86592F140B130D
:10202000284156656D73797E848A929EABB9C2C38E
:10203000BCAFA0918376685D54504F50504F5056BE
:10204000647890A7B8C1C4C0B5A184603A1C0E13CF
:10205000243B4F5D676D74797D80848B95A1ACB313
:10206000B4AFA597867564564B45444547494D55D1
:1020700062758BA2B6C8D6DBD3BA9162371D172121
:10208000344858646E767D848C96A3B1BFC8CBC7A4
:10209000BCAD9D8E847B746D665F5A544E494A5424
:1020A0006985A2B9C8D2D8D7CDB38D623D27212981
:1020B0003A4D60707C8386888C929AA2ACB6C2CA74
:1020C000CAC2B19E8B786654453D3E444A4D505835
:1020D000698098A9B5BCC3C6C0AA855A341B12151D
:1020E00022354C63758085888D949DA6AEB5BBBDA9
:1020F000B9AE9F9083776A5C4F4746494D50545E16
:1021000070869CAFBDC6CBC6B4956E472A1A182000
:102110002E4051606A71777D858D959DA6AFB6B7CB
:10212000B0A393847567584A3E363232363E4C5ED1
:10213000718498ACC1D2D8CEB38E66422717121BD9
:102140002E475F727E85898E949AA2ACB7C2C7C6AD
:10215000BEB1A2907C68574D4A4B4E4F51545C67BC
:10216000738293A8BCCCCFC4AA87603D21110E18FE
:102170002A3F52626F798085888C939EABB5B9B83F
:10218000B3AB9F8D786150464345484B4F576372C0
:102190008395A9BDCFD7D3C1A3815F45342F333CED
:1021A0004754606D7B88949DA5AEB5BBBDBBB6B1F1
:1021B000ACA79F9385766A5F564E49484E5B6C7F0D
:1021C00095AABCC9CDC7B8A185694F3D3537404AEE
:1021D00052585D646D76808A96A4B1B9BBB8B1AB34
:1021E000A49B8F80736860564B40393A45566A808D
:1021F00097AFC4D1D2C4AB8C6B4E382B29303B4740
:1022000051585F67707A84909EADBBC3C2B9AB9CD6
:102210008E82776E68635D564E4642444C5B6F8695
:102220009EB5C7D2D4C7AB83562E16121F3448565C
:102230005F646A6F73777B8492A2B0B7B6B0A79BD6
:102240008D7F71655C554F49423E3E4451647B959C
:10225000ADC2CFD1C6AD8C6848342D323D49535AFA
:102260005F64696F76808EA0B3C1C8C5BAAB9B8D21
:102270008178726C665E54493F39394253687F9762
:10228000AFC6D8DDCFAE804F2813111D3043546048
:102290006A71767B7F86909EAEBCC6C9C6BDAF9F75
:1022A0008E7C6D64605F5E58524E5260748B9FB23C
:1022B000C4D4DEDAC5A37A573F3330343D4A5A6B73
:1022C0007A848A8D91959AA1A8B0B7BCBCB6A9971B
:1022D0008473665E57504944434A5666768798AB86
:1022E000BCC9CBC0A889674830211F2A3E566A78EE
:1022F0007E7F80838A94A0AAB3B9BBBAB5ACA09202
:102300008375685D5248424147526172859BB1C5F1
:10231000D1D0C1A6835F3F281C1C26354756626C6E
:10232000747C83898F959CA2A5A6A49F999085799A
:102330006D635C554E443C3A3F4D61768CA0B3C210
:10234000C8C2B092704F34231C1F2B3E5366747D5D
:1023500082868A8F959CA4ABB1B4B2ADA4998D7FCF
:102360007162554A423E40475465788DA1B5C6D04A
:10237000D0C3AB8A67472E201E24303F4D5A677664
:1023800086929A9EA1A6ADB2B2ADA49B938B8072A9
:1023900064584F473F383740536C859BACBBC7CD23
:1023A000C8B495704E32211B202D405364717C853A
:1023B0008D949AA2ACB6BEC1BEB8B2ACA59A8C7CC4
:1023C0006E655D564E494D5A6F879DB2C5D5DEDCB0
:1023D000CEB59675563C2A2329384B5D6A747D85A7
:1023E0008D94999FA5ABB0B1B0ADA7A09587766449
:1023F0005444372F2E3645596D8196ADC3D3D8CD71
:10240000B594704E321F171C2C405464707980882C
:1024100090979EA6ACB1B5B7B6B1A7998A7B6E620C
:10242000574C444042495565788CA0B3C3CDCFC5C5
:10243000AC865931160F17293C4B57616A71777D6D
:10244000858F99A1A5A8ABAEAEA89A877464574DA5
:10245000443E3C3F46515F71869EB3C3CBCCC6B76A
:102460009E7B54321A1318283C5266768185878ADF
:1024700090989EA1A3A6AAADABA2927F6D5C4D41A0
:1024800038363A434F5C6A7B8FA3B5C4CDCCC0A627
:10249000825B3B261F222B3746586A79838B929AA0
:1024A000A2A8AAABACAFB3B3ADA192816F5C4B3F16
:1024B0003A3C454F5C6C8098AFC1CBCDC7BAA68C77
:1024C0006F544137363A4148525E6C7A87939EA7E3
:1024D000AFB5B7B7B5B2AEAAA49D9386766454469D
:1024E0003E3C424F637990A4B6C6D3DAD3BC976E14
:1024F0004B3329292F3B495A6973797B7E838B9310
:102500009AA0A6ADB2B4B2AA9D8E7D6B5A4C443F40
:102510003F414853647990A6B9C6CDCBBCA3836232
:10252000473731333A434E5965727F8A9296989B6A
:102530009FA4A9A9A6A19D9A968D7E6A56453B3671
:10254000373C47586B7E8F9EACB7BDB7A3815A38D6
:10255000221B202C3A4957646F767A7C7F848C95B5
:102560009DA4AAAFB1AFA89C8D7D6F645B54504E03
:102570005057616E7D8C9CABB8C0C1B69F805C3CEF
:10258000261F26374C5D6A72787F878C8F8E8C8CE5
:1025900090979FA3A4A19B918473615044404147AD
:1025A000505B6A7D90A3B1B9BAB4A58E705137273C
:1025B000252D3C4C5B68747F8A93999C9C9C9C9EC7
:1025C000A2A6AAABA9A49D9387796A5D56555961C5
:1025D0006A758191A4B6C3C9C4B7A2886A4D35266D
:1025E000242D3E52657786939CA1A2A19F9FA0A116
:1025F000A3A5A6A5A0988D807365594E4A4C566533
:1026000074818D9AA9B8C1C1B7A48B6E51352016BB
:102610001A273A4B5864717F8E9A9FA09F9F9F9F65
:102620009E9B97928C857C7062544943434A5665C1
:1026300075879AAEBFCBCDC5B49C80634732262543
:102640002D3A49586674818B93999EA2A6A8A9A990
:10265000A7A5A0988C7E6F5F51443B373A435060EA
:1026600071869BAFBEC5C3B8A68C6C4A2D1B171EC6
:102670002C3A485665768590979C9FA1A3A2A2A16B
:10268000A2A29F998F837463524239383F4C5C6D8C
:102690008095AABCC7CAC5B7A0825F3D24191D2A70
:1026A0003A4A5764707B82878A8D93999FA4A7A822
:1026B000A7A39B9081716051443C3A404C5B6A7A7D
:1026C0008B9EB0BEC7C9C1B29A7D5F4637333843CF
:1026D0004F5C6875828F99A0A5A9ACAEAEACACADCD
:1026E000ADABA3958575675C544D4B4E57647484B0
:1026F00094A5B6C4CBC5B397785A4231292A34443D
:102700005768747D858F989E9F9D9A9A9B9FA1A1E3
:10271000A09E988E7F6C58483F3E434D5C6D8194DF
:10272000A6B6C1C6C2B49C7E5F443026252C3A4C66
:102730005F707F8A93999D9F9F9D9B9B9B9C9B997C
:102740009690867968584B4342454D58677A8EA3D8
:10275000B3BEC0BAAB957B6048352A272B354252B1
:1027600062717E8A949CA1A4A5A4A19B958E8A895E
:1027700088847C6F60524844454A5360708295A6B5
:10278000B5BFC3BEAF957350311D161B2738495BCB
:102790006D7D8B969EA3A7A9A9A6A3A09D9B9791AB
:1027A000887D6F6152453D3C435060708192A4B674
:1027B000C4C9C4B3997A5A3C2417151D2C3E4F5FE7
:1027C0006F7F8E999FA09E9C9C9D9FA0A09E9B9694
:1027D0008D7F6C58473C3A404B5B6D839AB2C6D1B3
:1027E000D4CDBFAB92775C44342F333E4B596674E3
:1027F0008392A1ADB5BABCBAB7B2AEABA8A6A29C43
:1028000092836E59473D3D455363768A9EB2C2CC52
:10281000CDC5B29775523420191D273542505F6ED1
:102820007D89939A9FA2A2A09D9B99999896938D3A
:1028300083746351433D4049576576899FB6CBD732
:10284000D8CBB28F6A483125252D3743505E6D7B3A
:102850008891989C9EA0A09F9E9FA09F9A92877B04
:102860006E6153473E3C414C5B6C7E92A7B9C4C637
:10287000BCA88B6A492E1F1C26364958656F798380
:102880008C93989A9B9EA0A1A2A2A2A19C928371D4
:102890005E4F454040454F5C6C7D8E9EADBAC0BCDE
:1028A000AC916F4E311E14151F30455A6E7D8992C2
:1028B000999D9D99959394989D9F9E9B958D8171CF
:1028C0005F4F4441454D5A697D93AABECCD0CBBAE7
:1028D0009F7D583822191B26354657697A8B98A256
:1028E000A8ABABA8A39F9C9C9D9E9D9B958C807143
:1028F00061534B494F5B6A7C8FA3B8CBD8DCD3BE06
:102900009E775233211D2535475968788898A6AEA1
:10291000AFACA7A5A5A6A6A4A19E9B948979655353
:10292000453C3A3E48566A8097ACBFCBD0C9B59675
:102930006F49291510162436495A6C7D8D9BA3A624
:10294000A5A29F9D9D9E9FA1A3A3A097887562515C
:102950004641434B596B7F93A7BAC8D0CCBDA281E7
:102960005E3F291C19202D3E5061707C8791999CF7
:102970009B96908B898A8C8F908F8A8072614E3F54
:1029800036353C49596C8095ABBDC9CAC0AB8D6C1E
:102990004C3325232A37465667788998A3A8A8A4DC
:1029A0009E9994919092979B9D9B9285735F4B3CCF
:1029B00034364153687E93A6B6C2C5BEAB8F6C4910
:1029C0002C1A141A27384B5F7385959FA4A4A19BDA
:1029D000948B837F8089949DA0998A75604D403A3D
:1029E0003C46566A8096ABBDCBD2CEBEA27E593B4A
:1029F0002821242E3D50677E93A4AFB5B6B3ACA377
:102A0000988E88888D949A9D9B94867564564F50B5
:102A1000586576889AACBCC9D0CFC5AF916D4C31A2
:102A2000232129384B60768B9DACB5B9B8B3A99EEC
:102A300091867F7C7F858C8E897B6753433C3C42AB
:102A40004D5B6C8196A9B8C1C2B9A58763412616B2
:102A50001116223348617A92A5B2BBBDB9AEA091DE
:102A6000857F80848A8F918F867967564841434E4F
:102A70005E708395A6B5C1C7C4B4997652321B0F58
:102A80000D15263D566E8395A3AEB4B3AA9A897AE6
:102A90007272767C828789867C6C5B4C44444C588D
:102AA0006676899DB2C1C8C4B69F83634429191450
:102AB0001B2C41586F869CB0BEC3C0B6A7988A80B5
:102AC00079787A7E8385847E7466594F4C505A6734
:102AD00074808B98A6B2B8B4A48A6A492E1C1518C3
:102AE00024354A607991A7B7BFC0BAAFA194888056
:102AF0007D7F848A8C8A83796C615A585D6775847E
:102B0000929FAAB5BDC0BCAE9779593B261B1C2726
:102B1000384C637A92A7B8C3C5BFB3A4968A827EA5
:102B20007D7F838686837A70665F5C5F656F7C8B52
:102B30009AA9B5BEC2BFB39E815F40291E1E27352C
:102B4000465A718AA1B3BDBEB8AEA2968C847F7B73
:102B50007877787979777169605B5A5E66707C887E
:102B600094A2AEB7BAB4A48B6C4D32211A1D293C85
:102B7000536C849AABB5B9B6ADA1928479726E6E7E
:102B80006F717374736F69625B58595E67717C878C
:102B9000929EA8AEADA18B6E5036241B1B233246ED
:102BA0005E778FA2B1B9BBB7AD9E8C7C6F68686D44
:102BB00073787A77716B65615F5E6167738292A0EB
:102BC000AAB0B4B2A9987F61463227242935485E5D
:102BD000778EA2B1BDC4C5BEAF9C88776B666466B4
:102BE000686B6E6F6E6B68646160646D7986929CD1
:102BF000A5ABACA6967C5F442F24222834475F798E
:102C000091A6B6C1C7C8C3B7A795867B736F6E6F11
:102C10007173747576777878797C8189929BA3AA91
:102C2000B0B4B2A793785D46362D2D36475E7891C5
:102C3000A5B4C0C9CCC8BCAA9685786E6865646521
:102C400067696A6B6A6A6B6C6E737B838B92989D03
:102C5000A1A19989715842332A282D3A4D647C9359
:102C6000A7B9C7CECDC2AF9A87786F696665666827
:102C70006B6C6B6B6A6A6B6E7279828A90969A9CA7
:102C80009A92836D5641332C2A2F394A5E74899B60
:102C9000AAB8C2C6C1B4A18E7D7167605B5A5D627D
:102CA00066686868686B70757A808891999E9E994D
:102CB0008D7D6A5644372F2D313A47586C8196A83E
:102CC000B7C0C3BDB2A39283766B615A57595E6495
:102CD000686B6C6E71767A7E838A939CA2A29C91BB
:102CE00082715F4D3E35323742506174879BADBC77
:102CF000C7CBC8BEAF9D8B7C70665F5B5C60666A4D
:102D00006C6C6C6E73798088919BA3A7A69E907F54
:102D10006C5A4A3D36363D485767778797A7B7C301
:102D2000CACAC2B4A29080746C6766676B6F727512
:102D300077787A7B7E838A939FA9AFB0A99C8A75A6
:102D40006250443C3A3E465261718191A0AEB9BE98
:102D5000BCB4A7998A7C6E625B595C61676A6C6DD2
:102D60006E6F7073767D858F99A1A4A39B8D7B690F
:102D7000574A403B3B414D5D6F8193A4B5C2C9C8E2
:102D8000BEB0A0918273655A5454585E64686A6CF0
:102D90006C6D6D70757C858E9599999386735F4C7B
:102DA0003D332F2F35405063778A9CACB9C0C0B8F3
:102DB000AB9B8B7C6D615753545A626A6E7173750D
:102DC000777A7E82878C9195969691897C6C5C4C03
:102DD000423C3D434E5B69798A9BABB7BDBCB4A80E
:102DE0009A8B7D6F635B57575A5F64686C7073771B
:102DF0007B7E8184878A8D8E8B857A6F645A534E51
:102E00004C4D50565F6A78889AAAB7BDBCB8B0A737
:102E10009B8C7B6B605B5A5E63686D7276797C7F9E
:102E2000848A9095979896938C8174665A514C4BEE
:102E30004E555E6A788797A7B5C0C6C5C0B7ADA026
:102E40009284786F6A6A6C6F7175787B7E808285F8
:102E5000888D93989B9B978D806F60534A45434420
:102E6000484F5B687684909BA4AAADAAA3998D82F3
:102E7000766C635E5C5D5F6162656A6F74787C80AE
:102E8000858C929595928C84796D61554E4B4C5200
:102E900059636E7C8A97A3ADB3B6B4ADA3968A7F0F
:102EA00077706A666362626365686B6F7376797D5B
:102EB00082878B8C8880766A5E52473F3D3F4650C2
:102EC0005C6874818E99A2A7A9A8A39C92887F763A
:102ED000706B67656567696D717477797C7F8387CF
:102EE0008C90939390887D6E5F5146414248525E2C
:102EF0006A76828E99A1A5A5A19A918A837D78731D
:102F00006F6B6968686A6C6F7275787B7F82868A7E
:102F10008E91928F887F756B625A5655585F687292
:102F20007C86929EA9AFB0ACA6A09991887F787359
:102F300071706E6D6C6D70757A7E8080818385880E
:102F4000898987827B7269615C5A5C60666C747D7A
:102F500087929CA3A6A6A29E9A96928E88827C7641
:102F6000726E6C6C6D6F73777C7F8284888D9192AA
:102F70008F877D71675E585555575D646B737D888B
:102F8000939B9E9D99948F8C8A888683807B767292
:102F90006F6C6A6866676A71777D81858A909391A4
:102FA000887B6F655E59565354586069717A848F77
:102FB000989FA09C958E8884817E7C7B7976716BAE
:102FC00065615E5C5D5F646A727980858888847BF8
:102FD0007167605B585756575A5E656E7780889068
:102FE000969B9E9E9B96918D8A898885807A746E29
:102FF0006A67676A6F757B7F82868B8E8E887F7427
:103000006B64605E5C5B5C5D5E61666D7680878D27
:10301000919495938E8987878989857D756F6B6972
:10302000666363676F787F858A9094969085796FE1
:103030006A6969696A6C707376797D83898E919407
:10304000969BA0A3A2A09C9995918B847F7C797775
:10305000747273787E84888B8D8F8F8B8379726E78
:103060006C6B696766686B707477797B7C7F82872D
:103070008C91939493918F8B867F78736F6D6B6A2D
:103080006B6F767B7E7F7F7F80817E79726D6A6ACF
:103090006A6866646364676B6F74787A7B7D808529
:1030A0008B9094969696938D847C757271717171E4
:1030B000757A80858686858483817C777370706F4E
:1030C0006D6A6664636466696B6D6F7072767C832B
:1030D000898E9091908D89837B746F6C6A68676725
:1030E0006A6F74787A7A7A7A7A7874716E6D6D6DA7
:1030F0006B6763626366696B6C6D6F747A81888ECF
:10310000939697979694928F8A85807B7774737441
:10311000767A7E80807F7E7F7F7E7C797675757300
:10312000706B666362636566696C71787F85898C94
:103130008D8E8F91929392918F8D8A86807A747101
:103140007174777A7C7D7E7E7E7D7A7878787978E6
:103150007673706F6E6E6E6F70747C858E95999AB3
:103160009A9999999998969492918F8B857E787572
:103170007474757575767676757371717376767508
:10318000716D6A6968676565687079838A8E9192E6
:1031900094959697969694928F8B86817D79777584
:1031A0007474747578797976726E6D6E6F706F6CF9
:1031B0006866646362616163676D757C83888C8F08
:1031C00090919292918F8C8986817B746E6B6B6DDE
:1031D0006F6F6F6F7071716F6B6968696A6B696728
:1031E000656566666666676A717981888E9294966F
:1031F000969695949392908D89837C767371706F77
:103200006E6E7074777977736F6D6B6A68656464DE
:10321000666666646364676D737A81888E9295973B
:10322000989795918E8B898885817D797877777647
:103230007472727476767675747372706D6A696979
:103240006B6C6B6A6A6A6D7279818991969B9D9F9E
:10325000A09F9C98938F8B888584838383827F7CB7
:103260007A7B7D7E7F7E7D7E7F81817F7C79777694
:10327000777878787777797D82878B8E9194989B11
:103280009C9A958F8985807B75706E6D6D6C6A696F
:103290006767666563626265686B6B6A69696A6CB9
:1032A0006D6E6D6D6D70767D84898C8E9092959724
:1032B0009796959492908B85817E7D7B78757272BE
:1032C000737574726F6E6F70706F6E6E70717272F4
:1032D000717171727376797D81848586888B8C8B10
:1032E00087817E7D7D7D7B77737170706F6D6B687C
:1032F0006765646364676A6C6C6C6C6C6E6F70702D
:10330000717376797E83898E929394949392908D43
:103310008A878583817E7A77747372706E6C6B6A2C
:103320006969686666666668696A6B6C6E6F6F70FD
:103330007275797F84888C8F93979B9D9D9B9793C3
:10334000908E8C88827D7978797A7A7977767472A2
:103350007271717070706F6F6E6C6968686A6E718F
:1033600074777B81878C8F9092969A9D9E9B98967E
:1033700095949089827C7A7A7C7D7C7B7A7B7B7A3F
:1033800079787778787978777573727171727274E9
:1033900076797F868D9294959595969695928F8C59
:1033A00088847E79747270706F6C6A68676768670A
:1033B0006768696A6B6B6A69696A6B6C6C6C6B6D68
:1033C00071767C82868A8E90929393939292928F5A
:1033D0008A837E7B7A7979777472727272706D6A81
:1033E0006767686A6C6B6A6868696B6C6C6B6A6C3F
:1033F00070767B7E808285898B8C8B898787878599
:10340000827E7A78777777757472717170706F6F6A
:103410006F6F6F6E6E6E707275787A797877787C70
:1034200081868889898B8D9091908C87827E7B782C
:1034300076747575757472706D6B686766666769AA
:103440006B6C6C6B6867686B6F737677787B808664
:103450008A8D8E9093979999969391908D89837E7A
:103460007C7D81848483817E7C7A787674747476A2
:103470007778797878777677787A7C7F848A91956F
:1034800097969596999C9D9C9994908B86807A7539
:10349000737475777878777573716D6A696A6B6D17
:1034A0006D6D6B6A696A6C6F727477797D818589DD
:1034B0008C8E8F91919291908E8B87817B74706EA0
:1034C0006F7071716F6D6C6C6B6B6A6A6B6C6D6D2C
:1034D0006C6C6D6E7071717274787D82888C8E8F59
:1034E00090909294969695918E8A86817C7773714E
:1034F000706F6E6C6B6A6967646160606264666657
:10350000666665656566686B6F7275787C808588B0
:103510008A8A8A8B8D8E8D8B87837E7A7775747578
:1035200077797A797774716F6D6C6C6C6D6E6F7181
:103530007274757678797B7E818486898B8D8F9085
:103540009091929393928F8A857F7B77757574742F
:1035500074757576767573706D6B696969696A6C77
:103560006D6F7173767A7D808386898B8C8D8E905A
:10357000919292908E8B888683807D7B7978787704
:10358000777778797A7B7B7A7978777674737273C8
:10359000747577797C7E808284888B8E91919190EE
:1035A0008F8F8D8B8884817F7D7C7A787674737120
:1035B000706E6E6E707274767676767573727170E8
:1035C00070727376787B7D7F8183858788898B8C09
:1035D0008C8C8985807B7774737372706F6F6F6F5B
:1035E0006F6E6D6C6C6D6F707274767778777676BF
:1035F0007677797A7B7D7F828484848484858788CA
:10360000888683807D7B7976736F6D6D6D6E6F6F4D
:103610006F6F6F6F6F6F6F7072747677787879797C
:1036200079797A7B7E808385868685848585868682
:103630008482807E7D7C7B7874706D6B6C6C6D6E2B
:103640006F707171717171737578797A7A7B7C7E24
:103650007F7F80828487888888878889888784811B
:10366000808080807F7D7A7875737270706F6F6FE5
:10367000707274757678797B7D7F8080818182829B
:1036800083848587898B8C8C8D8D8E8E8D8B88869F
:10369000848281807F7E7D7C7A7876747272727289
:1036A00073737373747576777879797A7A7C7D7DA4
:1036B0007E7E7E7E7E7F7F818284858482807D7B0C
:1036C00079787675737272727272716F6F6F7071D2
:1036D00072727374757778797A7B7C7D7F80818351
:1036E000848484848483838484858586858482809D
:1036F0007E7C7B7976757473737272717172737379
:103700007373737476777777777778797A7B7D7E42
:103710008080807F7E7D7D7D7D7D7C7C7C7D7D7CD1
:103720007B7A78777574737271706F6F7071717264
:1037300073747678797A7B7B7B7B7C7C7D7E7F81E2
:103740008181818080818181807E7D7D7D7E7E7D85
:103750007B7B7A7A7A7978767574747474747475FC
:103760007678797B7D7E7F7F7F7F7F80808181817E
:1037700081808080818181807F7E7D7C7C7C7A7964
:1037800078787878787776757576767676757576D2
:103790007778797B7C7E7F81828283838383838237
:1037A0008282838484838281807F7F7F7E7E7D7C12
:1037B0007B7A797878777778787979797877777785
:1037C00077777778797B7D7E7E7E7F7F7F7E7E7D3B
:1037D0007D7D7E7E7E7D7B7A7A7A7A79797878783B
:1037E000787777767675757676777777777878786D
:1037F0007879797A7B7C7D7E7E7F7F807F7F7E7EFD
:103800007E7F7F7E7E7D7C7B7B7B7A797877777805
:103810007877777676767677777777777778797936
:10382000797A7A7B7B7C7C7D7E7E7E7E7D7D7D7ED3
:103830007E7E7D7D7C7C7C7C7B7B7A7979797878D7
:10384000777777777878797979797979797A7A7AEF
:103850007B7B7B7C7C7C7C7C7C7C7C7C7D7D7D7DA7
:103860007D7C7C7C7C7C7C7B7B7B7A7A7A797978AA
:103870007878787979797A7A7A7B7B7B7B7B7B7CA9
:103880007C7C7D7D7D7D7D7D7D7D7D7D7C7D7D7D6B
:103890007D7C7C7C7C7C7C7C7B7B7B7B7A7A7A7974
:1038A00079797A7A7A7A7A7A7B7B7B7B7B7B7C7C70
:1038B0007C7C7C7C7C7C7C7C7C7C7C7C7C7B7B7B4B
:1038C0007B7B7B7B7B7B7B7B7B7B7B7A7A7A7A7A4D
:1038D0007A7A7A7A7A7A7A7B7B7B7B7B7B7B7B7B3F
:1038E0007B7B7B7B7B7B7B7B7B7B7B7B7B9C9C9CC5
:1038F0009C9C9C9C9C9C9C9C9C9C9D9C9D9D9D9C04
:103900009C9C9D9C9D9D9D9D9C9C9C9C9C9C9C9CF2
:103910009C9C9C9C9D9D9D9D9C9D9C9D9D9D9C9DDE
:103920009D9D9D9D9D9D9D9D9D9D9D9D9C9D9D9DC8
:103930009D9D9D9D9D9D9D9D9D9C9C9D9D9D9D9CBA
:103940009D9E9D9C9C9C9C9B9B9C9C9C9A9B9C9CB8
:103950009B9B9B9B9E9D9B9C9C9B9E9D9B9C9D9EA5
:103960009D9C9D9C9A9B9C9D9A9A9D9C999C9A94A7
:103970009B9B969E9B98A0A3B1AD908C9BAAAEA951
:10398000A69592A8B1B1B7B0AAB0A9A4B5BEB4AC7F
:10399000BFCCC1ACA0855C4B324370756B6D6C675E
:1039A00067737D7E8B90919392969AA3B2BAC2C7A9
:1039B000C7CAC9C5C5C4C0C2C3BFC0BEBBBFC2BCE5
:1039C000B4ACADAD9F9AA6ADA599918E9696908D0B
:1039D0008E8B81868B8A8F8D878B919E9D9DAA96DB
:1039E000807F818FACB1A4B4C5B59B907252555104
:1039F000556B716B777D7276858E949796989A9EAB
:103A0000A2AAB5C1C9CDD1CDCCCDCACBD6D5D5D83A
:103A1000CCC1C2BEB5BDBFBBBDB2A9A6A4ABA39865
:103A2000958A88938F8384847F7D7E7D7D84858342
:103A3000888F938A82808281818F97A8B0B4C6BE16
:103A4000A4A29587826A5E534441586F797E787646
:103A5000838A8690A0AFAFAFAEB1BAC1CFD4CDD478
:103A6000DDDDDFDBD6DAD9CFD0D4C8C4C7BDBFC453
:103A7000BCB9B9B3A89E94939FA79E8D8580838976
:103A8000887D71737D7D787A7772767874747274BC
:103A90007370717794B2AFAAAAA7B1BBABA2A69379
:103AA0007E706A614F455D8082847F7D7F8C979BAD
:103AB000A9B0B8BCB7BEC0C6D5DCE0E1E7E5DFDF42
:103AC000D8D1D5C8C9D3C5BCBECAC4B1A5A5A8A301
:103AD000A09A9A99939092877D84868E806B717854
:103AE000747B76697A847D7D84766F766F717D9143
:103AF0009EA8B0AFB1B5A6AAC5B5A08F8984615301
:103B00004B4F748A7D7B7674828799A5AAB1B7BC26
:103B1000BDBEC5D3D8DBDEE5E6DAD8DAD5CFD0CC6A
:103B2000C9D3D1C4C3C2B9A89EAAA89995958F9D9F
:103B30009C898F8A7674797573747C7C736F6A6DD7
:103B4000747C7F736D6F70747375828B9BACB5B62C
:103B5000B7B3B2C2C8BFBBBBAB9A5D2B41627A831D
:103B60007F7B7B7785918999AAAAB6BDB8BDC3C86A
:103B7000CDD3DCE3E4DADCE8E6D3C7CACAD0CEC1F1
:103B8000C2B3ACBCAFA9AA989FA39C9591897F7A38
:103B90007A7A7F7C6B6D737C7974716D6D6C7174E6
:103BA0007E878B7A615A6272849399A4B1B4C1CB37
:103BB000BEB5C9C6A9ABC2C1B08F351C4E759493B2
:103BC000817B878A858D9FAFC3CBC4B4AFB7B9D192
:103BD000E6EAE4E2E9E7DCD4CBC3C7D2D9D2B8AB9A
:103BE000B7B6AA9E9AA0A19A9B8F7E8889827E7280
:103BF0007077756F6D6A6D68677A7B716A666D75CF
:103C00007E7F7874695B728D939DA7B4B8C1D0C76D
:103C1000CCC7C5C3B3A3ACDCD4A0592C2952828D28
:103C20008C7D808D8A8396A4B2C1C6C6C3CDCCC21A
:103C3000CFE5DEE0F0EBEAECDCCFC3B6C0CECFC31D
:103C4000B4BBB2A39D8D89908B8B9589847D645F75
:103C50007176727A756665726D6A6B676A6066699D
:103C6000686D697D7E7987939FA9B0BDC7D7DAD289
:103C7000DABEB0B6AFB6BDA58E733725527D82943D
:103C80008D737E939396AAB3C0D8D8C7C5CED6CA33
:103C9000D1ECEAEEFEF3E0D2CDC9C4D0C9C0C7B9B9
:103CA000A1989D9294A298877C7F7678877462759C
:103CB0007E6E676A68686F635D6161676663667D73
:103CC000887E7C75778694B3C3BFC5C0C4D5CCBD90
:103CD000BABDA883828F78585275776C817E7F92A7
:103CE00097A2B5B3BFBCBECCC6D0D5DBDFE9FEF42E
:103CF000E6DED3D9D8D3D3D6D2C4BFBDABAEB9AB31
:103D00009F91939C8D81858982717373716E6666B4
:103D1000616C76686E776767635D6C6C5F6069681D
:103D2000707C737A8E8E97B1BBBCC6C2C7CCCCD424
:103D3000C5C6C4C0D6CBB59A84816F43467E676141
:103D4000857881908C9BA0A6BBB7BDC8D1E1D4D5A6
:103D5000E3DEE4DEE4E5DDE6E7E0CDC9C3C1C0BAF9
:103D6000B2AAABA29389887F828986807A726562C3
:103D7000666465666E6D6966656D6C697174767B87
:103D80007A776D7D8781848F9FA1ABBBC6C2C2E16C
:103D9000DCD2D6C0C0BDC2C39F875F2D4A786563A1
:103DA000818285918D989597BACFCFBAB3BFC8D588
:103DB000DFDFF7EFE4E9D5D7D0C5CCD0CCC7BBA8BF
:103DC000A2B1A8959492918B8C917F727782827028
:103DD00063616972766F6F67627180796C68717CFC
:103DE00081948B7F7E6B6F909F9FADB0B4BCC0CA37
:103DF000C8CDCFC6D8D2C3BCAEBBAF9A7C32215E91
:103E000069606C6D83898184909CAABCBCB7C7C76C
:103E1000C3D8E7E8E1E3EFF0E7E6E5DCCBC8D0C5DF
:103E2000BCB5A9A9ACA3957E7F8181989D93766648
:103E30007069636664656C756B767E79817E7D6E74
:103E4000666F7280908B816E6E8BA0A5B3B3B4C287
:103E5000BDC1C5CBD8DAD6B2AAD2BAC5B999871C2A
:103E60000855676277828C7F79838A9CABB6C0B62F
:103E7000ADC4CBD2D9E7FAF1E2D8DAE1D9D4D9D6B8
:103E8000C0C4C6B5AAA8A59F9D9C928587807B7952
:103E900077767A7F75645C61706E67787574847DFF
:103EA000756F74848188958B8572698899ADBCBB68
:103EB000BABFC2C3CCC4BDC6D1C8B1BFC5C8BF8913
:103EC000884500415E5B7F817387857D8594AAB8B4
:103ED000C2CCC4BFCDD0DCE9F0E7DFEDE6D3DCD760
:103EE000C6D7CCBBC1B6A4A29C909992898D8F8C69
:103EF000877F776E6F6E6C706D76766D65657671A7
:103F00007685807E77798982818F827C738BA8A762
:103F1000BBC2C3C0B3BDC4BCCCC2ACB8B5ADBC9B06
:103F200089A66E1E385F59748888837F8B92A9BBDF
:103F3000BAC8C9C9D8DCDDDFE6F0F3EFE4ECE4D5BC
:103F4000E1DEC5BEC1B0ACA5958B8C888380777946
:103F50007C73696E716F6360646678786D73706787
:103F6000727C83898B8D8C898E908D9A9B91989D84
:103F7000A5AEBFCDCBC5B5B5BFBBB3B5AEAFC1C4A4
:103F8000B37C8FA24B2F464C6481878788818697AC
:103F9000AAB7C4D3C9C8DADEDED8E8F9EAEFDCD8BC
:103FA000E1C1D2D5B7B9B9B0A49598927D787C7F9C
:103FB000786D67676366686B6A5C656A6C786F7456
:103FC00074707E818A9C98989D9B999CB5BEB4AF75
:103FD000B0B2C4CAC4CBC3B5B6BBB1ABA6ABA69E88
:103FE000B0B6977D91A06646270D6287808F7D7D54
:103FF000929DB4B6B2C7D4D1CDDBD6CCD7E3EBE833
:10400000DBD7ECD4BFCAAB9FB2A89B998A837972E5
:104010007679766A706D6265706E607385797C887A
:104020008378737E848C9D9AA9BDB5B4B5BBC4C199
:10403000B7ADA3A8BAB8AFBEB7A0A29B939FAD9FE0
:1040400092A6A79D89899B8565421F3572808493BE
:104050008B909AA3C2C4B6D8E4D6DBD4CCD6DBE22C
:10406000EFD7CCCFC2BCCFC6A9A3998B7875798086
:1040700085847E78756F6A64677A7D767471798FCE
:10408000928890878D969CA1A1B8BFB9C2B9ACB2F5
:10409000B3B3AD95889D9FACAD9EAB9D8DA2B69CF4
:1040A0008C9A9EA4AC9D75739D856D5F2643727C32
:1040B0008A8D99A29BAFB9B7C4D6E0DFDECAC4D05F
:1040C000E5E6D4D0E0D6C0BDB5BAB6A692807E8172
:1040D0008186777D7F656B7476797F7E7376838D3D
:1040E0008681898B989E92929DABB9C0B3AFB9B7C8
:1040F000AE9DA5AC96958C8C999298999D9A97A710
:10410000A7A1B0AB969CA99F8B8989838EA14612EB
:104110006382849D978FA7ADBAB3B4C9C2D3D8C503
:10412000CDD7CECED0CEDED9C0BEB2A5AB89849AD3
:10413000858A8E837C7E84796B7A89888975748E72
:1041400092889BA5979499A19C97A2AEA9AEADAB7E
:10415000B9AE93989C9794857E7C91948A96989515
:10416000A8A197A0ABAB928581888999A76D558D41
:10417000848A9D8DADB6B8BAAABCC6C9DFD0C6C602
:10418000C2C5C5C2B0BBC0B1A798A2A38A92907A9B
:1041900088886F778483828A90938B8B91979E9681
:1041A0009BA1A2A2A6B4AEA5A09B9999A8AEA2ACD1
:1041B000A58C8F938A827C767B8698989B9CA3B2F1
:1041C000AA917D73759A98544D8088A19795B9B03E
:1041D000B4C3B8B9CFD6D5CDC3BFC3C3C9C7BBB0AD
:1041E000ABB6B1959093929594958E868D8E84946E
:1041F0008A798D978D90989EA59F9D9F9C9B9A9C58
:10420000A69B8A909DA9A79F9B9FA7A08F8D818722
:104210009F9482888E92B3B0987B649088557993EE
:1042200070899A8FA5A2A2AFAFB7C4BFBFBCB4C4F8
:10423000CAC2C5BBAEB3AAA6A49DA1999E9FA2A1C6
:10424000968F8A95A6A7999C9EA49C909598A3A2C8
:1042500095A4B5A28A8683919F919D9A8E999296F4
:10426000A39597A3938F9C8992A398A8ADA6A59494
:10427000726667818C718293888F9C95A2A7A9B67C
:10428000B5B6ACADB6AEADB1ACA8ADAFA99E999F79
:10429000ACABAA9E939F9A9EAAA7A8A9A3A5A4A0E7
:1042A000A2ACB4ADA5988F9EA7998E8E9098A2903F
:1042B00096A596989A919C9296A38D8C857A7F72FA
:1042C0008297949AA8ACAA9D8EA09B8F8B7FA4B155
:1042D000979E9B8CA0AAA9A3A3A8979BAAA59FA6DB
:1042E000A09EAAA69B9E9FA09E9FABA2A0A59F99C1
:1042F0009BB0B3A29DA0A3A4A3A5A49B9EA2A6A984
:10430000A19E979A9F948C959391A4A08C9197A528
:10431000AC95A1B1A9B185696A638A92858B96A093
:104320009D999F9CA3B0A8A9ADA9A2989DA5A1A560
:104330009C959F979599989D9E9D9B9A9FA7A9A8AC
:10434000A1A0A6ABADA69F9C9DA0A09D989B9A976F
:1043500095989A9295A1A8A6A8A1A3A39FA7A0A764
:10436000AE95889791909994969EA29D95959B9CC9
:10437000999B97939696989899A39D949A969597BA
:104380009CA19FABA89B979DA2A6B2AFA7987D6B5F
:104390008999969F9C9F9EA8AFA09EB6B6A4A09D0B
:1043A0009CA59D949C979394908D9A9A989D9BA779
:1043B000A49595A1AAAFAB9FACACA3A7A3999DA2CE
:1043C0009D9D9D9893999B979B948F95989A9EA05D
:1043D000A19FA29E999390988D8B9390969C959C6B
:1043E0009C9AA3A1A3A2A1A3A4A39E9AA5A6A2A1BD
:1043F0009C9C9F9D98959B9D93919396999B969934
:10440000A1999A9F9C9DA2A1A09EA2ACA2A3A49EAA
:10441000ABA49AA4A19EA5A0A0A09DA19FA2A6A086
:104420009D9998A09B989F9B9A93929B9E9D957B0C
:10443000839F8B8C9B9297A59996A0A1A5A39AA2E6
:10444000A29D9F9C9B9C9C9D9FA0A29D9D9C9BA28E
:10445000A29C9E9E9D9E989B989BA09EA197959F97
:10446000A29C979EA09DA19E99A2A4A19FA0A39E5D
:10447000A0A39E9E9E9EA1A2A098949896979B9B77
:104480009C9A9A9E9D9C9B999D9D9997969795988D
:104490009A9C9FA0A09D9C9F9F9EA09B9B9F9E9B44
:1044A0009E9D9B9B9B9D9E9D9C9E9B9A9C9B9FA43F
:1044B000A1A1A0A1A09DA2A09D9D9B969190969840
:1044C000999C9999999A98989C9F9E9C9F9CA0A032
:1044D0009C9FA29E9A9C9E9E999B9E9C9FA09FA003
:1044E000A0A3A5A4A09F9FA1A2A0A1A09FA09F9CC4
:1044F0009A98999D9B9794929497989A9B9B9B9D31
:104500009D9D9B9B9A989B9B9998999EA09E9D9CF4
:104510009C9D9D9C9C9B9B9C9D9D9B9C9B999A9AE2
:104520009B9D9D9C9D9C9A9A9D9E9D9E9E9D9D9DC2
:104530009D9E9F9FA0A1A3A2A29F9E9FA0A2A0A17B
:10454000A19E9EA0A09F9D9C9D9E9D9B9B9B999A9A
:104550009998989798999A9C9D9C9A9A9B9E9E9DB3
:104560009D9A9796989997979A9A9B9A98989799BF
:104570009B9D9F9D989A9D9FA09F9EA0A4A29F9E59
:104580009EA09E9D9D9C9E9F9E9E9F9F9F9E9F9F47
:104590009F9D9B9D9FA19E9D9D9C9B9A9C9D9A9B50
:1045A0009C9E9D9B9EA1A09E9E9EA09F9EA0A29F22
:1045B0009C9B9E9F9D9A989C9C9A95959797969761
:1045C000989B9A97969A9A9998999B9B9B9B9B9A52
:1045D0009B9D9FA09F9E9F9F9FA1A2A1A09F9FA0E8
:1045E000A1A19F9E9E9E9E9E9E9F9F9D9A9A9A9BF2
:1045F0009B9B9B9C9C9C9A9B9D9D9D9D9C9D9E9DF9
:104600009D9C9D9F9F9F9F9F9F9E9E9E9D9D9C9CCE
:104610009C9D9D9D9C9B9B9B9A99999A9B9B9A99EB
:104620009A9A9B9C9A9B9B9C9C9B9A9B9B9B9C9DD8
:104630009E9D9C9C9E9E9E9D9D9E9E9E9E9E9E9EA1
:104640009E9E9E9D9C9C9C9D9E9D9C9C9C9D9E9D9B
:104650009D9D9E9E9E9F9E9D9E9E9E9D9D9D9D9D81
:104660009D9D9D9D9D9C9C9C9B9B9C9C9D9D9C9A87
:104670009B9C9C9C9C9C9C9B9B9B9B9A9B9B9B9B85
:104680009A9A9A9B9C9C9C9C9C9C9D9D9D9D9C9C6D
:104690009D9E9D9D9D9D9D9D9D9D9D9D9D9D9E9E47
:1046A0009D9D9D9D9D9D9E9D9D9D9D9D9D9D9D9D39
:1046B0009D9D9D9D9D9C9D9C9D9D9D9D9D9D9D9C2D
:1046C0009C9D9D9D9C9C9C9C9C9C9C9C9C9C9D9C26
:1046D0009C9C9C9C9C9C9C9B9B9C9C9C9C9C9C9C1C
:1046E0009C9C9C9C9C9C9D9D9D9D9C9C9C9D9D9D03
:1046F0009C9C9D9D9D9C9C9C9D9D9C9C9C9C9C9DF4
:104700009D9D9D9C9C9C9D9D9D9D9D9D9D9D9D9DDC
:104710009D9D9D0011241FBECFEFD0E4DEBFCDBF15
:1047200011E0A0E0B1E0E8E0FBE500E00BBF02C073
:1047300007900D92A430B107D9F721E0A4E0B1E0D1
:1047400001C01D92A133B207E1F70E946F260C94BD
:10475000412D0C9400001F920F920FB60F9211245E
:104760000BB60F928F939F93EF93FF93CF93DF93AB
:10477000CDB7DEB780912901811551F488E790E02B
:10478000FC0180819181909302018093010137C0E7
:1047900080912901813051F488E790E0FC0180810B
:1047A000918190931C0180931B0129C08091290164
:1047B000823051F488E790E0FC01808191819093F0
:1047C0002D0180932C011BC080912901843051F46C
:1047D00088E790E0FC01808191819093180180939B
:1047E00017010DC080912901853049F488E790E0D8
:1047F000FC01808191819093300180932F0181E0B1
:1048000080932A0110922B01809129018F5F809360
:10481000290180912901863010F0109229010000B1
:10482000DF91CF91FF91EF919F918F910F900BBEF0
:104830000F900FBE0F901F9018951F920F920FB6FA
:104840000F9211240BB60F922F933F934F935F93C8
:104850006F938F939F93EF93FF93CF93DF9300D04A
:10486000CDB7DEB7809104018F5F80930401809102
:1048700005018E5F8093050180912E01863089F4B9
:1048800080910601909107018D3922E3920748F447
:104890008091060190910701019690930701809302
:1048A000060180912E01883089F480910601909153
:1048B00007018632EEE09E0748F480910601909150
:1048C00007010196909307018093060180912E01C4
:1048D000853089F48091060190910701873BF4E0CF
:1048E0009F0748F4809106019091070101969093EB
:1048F0000701809306011A82198280912E01882F68
:1049000090E08830910509F4F2C0893091050CF0EF
:1049100010C18630910509F4C8C0873091050CF0AC
:1049200008C18430910509F49EC0853091050CF0D2
:1049300000C18330910509F452C0843091050CF018
:10494000F8C08230910589F1833091050CF0F1C0F7
:10495000009729F08130910509F463C0EAC0809185
:104960000A01282F30E080910401882F90E04091C7
:104970002C0150912D015695479556954795569582
:10498000479561E04817590708F060E0862F90E0EE
:10499000919581959109822393239A8389838BE250
:1049A00090E02981FC012083E4C080910A01482F16
:1049B00050E080910401282F30E0429FC001439FC6
:1049C000900D529F900D11249A83898389819A8139
:1049D000292F33278BE290E0FC012083CAC080910D
:1049E0000A01482F50E080910401882F90E021E5D2
:1049F00035E0820F931FFC018491282F30E0429F05
:104A0000C001439F900D529F900D11249A8389837A
:104A100089819A81292F33278BE290E0FC01208342
:104A2000A8C080910A01482F50E080910401882F8E
:104A300090E02CE831E0820F931FFC018491282F35
:104A400030E0429FC001439F900D529F900D112472
:104A50009A83898389819A81292F33278BE290E079
:104A6000FC01208386C080910A01482F50E080918C
:104A70000401882F90E022E534E0820F931FFC01AF
:104A80008491282F30E0429FC001439F900D529F98
:104A9000900D11249A83898389819A81292F332744
:104AA0008BE290E0FC01208364C080910A01482FD2
:104AB00050E0809106019091070120E536E0820FD9
:104AC000931FFC018491282F30E0429FC001439F37
:104AD000900D529F900D11249A83898389819A8128
:104AE000292F33278BE290E0FC01208342C0809184
:104AF0000A01482F50E080910601909107012DEEA8
:104B000038E3820F931FFC018491282F30E0429FED
:104B1000C001439F900D529F900D11249A83898369
:104B200089819A81292F33278BE290E0FC01208331
:104B300020C080910A01282F30E08091040187FB7A
:104B4000882780F9882F90E09195819591092823F5
:104B500039234FEF429FC001439F900D11249A8348
:104B6000898389819A81292F33278BE290E0FC0188
:104B70002083809104018F3710F420E401C020E0ED
:104B80008BE290E0FC01208300000F900F90DF91FA
:104B9000CF91FF91EF919F918F916F915F914F9185
:104BA0003F912F910F900BBE0F900FBE0F901F9053
:104BB0001895CF93DF93CDB7DEB760970FB6F89413
:104BC000DEBF0FBECDBF988B8F8774C080E090E0B2
:104BD000A0E8BFE389839A83AB83BC8320E030E401
:104BE0004CE955E469817A818B819C810E944B2B31
:104BF000DC01CB018D839E83AF83B88720E030E05A
:104C000040E85FE36D817E818F8198850E94EE2967
:104C100081152CF481E090E09A87898740C020E0DC
:104C20003FEF4FE757E46D817E818F8198850E9429
:104C3000462B813054F120E030E040E251E46981BC
:104C40007A818B819C810E944B2BDC01CB01BC01C2
:104C5000CD010E94652ADC01CB019A87898710C0AB
:104C600084EF91E09C878B878B859C850197F1F77A
:104C70009C878B87000089859A8501979A87898709
:104C800089859A85009761F715C06D817E818F8136
:104C900098850E94652ADC01CB019A8789878985DE
:104CA0009A859E878D878D859E850197F1F79E87D2
:104CB0008D8700008F8598890197988B8F878F85C6
:104CC0009889009709F082CF0000000060960FB627
:104CD000F894DEBF0FBECDBFDF91CF9108958F92C4
:104CE0009F92AF92BF92CF92DF92EF92FF920F937B
:104CF0001F93CF93DF93CDB7DEB72F970FB6F894FE
:104D0000DEBF0FBECDBF81E290E0FC01108282E2E7
:104D100090E0FC01108284E290E0FC01108285E2C8
:104D200090E02FEFFC0120838AE290E02FEFFC015E
:104D3000208380E890E023E0FC01208381E890E07C
:104D4000FC01208181E890E02961FC0120838FE64D
:104D500090E022E0FC01208378948AE790E027E845
:104D6000FC0120838AE790E0FC0120818AE790E043
:104D70002068FC0120838AE790E0FC0120818AE71B
:104D800090E02860FC01208310920B018CE790E0FA
:104D9000FC0110828AE790E0FC0120818AE790E024
:104DA0002064FC01208310920A0180912F019091D0
:104DB0003001009759F080912F01909130018D348E
:104DC000F1E09F0718F410922E0126C080912F0168
:104DD000909130018D3421E0920760F080912F0195
:104DE000909130018A39E2E09E0720F482E08093BE
:104DF0002E0112C080912F01909130018A39F2E08A
:104E00009F0750F080912F0190913001883E23E060
:104E1000920710F410922E0180912B018115D9F484
:104E200081E080932B018CE790E0FC0110828CE7FD
:104E300090E0FC013081209129018CE790E0232B48
:104E4000FC0120838AE790E0FC0120818AE790E062
:104E50002064FC0120838091100190911101813A1E
:104E6000FFE09F0708F463C1809101019091020166
:104E7000CC01A0E0B0E0BC01CD010E94942ADC018D
:104E8000CB0120E030E040E054E4BC01CD010E94C1
:104E9000F329DC01CB018F839887A987BA8780919A
:104EA0001701909118018A5B9F4FCC01A0E0B0E000
:104EB000BC01CD010E94942ADC01CB0129E93AEA28
:104EC0004AE252E4BC01CD010E94F329DC01CB018E
:104ED000BC01CD010E94652ADC01CB018B878B854B
:104EE000882F90E0092E000CAA0BBB0BBC01CD0152
:104EF0000E94962ADC01CB0120E030E040E451E43E
:104F0000BC01CD010E94F329DC01CB018C879D8778
:104F1000AE87BF8780912E01823009F072C08091E8
:104F20002C0190912D018536910508F46AC02C85DD
:104F30003D854E855F856F81788589859A850E943C
:104F40008229DC01CB019C01AD0160E070E080E0D2
:104F500090E40E94B82BDC01CB0120E030E04CED66
:104F600052E4BC01CD010E944B2BDC01CB016C0152
:104F70007D0180912C0190912D01929582958F70E9
:104F800089279F708927CC01A0E0B0E0BC01CD014A
:104F90000E94942A4B015C0180911601882F90E0B9
:104FA0002CE830E0820F931FFC018491882F90E061
:104FB000092E000CAA0BBB0BBC01CD010E94962A46
:104FC000DC01CB0120E030E047E054E4BC01CD013E
:104FD0000E94F329DC01CB019C01AD01C501B401A4
:104FE0000E944B2BDC01CB019C01AD01C701B60136
:104FF0000E948229DC01CB0189839A83AB83BC8325
:1050000076C080912E01863029F52C853D854E8510
:105010005F856F81788589859A850E948229DC0168
:10502000CB019C01AD0160E070E080E090E40E9463
:10503000B82BDC01CB0120E030E04CE553E4BC01AF
:10504000CD010E944B2BDC01CB0189839A83AB837A
:10505000BC834DC080912E01883029F52C853D857B
:105060004E855F856F81788589859A850E94822922
:10507000DC01CB019C01AD0160E070E080E090E4D8
:105080000E94B82BDC01CB0120E030E04CE553E47A
:10509000BC01CD010E944B2BDC01CB0189839A839B
:1050A000AB83BC8324C02C853D854E855F856F8195
:1050B000788589859A850E948229DC01CB019C0133
:1050C000AD0160E070E080E090E40E94B82BDC016C
:1050D000CB0120E030E04CED52E4BC01CD010E9458
:1050E0004B2BDC01CB0189839A83AB83BC838091FA
:1050F000010190910201893C9105A8F08091010184
:1051000090910201893EF3E09F0768F408E810E0FF
:1051100069817A818B819C810E94652ADC01CB01A7
:10512000F8019183808310921101109210018091F7
:105130000C0190910D018536910508F43FC08091D6
:105140001B0190911C018937910538F180911B0159
:1051500090911C018115F4E09F07F8F480911B01E8
:1051600090911C0188579109969587959E838D8310
:105170008D819E81911521F08FEF90E09E838D832C
:105180002091190130911A018D819E81820F931F08
:1051900090931A018093190104C010920701109294
:1051A000060180910E0190910F01019690930F01DD
:1051B00080930E0110920D0110920C0180910C0150
:1051C00090910D01019690930D0180930C018091B7
:1051D0001201909113010196909313018093120193
:1051E000809110019091110101969093110180938B
:1051F0001001809114019091150101969093150171
:105200008093140180911401909115018D339105C3
:1052100048F0809116018F5F80931601109215015E
:105220001092140180911201909113018333910522
:10523000D0F080910B0190910A01981728F4809189
:105240000A018F5F80930A0190910B0180910A01FE
:10525000981728F480910A01815080930A011092D6
:1052600013011092120180910E0190910F0188306C
:10527000910508F49ACD8091190190911A019695A3
:105280008795969587959695879580930B011092B3
:105290001A011092190110920F0110920E0185CD82
:1052A000CF93DF930F92CDB7DEB789838CE790E081
:1052B000FC0110828CE790E0FC0130818CE790E0EB
:1052C0002981232BFC0120838AE790E0FC012081C7
:1052D0008AE790E02064FC01208300008AE790E0E8
:1052E000FC018081882F90E0807499270097B1F7A6
:1052F00088E790E0FC01808191810F90DF91CF9150
:1053000008955058BB27AA270E9499290C940C2B6A
:105310000E94FE2A38F00E94052B20F039F49F3FAE
:1053200019F426F40C94FB2A0EF4E095E7FB0C9498
:10533000F52AE92F0E941D2B58F3BA17620773074D
:105340008407950720F079F4A6F50C943F2B0EF412
:10535000E0950B2EBA2FA02D0B01B90190010C0185
:10536000CA01A0011124FF27591B99F0593F50F49D
:10537000503E68F11A16F040A22F232F342F4427F5
:10538000585FF3CF469537952795A795F0405395ED
:10539000C9F77EF41F16BA0B620B730B840BBAF0BD
:1053A0009150A1F0FF0FBB1F661F771F881FC2F728
:1053B0000EC0BA0F621F731F841F48F4879577953C
:1053C0006795B795F7959E3F08F0B0CF9395880FF6
:1053D00008F09927EE0F9795879508950E94D12A96
:1053E00008F481E008950E94072A0C940C2B0E9477
:1053F000052B58F00E94FE2A40F029F45F3F29F067
:105400000C94F52A51110C94402B0C94FB2A0E9409
:105410001D2B68F39923B1F3552391F3951B550B7D
:10542000BB27AA2762177307840738F09F5F5F4F77
:10543000220F331F441FAA1FA9F335D00E2E3AF0B6
:10544000E0E832D091505040E695001CCAF72BD0CE
:10545000FE2F29D0660F771F881FBB1F261737071F
:105460004807AB07B0E809F0BB0B802DBF01FF2751
:1054700093585F4F3AF09E3F510578F00C94F52A0F
:105480000C94402B5F3FE4F3983ED4F386957795D8
:105490006795B795F7959F5FC9F7880F911D96950A
:1054A000879597F90895E1E0660F771F881FBB1F66
:1054B000621773078407BA0720F0621B730B840B13
:1054C000BA0BEE1F88F7E09508950E94252B88F00F
:1054D0009F5798F0B92F9927B751B0F0E1F0660FB8
:1054E000771F881F991F1AF0BA95C9F714C0B130F9
:1054F00091F00E943F2BB1E008950C943F2B672F51
:10550000782F8827B85F39F0B93FCCF38695779527
:105510006795B395D9F73EF4909580957095619510
:105520007F4F8F4F9F4F0895E89409C097FB3EF43B
:1055300090958095709561957F4F8F4F9F4F9923E0
:10554000A9F0F92F96E9BB279395F695879577955E
:105550006795B795F111F8CFFAF4BB0F11F460FF1E
:105560001BC06F5F7F4F8F4F9F4F16C0882311F076
:1055700096E911C0772321F09EE8872F762F05C08A
:10558000662371F096E8862F70E060E02AF09A9525
:10559000660F771F881FDAF7880F9695879597F91A
:1055A0000895990F0008550FAA0BE0E8FEEF1616B4
:1055B0001706E807F907C0F012161306E407F50707
:1055C00098F0621B730B840B950B39F40A2661F07B
:1055D000232B242B252B21F408950A2609F4A1401E
:1055E000A6958FEF811D811D089597F99F6780E82B
:1055F00070E060E008959FEF80EC089500240A9425
:105600001616170618060906089500240A9412169D
:105610001306140605060895092E0394000C11F4D0
:10562000882352F0BB0F40F4BF2B11F460FF04C07D
:105630006F5F7F4F8F4F9F4F089557FD9058440FD6
:10564000551F59F05F3F71F04795880F97FB991FE1
:1056500061F09F3F79F0879508951216130614069E
:10566000551FF2CF4695F1DF08C01616170618062B
:10567000991FF1CF86957105610508940895E89406
:10568000BB2766277727CB0197F908950E94D12A77
:1056900008F48FEF08950E945E2B0C940C2B0E944F
:1056A000FE2A38F00E94052B20F0952311F00C946F
:1056B000F52A0C94FB2A11240C94402B0E941D2BDC
:1056C00070F3959FC1F3950F50E0551F629FF00155
:1056D000729FBB27F00DB11D639FAA27F00DB11D6E
:1056E000AA1F649F6627B00DA11D661F829F2227F7
:1056F000B00DA11D621F739FB00DA11D621F839F7E
:10570000A00D611D221F749F3327A00D611D231F53
:10571000849F600D211D822F762F6A2F11249F57A1
:1057200050409AF0F1F088234AF0EE0FFF1FBB1FA4
:10573000661F771F881F91505040A9F79E3F510563
:1057400080F00C94F52A0C94402B5F3FE4F3983ED4
:10575000D4F3869577956795B795F795E7959F5F0D
:10576000C1F7FE2B880F911D9695879597F908959F
:10577000FA01EE0FFF1F309621053105A1F16115E9
:10578000710561F48038BFE39B0749F16894903854
:10579000810561F08038BFEF9B0741F099234AF5FE
:1057A000FF3FE1053105210519F1E8940894E795DB
:1057B000D901AA2329F4AB2FBE2FF85FD0F310C074
:1057C000FF5F70F4A695E0F7F73950F019F0FF3A53
:1057D00038F49F779F930DD00F9007FC9058089551
:1057E00046F00C94FB2A60E070E080E89FE30895A7
:1057F0004FE79F775F934F933F932F930E94B52C72
:105800002F913F914F915F910E944B2B0C94102C44
:1058100029F416F00C94F52A0C943F2B0C94FB2AD7
:105820000E94252BA8F39638A0F707F80F92E8946A
:105830002BE33AEA48EB5FE70E94612B0F920F924D
:105840000F924DB75EB70F920E94FF2CE6E8FAE583
:10585000B0E00E94432C4F915F91EF91FF91E5954D
:10586000EE1FFF1F49F0FE57E0684427EE0F441F6C
:10587000FA95E1F74195550B0E94772C0F9007FEA2
:105880000C946B2C0895DF93CF931F930F93FF928B
:10589000EF92DF92BBBF7B018C01689406C0DA2EC9
:1058A000EF010E945E2BFE01E894A79127913791AA
:1058B00047915791A6F3EF010E949929FE019701A4
:1058C000A801DA9469F7DF90EF90FF900F911F9194
:1058D000CF91DF9108959B01AC0160E070E080E81A
:1058E0009FE30C94F3290C94F52A0C94332D0E9419
:1058F000252BD8F39923C9F3940F511DA3F391508D
:10590000504094F059F0882332F0660F771F881FBB
:1059100091505040C1F79E3F51052CF7880F911DC3
:105920009695879597F908955F3FACF0983E9CF067
:10593000BB27869577956795B79508F4B1609395E1
:10594000C1F7BB0F58F711F460FFE8CF6F5F7F4FCF
:105950008F4F9F4FE3CF0C94402B16F00C94332DB8
:105960000C94FB2A68940C94F52A0E94252BA8F32A
:105970009923C1F3AEF3DF93CF931F930F93FF925D
:10598000C92FDD2788232AF02197660F771F881FEC
:10599000DAF720E030E040E85FEB9FE3883920F061
:1059A000803E40F021968F770E948229EEEAFAE548
:1059B000B0E005C00E948229EBEDFAE5B0E00E945C
:1059C000432C8B01BE01EC01FB2E6F5771097595BD
:1059D000771F880B990B0E94962A28E132E741E352
:1059E0005FE30E945E2BAF2D9801AE01FF900F91F7
:1059F0001F91CF91DF910E9499290C940C2BFA01F1
:105A0000DC01AA0FBB1F9B01AC01BF5728F4222762
:105A100033274427507820C0B75190F4AB2F00248F
:105A2000469537952795011CA395D2F3002071F078
:105A3000220F331F441FB395DAF30ED00C94812943
:105A400061307105A0E88A07B94630F49B01AC01CA
:105A50006627772788279078309621F02083318336
:105A60004283538308959F3F31F0915020F48795EE
:105A700077956795B795880F911D9695879597F9B6
:105A80000895F894FFCF07634236B79BD8A71A3919
:105A9000685618AEBAAB558C1D3CB7CC5763BD6D7C
:105AA000EDFD753EF6177231BF000000803F080023
:105AB0000000BE922449123EABAAAA2ABECDCCCC8D
:105AC0004C3E00000080BEABAAAAAA3E0000000027
:105AD000BF000000803F0000000000084178D3BBF9
