:100000000C9428030C9447030C9447030C94470367
:100010000C9447030C9447030C9447030C94470338
:100020000C9447030C9447030C9447030C94470328
:100030000C9447030C94BB030C9447030C944703A4
:100040000C9447030C9447030C9447030C94470308
:100050000C9447030C9447030C9447030C944703F8
:100060000C9449030C9447030C9447030C944703E6
:100070000C9447030C9447030C9447030C944703D8
:100080000C9447030C9447030C94470380838689A0
:100090008C8F9295989B9EA2A5A7AAADB0B3B6B936
:1000A000BCBEC1C4C6C9CBCED0D3D5D7DADCDEE066
:1000B000E2E4E6E8EAEBEDEEF0F1F3F4F5F6F8F958
:1000C000FAFAFBFCFDFDFEFEFEFFFFFFFFFFFFFF58
:1000D000FEFEFEFDFDFCFBFAFAF9F8F6F5F4F3F18D
:1000E000F0EEEDEBEAE8E6E4E2E0DEDCDAD7D5D3E9
:1000F000D0CECBC9C6C4C1BEBCB9B6B3B0ADAAA739
:10010000A5A29E9B9895928F8C898683807C797618
:1001100073706D6A6764615D5A5855524F4C494619
:1001200043413E3B393634312F2C2A282523211FC9
:100130001D1B1917151412110F0E0C0B0A090706B7
:100140000505040302020101010000000000000097
:100150000101010202030405050607090A0B0C0E42
:100160000F1112141517191B1D1F212325282A2CC6
:100170002F313436393B3E414346494C4F52555856
:100180005A5D6164676A6D707376797C000204065B
:10019000080A0C0E10121416181A1C1E20222426EF
:1001A000282A2C2E30323436383A3C3E40424446DF
:1001B000484A4C4E50525456585A5C5E60626466CF
:1001C000686A6C6E70727476787A7C7E80828486BF
:1001D000888A8C8E90929496989A9C9EA0A2A4A6AF
:1001E000A8AAACAEB0B2B4B6B8BABCBEC0C2C4C69F
:1001F000C8CACCCED0D2D4D6D8DADCDEE0E2E4E68F
:10020000E8EAECEEF0F2F4F6F8FAFCFEFEFCFAF89E
:10021000F6F4F2F0EEECEAE8E6E4E2E0DEDCDAD86E
:10022000D6D4D2D0CECCCAC8C6C4C2C0BEBCBAB85E
:10023000B6B4B2B0AEACAAA8A6A4A2A09E9C9A984E
:10024000969492908E8C8A88868482807E7C7A783E
:10025000767472706E6C6A68666462605E5C5A582E
:10026000565452504E4C4A48464442403E3C3A381E
:10027000363432302E2C2A28262422201E1C1A180E
:10028000161412100E0C0A08060402000D1E385532
:100290006F828D9292929192969EA7B4C1CBCFCD50
:1002A000C5BBB1A9A4A19F9E9D9D9EA0A6ADB6C2AF
:1002B000D0DEE6E7DFD2C4B9B4B6BEC7CDCFCCC579
:1002C000BCB0A4998F8A8A8D8F8C816C533C2F305F
:1002D0003E53697B84858078706B6B6E7375736B2E
:1002E0005E51474448505A626768696B727E8E9EC1
:1002F000A8ACA9A09790909AABC4DCEFFBFEFBF5ED
:10030000EEE8E3DDD8D4CFCCC9C7C9CED7DEE3E26F
:10031000DDD7D2D0D4DDE7EDEEEBE2D0B9A69B98E5
:100320009DA6B0B4AEA1907F77798596A1A18F6D7F
:10033000441E05000E28466278858C8F9093969B0C
:100340009FA5ADB6BDC4F7F6F6F6F5F5F4F2F2F1F9
:10035000EEECE9E6E3DFDAD4CFC8C2BBB2ABA39AD6
:1003600092887F756B62584E453C332A221B150FCD
:100370000A060402010204070B11181F27313A452F
:10038000505A646F79838D949CA4ABB1B6BBBFC344
:10039000C8CACDD1D4D7DADCDFE2E5E8EAECEDEF8C
:1003A000EFF0F1F1F0F0F0EFEFEEEEEDECECECEC65
:1003B000ECEBEBEBEAE8E6E3DED8D2CAC2B8ADA2DA
:1003C000978C8074685C51463C332A221C16110DB0
:1003D00009060402010001020305080C10161C2383
:1003E0002B343D48525D6A75818C97A1ACB6BFC76E
:1003F000CFD5DBE1E5E8EBEDEFF0F2F2F3F4F5F564
:10040000F5F5F4F3F1EFEDECEAE8E5E2DED9D4CE70
:10041000C8C2BBB3ABA2988F867D746B625A51473A
:100420003C332A221B15100B070502010204070B9F
:1004300010171E262E37424D5864707A848D949B77
:10044000A2A9AFB5BABEC2C7CBCED2D6D8DBDEDF4B
:10045000E1E3F8FAFBF9F4EEE5DBD0C5BAB0A8A306
:10046000A1A4ACB7C6D5E3EDF2F2EDE4D8CCC1B8A7
:10047000B4B3B7BDC5CED5DADCDAD4C8B8A58F7AA7
:100480006655494342464D57626D78828B92989EDD
:10049000A1A2A19E9A938B82776B60544A413B380C
:1004A000383E4753606C757A7973695D5247403EB8
:1004B0003F46505C697580878A888175644F39240E
:1004C00012060000071220303F4C58626B747B828A
:1004D000888D9091908D877E73675C524A4545491F
:1004E0005361728595A2ABADA9A1968B8079767781
:1004F0007D87929FAAB4BBBDBCB5AA9B8A78685A77
:10050000514E5057616C7781898E93989CA2A7AD0C
:10051000B1B3B4B2ADA79F968D847C746E6B6B6FD4
:100520007883909EAAB2B6B5AFA69C938D8C8E951B
:100530009FACBBC9D6DFE5E6E1D7C7B4A08D7E731B
:100540006E6F757F8C98A4AFB7BFC7CFD8E2ECF5BC
:10055000F601000003070C131B232B343D454E56B8
:100560005D646B71767B7F8386898B8E9093959784
:100570009A9DA0A3A7ABAFB3B7BCC1C5CACED3D712
:10058000DBDFE2E6E9ECEEF1F3F5F7F8FAFBFCFD70
:10059000FDFEFEFEFFFEFEFEFEFDFDFCFBFBFAF98E
:1005A000F8F6F5F4F2F1EFEDECEAE8E6E4E1DFDD90
:1005B000DAD8D5D3D0CDCBC8C5C3C0BDBBB8B5B3D1
:1005C000B0AEABA8A6A3A19E9B999693918E8B8962
:1005D0008683807E7B787573706D6A686562605D06
:1005E0005A585653514F4C4A48464443413F3E3C6B
:1005F0003B393837363534333231302F2F2E2D2DCD
:100600002C2B2B2A2A2A2929292828282828272759
:10061000272728282828282929292A2A2B2B2C2D46
:100620002D2E2F303132333435363738393A3B3D81
:100630003E3F40414344454748494A4C4D4E505146
:10064000525353524F4A433B32281E150D070301A4
:1006500011241FBECFEFD0E4DEBFCDBF11E0A0E07C
:10066000B1E0EAECF7E100E00BBF02C007900D92A9
:10067000A630B107D9F721E0A6E0B1E001C01D9294
:10068000A233B207E1F70E949F050C94A20B0C94D1
:1006900000001F920F920FB60F9211240BB60F920B
:1006A0008F939F93EF93FF93CF93DF93CDB7DEB7F5
:1006B00080912B01811551F488E790E0FC01808145
:1006C0009181909302018093010137C080912B01A9
:1006D000813051F488E790E0FC0180819181909312
:1006E0001E0180931D0129C080912B01823051F49D
:1006F00088E790E0FC018081918190932F018093A5
:100700002E011BC080912B01843051F488E790E0CA
:10071000FC018081918190931A01809319010DC091
:1007200080912B01853049F488E790E0FC018081BD
:100730009181909331018093300181E080932C016D
:1007400010922D0180912B018F5F80932B0180915E
:100750002B01863010F010922B010000DF91CF9119
:10076000FF91EF919F918F910F900BBE0F900FBE55
:100770000F901F9018951F920F920FB60F92112491
:100780000BB60F922F933F934F935F938F939F934B
:10079000EF93FF93CF93DF9300D0CDB7DEB7809177
:1007A00006018F5F80930601809107018E5F809321
:1007B000070180910301863089F4809108019091AE
:1007C00009018D3922E3920748F480910801909144
:1007D000090101969093090180930801809103011A
:1007E000883089F480910801909109018632EEE009
:1007F0009E0748F480910801909109010196909319
:1008000009018093080180910301853089F480916A
:10081000080190910901873BF4E09F0748F480911B
:1008200008019091090101969093090180930801B4
:100830001A82198280910301882F90E084309105FB
:1008400009F490C0853091050CF0AEC0833091055D
:1008500009F444C0843091050CF0A6C082309105A3
:1008600019F1833091050CF09FC0009729F0813079
:10087000910509F455C098C080910C01282F30E0F3
:100880008091060187FB882780F9882F90E0919559
:1008900081959109822393239A8389838BE290E047
:1008A0002981FC012083A1C080910C01482F50E0D8
:1008B00080910601282F30E0429FC001439F900D98
:1008C000529F900D11249A83898389819A81292FBF
:1008D00033278BE290E0FC01208387C080910C01DC
:1008E000482F50E080910601882F90E021E535E007
:1008F000820F931FFC018491282F30E0429FC0019A
:10090000439F900D529F900D11249A838983898172
:100910009A81292F33278BE290E0FC01208365C068
:1009200080910C01482F50E080910601882F90E0C3
:100930002CE831E0820F931FFC018491282F30E0D6
:10094000429FC001439F900D529F900D11249A83A6
:10095000898389819A81292F33278BE290E0FC01DA
:10096000208343C080910C01482F50E08091060104
:10097000882F90E022E534E0820F931FFC018491E0
:10098000282F30E0429FC001439F900D529F900D51
:1009900011249A83898389819A81292F33278BE2B5
:1009A00090E0FC01208321C080910C01282F30E0D1
:1009B0008091060187FB882780F9882F90E0919528
:1009C00081959109282339234FEF429FC001439F0E
:1009D000900D11249A83898389819A81292F332745
:1009E0008BE290E0FC012083000000000F900F904C
:1009F000DF91CF91FF91EF919F918F915F914F91F7
:100A00003F912F910F900BBE0F900FBE0F901F9034
:100A10001895CF93DF93CDB7DEB760970FB6F894F4
:100A2000DEBF0FBECDBF988B8F8774C080E090E093
:100A3000A0E8BFE389839A83AB83BC8320E030E4E2
:100A40004CE955E469817A818B819C810E94AC09D3
:100A5000DC01CB018D839E83AF83B88720E030E03B
:100A600040E85FE36D817E818F8198850E944F0809
:100A700081152CF481E090E09A87898740C020E0BE
:100A80003FEF4FE757E46D817E818F8198850E940B
:100A9000A709813054F120E030E040E251E469815F
:100AA0007A818B819C810E94AC09DC01CB01BC0165
:100AB000CD010E94C608DC01CB019A87898710C04E
:100AC00084EF91E09C878B878B859C850197F1F75C
:100AD0009C878B87000089859A8501979A878987EB
:100AE00089859A85009761F715C06D817E818F8118
:100AF00098850E94C608DC01CB019A878987898581
:100B00009A859E878D878D859E850197F1F79E87B3
:100B10008D8700008F8598890197988B8F878F85A7
:100B20009889009709F082CF0000000060960FB608
:100B3000F894DEBF0FBECDBFDF91CF9108950F9324
:100B40001F93CF93DF93CDB7DEB72F970FB6F894EF
:100B5000DEBF0FBECDBF81E290E0FC01108282E2D9
:100B600090E0FC01108284E290E0FC01108285E2BA
:100B700090E02FEFFC0120838AE290E02FEFFC0150
:100B8000208380E890E023E0FC01208381E890E06E
:100B9000FC01208181E890E02961FC0120838FE63F
:100BA00090E022E0FC01208378948AE790E027E837
:100BB000FC0120838AE790E0FC0120818AE790E035
:100BC0002068FC0120838AE790E0FC0120818AE70D
:100BD00090E02860FC01208310920D018CE790E0EA
:100BE000FC0110828AE790E0FC0120818AE790E016
:100BF0002064FC01208310920C01809130019091BF
:100C00003101009759F080913001909131018D347C
:100C1000F1E09F0718F41092030126C08091300183
:100C2000909131018D3421E0920760F08091300184
:100C3000909131018A39E2E09E0720F482E08093AE
:100C4000030112C080913001909131018A39F2E0A4
:100C50009F0750F08091300190913101883E23E050
:100C6000920710F41092030180912D018115D9F49F
:100C700081E080932D018CE790E0FC0110828CE7ED
:100C800090E0FC01308120912B018CE790E0232B38
:100C9000FC0120838AE790E0FC0120818AE790E054
:100CA0002064FC0120838091120190911301813A0C
:100CB000FFE09F0708F49AC0809101019091020122
:100CC000CC01A0E0B0E0BC01CD010E94F508DC0140
:100CD000CB0120E030E040E054E4BC01CD010E94B3
:100CE0005408DC01CB018B839C83AD83BE83809150
:100CF000190190911A018A5B9F4FCC01A0E0B0E0EE
:100D0000BC01CD010E94F508DC01CB0129E93AEADA
:100D10004AE252E4BC01CD010E945408DC01CB013F
:100D2000BC01CD010E94C608DC01CB018F838F81FD
:100D3000882F90E0092E000CAA0BBB0BBC01CD0143
:100D40000E94F708DC01CB0120E030E040E451E4F0
:100D5000BC01CD010E945408DC01CB018887998732
:100D6000AA87BB87288539854A855B856B817C810D
:100D70008D819E810E94E307DC01CB019C01AD01C6
:100D800060E070E080E090E40E94190ADC01CB0191
:100D900020E030E04CED52E4BC01CD010E94AC09F2
:100DA000DC01CB018C879D87AE87BF8780910101D5
:100DB00090910201893C9105A8F0809101019091E8
:100DC0000201893E23E0920768F408E810E06C8590
:100DD0007D858E859F850E94C608DC01CB01F801C8
:100DE00091838083109213011092120180910E0161
:100DF00090910F018536910508F441C080911D0145
:100E000090911E018937910538F180911D019091D3
:100E10001E018115F4E09F07F8F480911D01909167
:100E20001E0188579109969587959A8389838981B0
:100E30009A81911521F08FEF90E09A838983209118
:100E40001B0130911C0189819A81820F931F90931D
:100E50001C0180931B0106C010920D011092090124
:100E600010920801809110019091110101969093C8
:100E700011018093100110920F0110920E018091C8
:100E80000E0190910F01019690930F0180930E0136
:100E90008091140190911501019690931501809312
:100EA0001401809112019091130101969093130106
:100EB00080931201809116019091170101969093F1
:100EC00017018093160180911601909117018D33BF
:100ED000910548F0809118018F5F8093180110925E
:100EE000170110921601809114019091150183331E
:100EF0009105D0F080910D0190910C01981728F484
:100F000080910C018F5F80930C0190910D01809175
:100F10000C01981728F480910C01815080930C01EA
:100F200010921501109214018091100190911101FD
:100F30008830910508F461CE80911B0190911C01CD
:100F400096958795969587959695879580930D01AB
:100F500010921C0110921B011092110110921001AD
:100F60004CCECF93DF930F92CDB7DEB789838CE75A
:100F700090E0FC0110828CE790E0FC0130818CE76E
:100F800090E02981232BFC0120838AE790E0FC017B
:100F900020818AE790E02064FC01208300008AE73A
:100FA00090E0FC018081882F90E080749927009761
:100FB000B1F788E790E0FC01808191810F90DF918B
:100FC000CF9108955058BB27AA270E94FA070C9486
:100FD0006D090E945F0938F00E94660920F039F41B
:100FE0009F3F19F426F40C945C090EF4E095E7FB9E
:100FF0000C945609E92F0E947E0958F3BA1762072C
:1010000073078407950720F079F4A6F50C94A009DE
:101010000EF4E0950B2EBA2FA02D0B01B901900113
:101020000C01CA01A0011124FF27591B99F0593F57
:1010300050F4503E68F11A16F040A22F232F342F9F
:101040004427585FF3CF469537952795A795F040ED
:101050005395C9F77EF41F16BA0B620B730B840B02
:10106000BAF09150A1F0FF0FBB1F661F771F881FBA
:10107000C2F70EC0BA0F621F731F841F48F4879512
:1010800077956795B795F7959E3F08F0B0CF939504
:10109000880F08F09927EE0F9795879508950E947D
:1010A000320908F481E008950E9468080C946D09E3
:1010B0000E94660958F00E945F0940F029F45F3FE2
:1010C00029F00C94560951110C94A1090C945C0957
:1010D0000E947E0968F39923B1F3552391F3951B80
:1010E000550BBB27AA2762177307840738F09F5F49
:1010F0005F4F220F331F441FAA1FA9F335D00E2EB6
:101100003AF0E0E832D091505040E695001CCAF722
:101110002BD0FE2F29D0660F771F881FBB1F2617E5
:1011200037074807AB07B0E809F0BB0B802DBF01BC
:10113000FF2793585F4F3AF09E3F510578F00C948B
:1011400056090C94A1095F3FE4F3983ED4F38695C9
:1011500077956795B795F7959F5FC9F7880F911DAC
:101160009695879597F90895E1E0660F771F881F98
:10117000BB1F621773078407BA0720F0621B730B4B
:10118000840BBA0BEE1F88F7E09508950E9486093C
:1011900088F09F5798F0B92F9927B751B0F0E1F038
:1011A000660F771F881F991F1AF0BA95C9F714C0E8
:1011B000B13091F00E94A009B1E008950C94A0090B
:1011C000672F782F8827B85F39F0B93FCCF3869521
:1011D00077956795B395D9F73EF49095809570957E
:1011E00061957F4F8F4F9F4F0895E89409C097FBFB
:1011F0003EF490958095709561957F4F8F4F9F4FEE
:101200009923A9F0F92F96E9BB279395F695879531
:1012100077956795B795F111F8CFFAF4BB0F11F4F4
:1012200060FF1BC06F5F7F4F8F4F9F4F16C088239B
:1012300011F096E911C0772321F09EE8872F762FD1
:1012400005C0662371F096E8862F70E060E02AF012
:101250009A95660F771F881FDAF7880F96958795FE
:1012600097F90895990F0008550FAA0BE0E8FEEFD3
:1012700016161706E807F907C0F012161306E4075A
:10128000F50798F0621B730B840B950B39F40A2653
:1012900061F0232B242B252B21F408950A2609F431
:1012A000A140A6958FEF811D811D089597F99F6735
:1012B00080E870E060E008959FEF80EC08950024DE
:1012C0000A941616170618060906089500240A94AB
:1012D00012161306140605060895092E0394000C31
:1012E00011F4882352F0BB0F40F4BF2B11F460FFC0
:1012F00004C06F5F7F4F8F4F9F4F089557FD9058E9
:10130000440F551F59F05F3F71F04795880F97FBC9
:10131000991F61F09F3F79F0879508951216130683
:101320001406551FF2CF4695F1DF08C016161706B2
:101330001806991FF1CF86957105610508940895E7
:10134000E894BB2766277727CB0197F908950E9479
:10135000320908F48FEF08950E94BF090C946D09BB
:101360000E945F0938F00E94660920F0952311F071
:101370000C9456090C945C0911240C94A1090E9448
:101380007E0970F3959FC1F3950F50E0551F629F42
:10139000F001729FBB27F00DB11D639FAA27F00DCE
:1013A000B11DAA1F649F6627B00DA11D661F829FF5
:1013B0002227B00DA11D621F739FB00DA11D621FDA
:1013C000839FA00D611D221F749F3327A00D611DF7
:1013D000231F849F600D211D822F762F6A2F1124D9
:1013E0009F5750409AF0F1F088234AF0EE0FFF1F0C
:1013F000BB1F661F771F881F91505040A9F79E3F63
:10140000510580F00C9456090C94A1095F3FE4F358
:10141000983ED4F3869577956795B795F795E795B8
:101420009F5FC1F7FE2B880F911D9695879597F9C1
:101430000895FA01EE0FFF1F309621053105A1F145
:101440006115710561F48038BFE39B0749F1689429
:101450009038810561F08038BFEF9B0741F09923F8
:101460004AF5FF3FE1053105210519F1E89408949B
:10147000E795D901AA2329F4AB2FBE2FF85FD0F34B
:1014800010C0FF5F70F4A695E0F7F73950F019F03F
:10149000FF3A38F49F779F930DD00F9007FC905838
:1014A000089546F00C945C0960E070E080E89FE3EA
:1014B00008954FE79F775F934F933F932F930E9439
:1014C000160B2F913F914F915F910E94AC090C94A4
:1014D000710A29F416F00C9456090C94A0090C9486
:1014E0005C090E948609A8F39638A0F707F80F92C6
:1014F000E8942BE33AEA48EB5FE70E94C2090F92B7
:101500000F920F924DB75EB70F920E94600BE8E406
:10151000F7E1B0E00E94A40A4F915F91EF91FF9133
:10152000E595EE1FFF1F49F0FE57E0684427EE0FD8
:10153000441FFA95E1F74195550B0E94D80A0F9088
:1015400007FE0C94CC0A0895DF93CF931F930F935B
:10155000FF92EF92DF92BBBF7B018C01689406C0C3
:10156000DA2EEF010E94BF09FE01E894A7912791AE
:10157000379147915791A6F3EF010E94FA07FE01B8
:101580009701A801DA9469F7DF90EF90FF900F912F
:101590001F91CF91DF9108959B01AC0160E070E055
:1015A00080E89FE30C9454080C9456090C94940B17
:1015B0000E948609D8F39923C9F3940F511DA3F310
:1015C0009150504094F059F0882332F0660F771F05
:1015D000881F91505040C1F79E3F51052CF7880F4E
:1015E000911D9695879597F908955F3FACF0983EC9
:1015F0009CF0BB27869577956795B79508F4B16001
:101600009395C1F7BB0F58F711F460FFE8CF6F5FF8
:101610007F4F8F4F9F4FE3CF0C94A10916F00C948E
:10162000940B0C945C0968940C9456090E948609EA
:10163000A8F39923C1F3AEF3DF93CF931F930F93D6
:10164000FF92C92FDD2788232AF02197660F771F85
:10165000881FDAF720E030E040E85FEB9FE388394D
:1016600020F0803E40F021968F770E94E307E0E76C
:10167000F7E1B0E005C00E94E307EDE9F7E1B0E073
:101680000E94A40A8B01BE01EC01FB2E6F57710969
:101690007595771F880B990B0E94F70828E132E7B0
:1016A00041E35FE30E94BF09AF2D9801AE01FF90B7
:1016B0000F911F91CF91DF910E94FA070C946D0951
:1016C000FA01DC01AA0FBB1F9B01AC01BF5728F434
:1016D000222733274427507820C0B75190F4AB2FEE
:1016E0000024469537952795011CA395D2F3002039
:1016F00071F0220F331F441FB395DAF30ED00C9410
:10170000E20761307105A0E88A07B94630F49B0111
:10171000AC016627772788279078309621F02083C0
:1017200031834283538308959F3F31F0915020F4D9
:10173000879577956795B795880F911D96958795AD
:1017400097F90895F894FFCF07634236B79BD8A75F
:101750001A39685618AEBAAB558C1D3CB7CC5763D6
:10176000BD6DEDFD753EF6177231BF000000803F84
:1017700008000000BE922449123EABAAAA2ABECDA0
:10178000CCCC4C3E00000080BEABAAAAAA3E000012
:101790000000BF000000803F00000000000841780A
:1017A000D3BB4387D1133D190E3CC3BD4282AD2B41
:1017B0003E68EC8276BED98FE1A93E4C80EFFFBE39
:0A17C00001C4FF7F3F00000000009D
:0617CA000190010108007E
:00000001FF
