:100000000C9428030C9447030C9447030C94470367
:100010000C9447030C9447030C9447030C94470338
:100020000C9447030C9447030C9447030C94470328
:100030000C9447030C9459030C9447030C94470306
:100040000C9447030C9447030C9447030C94470308
:100050000C9447030C9447030C9447030C944703F8
:100060000C9447030C9447030C9447030C944703E8
:100070000C9447030C9447030C9447030C944703D8
:100080000C9447030C9447030C94470301000003AE
:10009000070C131B232B343D454E565D646B717664
:1000A0007B7F8386898B8E909395979A9DA0A3A73B
:1000B000ABAFB3B7BCC1C5CACED3D7DBDFE2E6E98D
:1000C000ECEEF1F3F5F7F8FAFBFCFDFDFEFEFEFFAA
:1000D000FEFEFEFEFDFDFCFBFBFAF9F8F6F5F4F280
:1000E000F1EFEDECEAE8E6E4E1DFDDDAD8D5D3D0F4
:1000F000CDCBC8C5C3C0BDBBB8B5B3B0AEABA8A669
:10010000A3A19E9B999693918E8B898683807E7BFB
:10011000787573706D6A686562605D5A58565351A0
:100120004F4C4A48464443413F3E3C3B39383736C2
:100130003534333231302F2F2E2D2D2C2B2B2A2AD4
:100140002A2929292828282828272727272828282E
:1001500028282929292A2A2B2B2C2D2D2E2F3031E6
:1001600032333435363738393A3B3D3E3F404143F0
:1001700044454748494A4C4D4E5051525353524FB3
:100180004A433B32281E150D070301F8FAFBF9F428
:10019000EEE5DBD0C5BAB0A8A3A1A4ACB7C6D5E341
:1001A000EDF2F2EDE4D8CCC1B8B4B3B7BDC5CED54D
:1001B000DADCDAD4C8B8A58F7A6655494342464D91
:1001C00057626D78828B92989EA1A2A19E9A938B82
:1001D00082776B60544A413B38383E4753606C75B8
:1001E0007A7973695D5247403E3F46505C6975803D
:1001F000878A888175644F3924120600000712200F
:10020000303F4C58626B747B82888D9091908D87C3
:100210007E73675C524A4545495361728595A2AB2E
:10022000ADA9A1968B807976777D87929FAAB4BB82
:10023000BDBCB5AA9B8A78685A514E5057616C77FD
:1002400081898E93989CA2A7ADB1B3B4B2ADA79F9C
:10025000968D847C746E6B6B6F7883909EAAB2B619
:10026000B5AFA69C938D8C8E959FACBBC9D6DFE5B0
:10027000E6E1D7C7B4A08D7E736E6F757F8C98A4AE
:10028000AFB7BFC7CFD8E2ECF5F6F7F6F6F6F5F55F
:10029000F4F2F2F1EEECE9E6E3DFDAD4CFC8C2BB68
:1002A000B2ABA39A92887F756B62584E453C332A55
:1002B000221B150F0A060402010204070B11181F66
:1002C00027313A45505A646F79838D949CA4ABB121
:1002D000B6BBBFC3C8CACDD1D4D7DADCDFE2E5E80C
:1002E000EAECEDEFEFF0F1F1F0F0F0EFEFEEEEED24
:1002F000ECECECECECEBEBEBEAE8E6E3DED8D2CAB4
:10030000C2B8ADA2978C8074685C51463C332A22F7
:100310001C16110D09060402010001020305080C58
:1003200010161C232B343D48525D6A75818C97A1B1
:10033000ACB6BFC7CFD5DBE1E5E8EBEDEFF0F2F20D
:10034000F3F4F5F5F5F5F4F3F1EFEDECEAE8E5E2B9
:10035000DED9D4CEC8C2BBB3ABA2988F867D746BF6
:10036000625A51473C332A221B15100B0705020124
:100370000204070B10171E262E37424D5864707A60
:10038000848D949BA2A9AFB5BABEC2C7CBCED2D63C
:10039000D8DBDEDFE1E30D1E38556F828D9292923D
:1003A0009192969EA7B4C1CBCFCDC5BBB1A9A4A154
:1003B0009F9E9D9D9EA0A6ADB6C2D0DEE6E7DFD291
:1003C000C4B9B4B6BEC7CDCFCCC5BCB0A4998F8AD2
:1003D0008A8D8F8C816C533C2F303E53697B848592
:1003E0008078706B6B6E7375736B5E5147444850C9
:1003F0005A626768696B727E8E9EA8ACA9A09790BE
:10040000909AABC4DCEFFBFEFBF5EEE8E3DDD8D45D
:10041000CFCCC9C7C9CED7DEE3E2DDD7D2D0D4DD99
:10042000E7EDEEEBE2D0B9A69B989DA6B0B4AEA1E5
:10043000907F77798596A1A18F6D441E05000E28C7
:10044000466278858C8F9093969B9FA5ADB6BDC470
:1004500000020406080A0C0E10121416181A1C1EAC
:1004600020222426282A2C2E30323436383A3C3E9C
:1004700040424446484A4C4E50525456585A5C5E8C
:1004800060626466686A6C6E70727476787A7C7E7C
:1004900080828486888A8C8E90929496989A9C9E6C
:1004A000A0A2A4A6A8AAACAEB0B2B4B6B8BABCBE5C
:1004B000C0C2C4C6C8CACCCED0D2D4D6D8DADCDE4C
:1004C000E0E2E4E6E8EAECEEF0F2F4F6F8FAFCFE3C
:1004D000FEFCFAF8F6F4F2F0EEECEAE8E6E4E2E02C
:1004E000DEDCDAD8D6D4D2D0CECCCAC8C6C4C2C01C
:1004F000BEBCBAB8B6B4B2B0AEACAAA8A6A4A2A00C
:100500009E9C9A98969492908E8C8A8886848280FB
:100510007E7C7A78767472706E6C6A6866646260EB
:100520005E5C5A58565452504E4C4A4846444240DB
:100530003E3C3A38363432302E2C2A2826242220CB
:100540001E1C1A18161412100E0C0A0806040200BB
:10055000808386898C8F9295989B9EA2A5A7AAAD31
:10056000B0B3B6B9BCBEC1C4C6C9CBCED0D3D5D743
:10057000DADCDEE0E2E4E6E8EAEBEDEEF0F1F3F4FB
:10058000F5F6F8F9FAFAFBFCFDFDFEFEFEFFFFFFB3
:10059000FFFFFFFFFEFEFEFDFDFCFBFAFAF9F8F699
:1005A000F5F4F3F1F0EEEDEBEAE8E6E4E2E0DEDCB0
:1005B000DAD7D5D3D0CECBC9C6C4C1BEBCB9B6B3C9
:1005C000B0ADAAA7A5A29E9B9895928F8C89868391
:1005D000807C797673706D6A6764615D5A58555294
:1005E0004F4C494643413E3B393634312F2C2A2863
:1005F0002523211F1D1B1917151412110F0E0C0B8B
:100600000A090706050504030202010101000000B2
:1006100000000000010101020203040505060709AC
:100620000A0B0C0E0F1112141517191B1D1F212375
:1006300025282A2C2F313436393B3E414346494C3C
:100640004F5255585A5D6164676A6D707376797C54
:1006500011241FBECFEFD0E4DEBFCDBF11E0A0E07C
:10066000B1E0E0EFF8E000E00BBF02C007900D92B0
:10067000A630B107D9F721E0A6E0B1E001C01D9294
:10068000A032B207E1F70E94BA030C9476040C94EE
:100690000000982F96959575880F8A7A982B892F48
:1006A000869586958373990F990F9C7C892B8295EB
:1006B00008950F920FB60F921F9211242F933F931C
:1006C0008F939F9320911F012F5F20931F01809193
:1006D0001E018E5F80931E0180911C0190911D016F
:1006E0008C3932E3930728F4019680931C01909390
:1006F0001D0180911A0190911B018896903110F094
:1007000080E090E080931A0190931B018091190181
:10071000829FC00111249BB99F918F913F912F918E
:100720001F900F900FBE0F9018959C0121503040E4
:1007300009F4089587E893E10197F1F700C00000FC
:10074000F5CF80E090E0089590EE90937C0090913A
:100750007C00982B90937C0080917A008064809339
:100760007A0080917A0086FDFCCF8091780090918C
:100770007900089511B812B814B88FEF85B98AB905
:1007800083E0809380008091810089618093810063
:1007900082E080936F0088E19BE0909389008093D2
:1007A0008800789487E880937A0080917A00806846
:1007B00080937A0080E00E94A4032091120130917E
:1007C00013012B30310580F09C01295B3B402F3217
:1007D000324F30F4892F90E0909389008093880005
:1007E000109212011092130181E00E94A403209143
:1007F0001401309115012330310590F09C012157EF
:1008000037412837364E08F06FC080579741880F20
:10081000892F881F990B91958093180120E030E073
:10082000199909C080910A0190910B01019680935A
:100830000A0190930B0180910A0190910B0181377D
:10084000974120F010920A0110920B01809116013D
:1008500090911701019680931601909317012F5FD5
:100860003F4F209314013093150180911001909116
:1008700011010196809310019093110120911201B2
:10088000309113012F5F3F4F2093120130931301DA
:1008900020910E0130910F012F5F3F4F20930E01E9
:1008A00030930F012430310548F020910D012F5F66
:1008B00020930D0110920E0110920F01049708F47D
:1008C00079CF9091180180911901891718F48F5FE1
:1008D00080931901981718F4815080931901109290
:1008E00010011092110166CF80E096CFF894FFCFEF
:0608F000FF01FF01010100
:00000001FF
