:100000000C94280B0C94470B0C94470B0C94470B47
:100010000C94470B0C94470B0C94470B0C94470B18
:100020000C94470B0C94470B0C94470B0C94470B08
:100030000C94470B0C94BB0B0C94470B0C94470B84
:100040000C94470B0C94470B0C94470B0C94470BE8
:100050000C94470B0C94470B0C94470B0C94470BD8
:100060000C94490B0C94470B0C94470B0C94470BC6
:100070000C94470B0C94470B0C94470B0C94470BB8
:100080000C94470B0C94470B0C94470B8083868988
:100090008C8F9295989B9EA2A5A7AAADB0B3B6B936
:1000A000BCBEC1C4C6C9CBCED0D3D5D7DADCDEE066
:1000B000E2E4E6E8EAEBEDEEF0F1F3F4F5F6F8F958
:1000C000FAFAFBFCFDFDFEFEFEFFFFFFFFFFFFFF58
:1000D000FEFEFEFDFDFCFBFAFAF9F8F6F5F4F3F18D
:1000E000F0EEEDEBEAE8E6E4E2E0DEDCDAD7D5D3E9
:1000F000D0CECBC9C6C4C1BEBCB9B6B3B0ADAAA739
:10010000A5A29E9B9895928F8C898683807C797618
:1001100073706D6A6764615D5A5855524F4C494619
:1001200043413E3B393634312F2C2A282523211FC9
:100130001D1B1917151412110F0E0C0B0A090706B7
:100140000505040302020101010000000000000097
:100150000101010202030405050607090A0B0C0E42
:100160000F1112141517191B1D1F212325282A2CC6
:100170002F313436393B3E414346494C4F52555856
:100180005A5D6164676A6D707376797C000204065B
:10019000080A0C0E10121416181A1C1E20222426EF
:1001A000282A2C2E30323436383A3C3E40424446DF
:1001B000484A4C4E50525456585A5C5E60626466CF
:1001C000686A6C6E70727476787A7C7E80828486BF
:1001D000888A8C8E90929496989A9C9EA0A2A4A6AF
:1001E000A8AAACAEB0B2B4B6B8BABCBEC0C2C4C69F
:1001F000C8CACCCED0D2D4D6D8DADCDEE0E2E4E68F
:10020000E8EAECEEF0F2F4F6F8FAFCFEFEFCFAF89E
:10021000F6F4F2F0EEECEAE8E6E4E2E0DEDCDAD86E
:10022000D6D4D2D0CECCCAC8C6C4C2C0BEBCBAB85E
:10023000B6B4B2B0AEACAAA8A6A4A2A09E9C9A984E
:10024000969492908E8C8A88868482807E7C7A783E
:10025000767472706E6C6A68666462605E5C5A582E
:10026000565452504E4C4A48464442403E3C3A381E
:10027000363432302E2C2A28262422201E1C1A180E
:10028000161412100E0C0A08060402000D1E385532
:100290006F828D9292929192969EA7B4C1CBCFCD50
:1002A000C5BBB1A9A4A19F9E9D9D9EA0A6ADB6C2AF
:1002B000D0DEE6E7DFD2C4B9B4B6BEC7CDCFCCC579
:1002C000BCB0A4998F8A8A8D8F8C816C533C2F305F
:1002D0003E53697B84858078706B6B6E7375736B2E
:1002E0005E51474448505A626768696B727E8E9EC1
:1002F000A8ACA9A09790909AABC4DCEFFBFEFBF5ED
:10030000EEE8E3DDD8D4CFCCC9C7C9CED7DEE3E26F
:10031000DDD7D2D0D4DDE7EDEEEBE2D0B9A69B98E5
:100320009DA6B0B4AEA1907F77798596A1A18F6D7F
:10033000441E05000E28466278858C8F9093969B0C
:100340009FA5ADB6BDC4F7F6F6F6F5F5F4F2F2F1F9
:10035000EEECE9E6E3DFDAD4CFC8C2BBB2ABA39AD6
:1003600092887F756B62584E453C332A221B150FCD
:100370000A060402010204070B11181F27313A452F
:10038000505A646F79838D949CA4ABB1B6BBBFC344
:10039000C8CACDD1D4D7DADCDFE2E5E8EAECEDEF8C
:1003A000EFF0F1F1F0F0F0EFEFEEEEEDECECECEC65
:1003B000ECEBEBEBEAE8E6E3DED8D2CAC2B8ADA2DA
:1003C000978C8074685C51463C332A221C16110DB0
:1003D00009060402010001020305080C10161C2383
:1003E0002B343D48525D6A75818C97A1ACB6BFC76E
:1003F000CFD5DBE1E5E8EBEDEFF0F2F2F3F4F5F564
:10040000F5F5F4F3F1EFEDECEAE8E5E2DED9D4CE70
:10041000C8C2BBB3ABA2988F867D746B625A51473A
:100420003C332A221B15100B070502010204070B9F
:1004300010171E262E37424D5864707A848D949B77
:10044000A2A9AFB5BABEC2C7CBCED2D6D8DBDEDF4B
:10045000E1E3F8FAFBF9F4EEE5DBD0C5BAB0A8A306
:10046000A1A4ACB7C6D5E3EDF2F2EDE4D8CCC1B8A7
:10047000B4B3B7BDC5CED5DADCDAD4C8B8A58F7AA7
:100480006655494342464D57626D78828B92989EDD
:10049000A1A2A19E9A938B82776B60544A413B380C
:1004A000383E4753606C757A7973695D5247403EB8
:1004B0003F46505C697580878A888175644F39240E
:1004C00012060000071220303F4C58626B747B828A
:1004D000888D9091908D877E73675C524A4545491F
:1004E0005361728595A2ABADA9A1968B8079767781
:1004F0007D87929FAAB4BBBDBCB5AA9B8A78685A77
:10050000514E5057616C7781898E93989CA2A7AD0C
:10051000B1B3B4B2ADA79F968D847C746E6B6B6FD4
:100520007883909EAAB2B6B5AFA69C938D8C8E951B
:100530009FACBBC9D6DFE5E6E1D7C7B4A08D7E731B
:100540006E6F757F8C98A4AFB7BFC7CFD8E2ECF5BC
:10055000F680808080808081818181818282828218
:10056000828383838383848484848485858585854D
:10057000868686868687878787878788888888880B
:1005800089898989898A8A8A8A8A8B8B8B8B8B8CC9
:100590008C8C8C8C8D8D8D8D8D8D8E8E8E8E8E8F88
:1005A0008F8F8F8F90909090909191919191929246
:1005B0009292929393939393939494949494959505
:1005C00095959596969696969797979797989898C3
:1005D00098989899999999999A9A9A9A9A9B9B9B83
:1005E0009B9B9C9C9C9C9C9C9D9D9D9D9D9E9E9E42
:1005F0009E9E9F9F9F9F9F9FA0A0A0A0A0A1A1A102
:10060000A1A1A2A2A2A2A2A2A3A3A3A3A3A4A4A4C1
:10061000A4A4A5A5A5A5A5A5A6A6A6A6A6A7A7A781
:10062000A7A7A8A8A8A8A8A8A9A9A9A9A9AAAAAA41
:10063000AAAAAAABABABABABACACACACACACADAD03
:10064000ADADADAEAEAEAEAEAEAFAFAFAFAFB0B0C4
:10065000B0B0B0B0B1B1B1B1B1B2B2B2B2B2B2B386
:10066000B3B3B3B3B3B4B4B4B4B4B5B5B5B5B5B549
:10067000B6B6B6B6B6B7B7B7B7B7B7B8B8B8B8B80A
:10068000B8B9B9B9B9B9B9BABABABABABBBBBBBBCE
:10069000BBBBBCBCBCBCBCBCBDBDBDBDBDBDBEBE92
:1006A000BEBEBEBEBFBFBFBFBFBFC0C0C0C0C0C058
:1006B000C1C1C1C1C1C1C2C2C2C2C2C2C3C3C3C31C
:1006C000C3C3C4C4C4C4C4C4C5C5C5C5C5C5C6C6E2
:1006D000C6C6C6C6C7C7C7C7C7C7C8C8C8C8C8C8A8
:1006E000C8C9C9C9C9C9C9CACACACACACACBCBCB6F
:1006F000CBCBCBCBCCCCCCCCCCCCCDCDCDCDCDCD38
:10070000CDCECECECECECECFCFCFCFCFCFCFD0D0FF
:10071000D0D0D0D0D1D1D1D1D1D1D1D2D2D2D2D2C8
:10072000D2D2D3D3D3D3D3D3D3D4D4D4D4D4D4D494
:10073000D5D5D5D5D5D5D6D6D6D6D6D6D6D7D7D75C
:10074000D7D7D7D7D7D8D8D8D8D8D8D8D9D9D9D92A
:10075000D9D9D9DADADADADADADADBDBDBDBDBDBF6
:10076000DBDBDCDCDCDCDCDCDCDDDDDDDDDDDDDDC4
:10077000DDDEDEDEDEDEDEDEDFDFDFDFDFDFDFDF92
:10078000E0E0E0E0E0E0E0E0E1E1E1E1E1E1E1E161
:10079000E2E2E2E2E2E2E2E2E3E3E3E3E3E3E3E331
:1007A000E4E4E4E4E4E4E4E4E4E5E5E5E5E5E5E502
:1007B000E5E6E6E6E6E6E6E6E6E6E7E7E7E7E7E7D4
:1007C000E7E7E7E8E8E8E8E8E8E8E8E8E9E9E9E9A8
:1007D000E9E9E9E9E9EAEAEAEAEAEAEAEAEAEAEB7D
:1007E000EBEBEBEBEBEBEBEBECECECECECECECEC51
:1007F000ECECEDEDEDEDEDEDEDEDEDEDEEEEEEEE27
:10080000EEEEEEEEEEEEEEEFEFEFEFEFEFEFEFEFFF
:10081000EFF0F0F0F0F0F0F0F0F0F0F0F0F1F1F1D6
:10082000F1F1F1F1F1F1F1F1F2F2F2F2F2F2F2F2B0
:10083000F2F2F2F2F3F3F3F3F3F3F3F3F3F3F3F38C
:10084000F4F4F4F4F4F4F4F4F4F4F4F4F4F5F5F565
:10085000F5F5F5F5F5F5F5F5F5F5F5F6F6F6F6F643
:10086000F6F6F6F6F6F6F6F6F6F7F7F7F7F7F7F721
:10087000F7F7F7F7F7F7F7F7F8F8F8F8F8F8F8F800
:10088000F8F8F8F8F8F8F8F8F9F9F9F9F9F9F9F9E0
:10089000F9F9F9F9F9F9F9F9F9F9FAFAFAFAFAFAC2
:1008A000FAFAFAFAFAFAFAFAFAFAFAFAFAFBFBFBA5
:1008B000FBFBFBFBFBFBFBFBFBFBFBFBFBFBFBFB88
:1008C000FBFBFBFBFCFCFCFCFCFCFCFCFCFCFCFC6C
:1008D000FCFCFCFCFCFCFCFCFCFCFCFCFCFCFDFD56
:1008E000FDFDFDFDFDFDFDFDFDFDFDFDFDFDFDFD38
:1008F000FDFDFDFDFDFDFDFDFDFDFDFDFDFDFDFD28
:10090000FEFEFEFEFEFEFEFEFEFEFEFEFEFEFEFE07
:10091000FEFEFEFEFEFEFEFEFEFEFEFEFEFEFEFEF7
:10092000FEFEFEFEFEFEFEFEFEFEFEFEFEFEFEFEE7
:10093000FEFEFEFEFEFEFEFEFEFEFEFEFEFEFEFED7
:10094000FEFEFEFEFEFEFEFEFEFEFEFEFEFEFEFEC7
:10095000FEFFFEFEFEFEFEFEFEFEFEFEFEFEFEFEB6
:10096000FEFEFEFEFEFEFEFEFEFEFEFEFEFEFEFEA7
:10097000FEFEFEFEFEFEFEFEFEFEFEFEFEFEFEFE97
:10098000FEFEFEFEFEFEFEFEFEFEFEFEFEFEFEFE87
:10099000FEFEFEFEFEFEFEFEFEFEFEFEFEFEFEFE77
:1009A000FEFEFEFDFDFDFDFDFDFDFDFDFDFDFDFD74
:1009B000FDFDFDFDFDFDFDFDFDFDFDFDFDFDFDFD67
:1009C000FDFDFDFDFDFCFCFCFCFCFCFCFCFCFCFC62
:1009D000FCFCFCFCFCFCFCFCFCFCFCFCFCFCFCFB58
:1009E000FBFBFBFBFBFBFBFBFBFBFBFBFBFBFBFB57
:1009F000FBFBFBFBFBFBFAFAFAFAFAFAFAFAFAFA51
:100A0000FAFAFAFAFAFAFAFAFAF9F9F9F9F9F9F94D
:100A1000F9F9F9F9F9F9F9F9F9F9F9F8F8F8F8F84B
:100A2000F8F8F8F8F8F8F8F8F8F8F8F7F7F7F7F74B
:100A3000F7F7F7F7F7F7F7F7F7F7F6F6F6F6F6F64C
:100A4000F6F6F6F6F6F6F6F6F5F5F5F5F5F5F5F54E
:100A5000F5F5F5F5F5F5F4F4F4F4F4F4F4F4F4F450
:100A6000F4F4F4F3F3F3F3F3F3F3F3F3F3F3F3F254
:100A7000F2F2F2F2F2F2F2F2F2F2F2F1F1F1F1F15B
:100A8000F1F1F1F1F1F1F0F0F0F0F0F0F0F0F0F060
:100A9000F0F0EFEFEFEFEFEFEFEFEFEFEEEEEEEE68
:100AA000EEEEEEEEEEEEEEEDEDEDEDEDEDEDEDED6F
:100AB000EDECECECECECECECECECECEBEBEBEBEB7A
:100AC000EBEBEBEBEAEAEAEAEAEAEAEAEAEAE9E984
:100AD000E9E9E9E9E9E9E9E8E8E8E8E8E8E8E8E88F
:100AE000E7E7E7E7E7E7E7E7E7E6E6E6E6E6E6E69D
:100AF000E6E6E5E5E5E5E5E5E5E5E4E4E4E4E4E4AA
:100B0000E4E4E4E3E3E3E3E3E3E3E3E2E2E2E2E2B7
:100B1000E2E2E2E1E1E1E1E1E1E1E1E0E0E0E0E0C7
:100B2000E0E0E0DFDFDFDFDFDFDFDFDEDEDEDEDED7
:100B3000DEDEDDDDDDDDDDDDDDDDDCDCDCDCDCDCE9
:100B4000DCDBDBDBDBDBDBDBDBDADADADADADADAFB
:100B5000D9D9D9D9D9D9D9D8D8D8D8D8D8D8D7D710
:100B6000D7D7D7D7D7D7D6D6D6D6D6D6D6D5D5D522
:100B7000D5D5D5D4D4D4D4D4D4D4D3D3D3D3D3D338
:100B8000D3D2D2D2D2D2D2D2D1D1D1D1D1D1D1D04D
:100B9000D0D0D0D0D0CFCFCFCFCFCFCFCECECECE64
:100BA000CECECDCDCDCDCDCDCDCCCCCCCCCCCCCB7B
:100BB000CBCBCBCBCBCBCACACACACACAC9C9C9C993
:100BC000C9C9C8C8C8C8C8C8C8C7C7C7C7C7C7C6AB
:100BD000C6C6C6C6C6C5C5C5C5C5C5C4C4C4C4C4C5
:100BE000C4C3C3C3C3C3C3C2C2C2C2C2C2C1C1C1E0
:100BF000C1C1C1C0C0C0C0C0C0BFBFBFBFBFBFBEFA
:100C0000BEBEBEBEBEBDBDBDBDBDBDBCBCBCBCBC14
:100C1000BCBBBBBBBBBBBBBABABABABAB9B9B9B930
:100C2000B9B9B8B8B8B8B8B8B7B7B7B7B7B7B6B64C
:100C3000B6B6B6B5B5B5B5B5B5B4B4B4B4B4B3B36A
:100C4000B3B3B3B3B2B2B2B2B2B2B1B1B1B1B1B087
:100C5000B0B0B0B0B0AFAFAFAFAFAEAEAEAEAEAEA5
:100C6000ADADADADADACACACACACACABABABABABC4
:100C7000AAAAAAAAAAAAA9A9A9A9A9A8A8A8A8A8E3
:100C8000A8A7A7A7A7A7A6A6A6A6A6A5A5A5A5A502
:100C9000A5A4A4A4A4A4A3A3A3A3A3A2A2A2A2A222
:100CA000A2A1A1A1A1A1A0A0A0A0A09F9F9F9F9F42
:100CB0009F9E9E9E9E9E9D9D9D9D9D9C9C9C9C9C62
:100CC0009C9B9B9B9B9B9A9A9A9A9A999999999982
:100CD00098989898989897979797979696969696A3
:100CE00095959595959494949494939393939393C5
:100CF0009292929292919191919190909090908FE6
:100D00008F8F8F8F8E8E8E8E8E8D8D8D8D8D8D8C07
:100D10008C8C8C8C8B8B8B8B8B8A8A8A8A8A898928
:100D2000898989888888888887878787878786864A
:100D3000868686858585858584848484848383836B
:100D4000838382828282828181818181808080808E
:100D500080807F7F7F7F7F7E7E7E7E7E7D7D7D7DAE
:100D60007D7C7C7C7C7C7B7B7B7B7B7A7A7A7A7AD1
:100D700079797979797878787878787777777777F3
:100D80007676767676757575757574747474747315
:100D90007373737372727272727271717171717036
:100DA000707070706F6F6F6F6F6E6E6E6E6E6D6D58
:100DB0006D6D6D6C6C6C6C6C6C6B6B6B6B6B6A6A79
:100DC0006A6A6A696969696968686868686767679B
:100DD00067676766666666666565656565646464BB
:100DE00064646363636363636262626262616161DC
:100DF00061616060606060605F5F5F5F5F5E5E5EFC
:100E00005E5E5D5D5D5D5D5D5C5C5C5C5C5B5B5B1B
:100E10005B5B5A5A5A5A5A5A59595959595858583B
:100E2000585857575757575756565656565555555B
:100E30005555555454545454535353535353525279
:100E400052525251515151515150505050504F4F98
:100E50004F4F4F4F4E4E4E4E4E4D4D4D4D4D4D4CB6
:100E60004C4C4C4C4C4B4B4B4B4B4A4A4A4A4A4AD3
:100E700049494949494848484848484747474747F2
:100E8000474646464646464545454545444444440E
:100E9000444443434343434342424242424241412A
:100EA000414141414040404040403F3F3F3F3F3F44
:100EB0003E3E3E3E3E3E3D3D3D3D3D3D3C3C3C3C60
:100EC0003C3C3B3B3B3B3B3B3A3A3A3A3A3A39397A
:100ED0003939393938383838383837373737373794
:100EE00037363636363636353535353535343434AD
:100EF00034343434333333333333323232323232C4
:100F000032313131313131303030303030302F2FDB
:100F10002F2F2F2F2E2E2E2E2E2E2E2D2D2D2D2DF2
:100F20002D2D2C2C2C2C2C2C2C2B2B2B2B2B2B2B06
:100F30002A2A2A2A2A2A292929292929292828281E
:100F40002828282828272727272727272626262630
:100F50002626262525252525252524242424242444
:100F60002424232323232323232222222222222256
:100F70002221212121212121202020202020202068
:100F80001F1F1F1F1F1F1F1F1E1E1E1E1E1E1E1E79
:100F90001D1D1D1D1D1D1D1D1C1C1C1C1C1C1C1C89
:100FA0001B1B1B1B1B1B1B1B1B1A1A1A1A1A1A1A98
:100FB0001A191919191919191919181818181818A6
:100FC00018181817171717171717171716161616B2
:100FD00016161616161515151515151515151514BD
:100FE00014141414141414141313131313131313C9
:100FF00013131212121212121212121211111111D3
:1010000011111111111111101010101010101010D9
:10101000100F0F0F0F0F0F0F0F0F0F0F0F0E0E0EE2
:101020000E0E0E0E0E0E0E0E0D0D0D0D0D0D0D0DE8
:101030000D0D0D0D0C0C0C0C0C0C0C0C0C0C0C0CEC
:101040000B0B0B0B0B0B0B0B0B0B0B0B0B0A0A0AF3
:101050000A0A0A0A0A0A0A0A0A0A0A0909090909F5
:1010600009090909090909090908080808080808F7
:1010700008080808080808080707070707070707F8
:1010800007070707070707070606060606060606F8
:1010900006060606060606060606050505050505F6
:1010A00005050505050505050505050505040404F3
:1010B00004040404040404040404040404040404F0
:1010C00004040404030303030303030303030303EC
:1010D00003030303030303030303030303030202E2
:1010E00002020202020202020202020202020202E0
:1010F00002020202020202020202020202020202D0
:1011000001010101010101010101010101010101CF
:1011100001010101010101010101010101010101BF
:1011200001010101010101010101010101010101AF
:10113000010101010101010101010101010101019F
:10114000010101010101010101010101010101018F
:10115000010101010101010101010101010101017F
:10116000010101010101010101010101010101016F
:10117000010101010101010101010101010101015F
:10118000010101010101010101010101010101014F
:10119000010101010101010101010101010101013F
:1011A0000101010202020202020202020202020222
:1011B000020202020202020202020202020202020F
:1011C00002020202020303030303030303030303F4
:1011D00003030303030303030303030303030304DE
:1011E00004040404040404040404040404040404BF
:1011F00004040404040405050505050505050505A5
:101200000505050505050505050606060606060687
:101210000606060606060606060606070707070769
:101220000707070707070707070707080808080849
:101230000808080808080808080809090909090928
:1012400009090909090909090A0A0A0A0A0A0A0A06
:101250000A0A0A0A0A0A0B0B0B0B0B0B0B0B0B0BE4
:101260000B0B0B0C0C0C0C0C0C0C0C0C0C0C0C0DC0
:101270000D0D0D0D0D0D0D0D0D0D0D0E0E0E0E0E99
:101280000E0E0E0E0E0E0F0F0F0F0F0F0F0F0F0F74
:101290000F0F10101010101010101010111111114C
:1012A0001111111111111112121212121212121225
:1012B00012131313131313131313131414141414FA
:1012C00014141414151515151515151515151616D0
:1012D00016161616161616171717171717171717A5
:1012E0001818181818181818181919191919191977
:1012F00019191A1A1A1A1A1A1A1A1B1B1B1B1B1B4A
:101300001B1B1B1C1C1C1C1C1C1C1C1D1D1D1D1D1B
:101310001D1D1D1E1E1E1E1E1E1E1E1F1F1F1F1FEB
:101320001F1F1F20202020202020202121212121BB
:101330002121222222222222222223232323232389
:101340002324242424242424242525252525252557
:101350002626262626262627272727272727282822
:10136000282828282828292929292929292A2A2AF0
:101370002A2A2A2B2B2B2B2B2B2B2C2C2C2C2C2CBA
:101380002C2D2D2D2D2D2D2D2E2E2E2E2E2E2E2F85
:101390002F2F2F2F2F30303030303030313131314E
:1013A0003131323232323232323333333333333417
:1013B00034343434343435353535353536363636DF
:1013C00036363737373737373738383838383839A7
:1013D00039393939393A3A3A3A3A3A3B3B3B3B3B6D
:1013E0003B3C3C3C3C3C3C3D3D3D3D3D3D3E3E3E32
:1013F0003E3E3E3F3F3F3F3F3F40404040404041F8
:1014000041414141414242424242424343434343BC
:101410004344444444444445454545454646464680
:101420004646474747474747484848484848494944
:101430004949494A4A4A4A4A4A4B4B4B4B4B4C4C06
:101440004C4C4C4C4D4D4D4D4D4D4E4E4E4E4E4FC9
:101450004F4F4F4F4F50505050505151515151518B
:10146000525252525253535353535354545454544C
:10147000555555555555565656565657575757570D
:1014800057585858585859595959595A5A5A5A5ACE
:101490005A5B5B5B5B5B5C5C5C5C5C5D5D5D5D5D8E
:1014A0005D5E5E5E5E5E5F5F5F5F5F60606060604E
:1014B000606161616161626262626263636363630E
:1014C00063646464646465656565656666666666CE
:1014D000676767676767686868686869696969698D
:1014E0006A6A6A6A6A6B6B6B6B6B6C6C6C6C6C6C4B
:1014F0006D6D6D6D6D6E6E6E6E6E6F6F6F6F6F700A
:1015000070707070717171717172727272727273C7
:101510007373737374747474747575757575767686
:101520007676767777777777787878787878797944
:101530007979797A7A7A7A7A7B7B7B7B7B7C7C7C03
:101540007C7C7D7D7D7D7D7E7E7E7E7E7F7F7F7FC0
:101550007F01000003070C131B232B343D454E561F
:101560005D646B71767B7F8386898B8E9093959774
:101570009A9DA0A3A7ABAFB3B7BCC1C5CACED3D702
:10158000DBDFE2E6E9ECEEF1F3F5F7F8FAFBFCFD60
:10159000FDFEFEFEFFFEFEFEFEFDFDFCFBFBFAF97E
:1015A000F8F6F5F4F2F1EFEDECEAE8E6E4E1DFDD80
:1015B000DAD8D5D3D0CDCBC8C5C3C0BDBBB8B5B3C1
:1015C000B0AEABA8A6A3A19E9B999693918E8B8952
:1015D0008683807E7B787573706D6A686562605DF6
:1015E0005A585653514F4C4A48464443413F3E3C5B
:1015F0003B393837363534333231302F2F2E2D2DBD
:101600002C2B2B2A2A2A2929292828282828272749
:10161000272728282828282929292A2A2B2B2C2D36
:101620002D2E2F303132333435363738393A3B3D71
:101630003E3F40414344454748494A4C4D4E505136
:10164000525353524F4A433B32281E150D07030194
:1016500011241FBECFEFD0E4DEBFCDBF11E0A0E06C
:10166000B1E0E4E7F5E200E00BBF02C007900D92A5
:10167000A430B107D9F721E0A4E0B1E001C01D9288
:10168000A933B207E1F70E94EB0B0C9477120C948C
:1016900000001F920F920FB60F9211240BB60F92FB
:1016A0008F939F93EF93FF93CF93DF93CDB7DEB7E5
:1016B00080912E01811551F488E790E0FC01808132
:1016C0009181909302018093010137C080912E0196
:1016D000813051F488E790E0FC0180819181909302
:1016E00021018093200129C080912E01823051F484
:1016F00088E790E0FC018081918190933201809392
:1017000031011BC080912E01843051F488E790E0B4
:10171000FC018081918190931D0180931C010DC07B
:1017200080912E01853049F488E790E0FC018081AA
:101730009181909335018093340181E080932F0152
:101740001092300180912E018F5F80932E01809145
:101750002E01863010F010922E010000DF91CF9103
:10176000FF91EF919F918F910F900BBE0F900FBE45
:101770000F901F9018951F920F920FB60F92112481
:101780000BB60F922F933F938F939F93EF93FF93FB
:10179000CF93DF93CDB7DEB7809104018F5F809345
:1017A00004018091370190913801292F33278BE272
:1017B00090E0FC0120830000DF91CF91FF91EF9139
:1017C0009F918F913F912F910F900BBE0F900FBE65
:1017D0000F901F901895CF93DF93CDB7DEB72E975C
:1017E0000FB6F894DEBF0FBECDBF81E290E0FC01E2
:1017F000108282E290E0FC01108284E290E0FC0121
:10180000108285E290E02FEFFC0120838AE290E0D5
:101810002FEFFC01208380E890E023E0FC0120838F
:1018200081E890E0FC01208181E890E02961FC01E1
:1018300020838FE690E022E0FC01208388E890E09E
:1018400028E13BE0FC013183208378948AE790E033
:1018500027E8FC0120838AE790E0FC0120818AE7E9
:1018600090E02068FC0120838AE790E0FC01208161
:101870008AE790E02860FC01208310920F018CE73A
:1018800090E0FC0110828AE790E0FC0120818AE769
:1018900090E02064FC01208310920E0180913601BB
:1018A000893008F404C1809134019091350100978A
:1018B00051F080913401909135018A3F910518F4DF
:1018C000109233013AC080913401909135018A3FE2
:1018D000910560F08091340190913501843FF1E0F1
:1018E0009F0720F482E08093330127C08091340168
:1018F00090913501843F21E0920760F0809134019E
:10190000909135018E3EE2E09E0720F484E08093C2
:10191000330113C080913401909135018E3EF2E085
:101920009F0758F080913401909135018F3F23E05B
:10193000920718F481E0809333018091330181157F
:1019400009F049C0809131019091320196958795B7
:1019500096958795969587958B838B818115F1F068
:1019600080910E01282F30E09091040181E04B819D
:10197000491708F080E0882F90E0919581959109B2
:10198000822393234FEF489F9001499F300D1124EC
:10199000C901909338018093370187C080910E016F
:1019A000282F30E09091040181E0943008F480E029
:1019B000882F90E0919581959109822393234FEF91
:1019C000489F9001499F300D1124C901909338011F
:1019D000809337016AC0809133018430E9F48091AB
:1019E0000E01282F30E080910401882F90E042E51D
:1019F00054E0840F951FFC018491882F90E0289F6C
:101A0000A001299F500D389F500D1124CA019093B9
:101A100038018093370149C080913301823029F524
:101A200080910E01482F50E080910401282F30E072
:101A300080911901882F90E06CE870E0860F971F65
:101A4000FC0184918695882F90E0280F391F429FD2
:101A5000C001439F900D529F900D1124959587953D
:101A6000909338018093370120C0809133018130F9
:101A7000E1F480910E01282F30E080910401882F3D
:101A800090E04CE851E0840F951FFC018491882F71
:101A900090E0289FA001299F500D389F500D1124E0
:101AA000CA019093380180933701109236018091DA
:101AB00036018F5F80933601809130018115D9F412
:101AC00081E0809330018CE790E0FC0110828CE78C
:101AD00090E0FC01308120912E018CE790E0232BD7
:101AE000FC0120838AE790E0FC0120818AE790E0F6
:101AF0002064FC01208380911401909115018137AD
:101B0000F7E19F0708F4A2C08091010190910201C2
:101B1000CC01A0E0B0E0BC01CD010E94F30FDC01DC
:101B2000CB0120E030E040E054E4BC01CD010E9454
:101B3000520FDC01CB018C839D83AE83BF838091E8
:101B40001C0190911D018A5B9F4FCC01A0E0B0E089
:101B5000BC01CD010E94F30FDC01CB0129E93AEA77
:101B60004AE252E4BC01CD010E94520FDC01CB01DC
:101B7000BC01CD010E94C40FDC01CB0188878885A0
:101B8000882F90E0092E000CAA0BBB0BBC01CD01E5
:101B90000E94F50FDC01CB0120E030E040E451E48D
:101BA000BC01CD010E94520FDC01CB0189879A87CD
:101BB000AB87BC8729853A854B855C856C817D81A7
:101BC0008E819F810E94E60EDC01CB019C01AD015C
:101BD00060E070E080E090E40E94EE10DC01CB0158
:101BE00020E030E04CED52E4BC01CD010E948110B8
:101BF000DC01CB01BC01CD010E94C40FDC01CB0193
:101C00009E878D878091010190910201893C910509
:101C1000C8F08091010190910201811524E09207A2
:101C200088F48D859E85009769F08D859E858F3F10
:101C3000EFEF9E0739F088E890E02D853E85FC01A6
:101C400031832083109215011092140180911001AC
:101C500090911101893C910508F441C080912001C7
:101C6000909121018937910538F18091200190915F
:101C700021018115F4E09F07F8F4809120019091F3
:101C8000210188579109969587959A83898389813F
:101C90009A81911521F08FEF90E09A8389832091AA
:101CA0001E0130911F0189819A81820F931F9093A9
:101CB0001F0180931E0106C010920F0110920901AE
:101CC0001092080180911201909113010196909356
:101CD0001301809312011092110110921001809152
:101CE00010019091110101969093110180931001C0
:101CF000809116018F5F809316018091140190915D
:101D0000150101969093150180931401809117019C
:101D1000909118010196909318018093170180917A
:101D20003101909132019695879596958795969574
:101D300087959C01265F3F4F809117019091180174
:101D40002817390748F4809119018F5F8093190192
:101D50001092180110921701809116018333C0F080
:101D600080910F0190910E01981728F480910E0137
:101D70008F5F80930E0190910F0180910E01981753
:101D800028F480910E01815080930E01109216016B
:101D900080911201909113018830910508F47ECD55
:101DA00080911E0190911F01969587959695879534
:101DB0009695879580930F0110921F0110921E0136
:101DC000109213011092120169CD5058BB27AA2717
:101DD0000E94FD0E0C9447100E94391038F00E94AA
:101DE000401020F039F49F3F19F426F40C9436107B
:101DF0000EF4E095E7FB0C943010E92F0E94581088
:101E000058F3BA17620773078407950720F079F42F
:101E1000A6F50C947A100EF4E0950B2EBA2FA02D97
:101E20000B01B90190010C01CA01A0011124FF2787
:101E3000591B99F0593F50F4503E68F11A16F04082
:101E4000A22F232F342F4427585FF3CF4695379581
:101E50002795A795F0405395C9F77EF41F16BA0B46
:101E6000620B730B840BBAF09150A1F0FF0FBB1FF4
:101E7000661F771F881FC2F70EC0BA0F621F731F3D
:101E8000841F48F4879577956795B795F7959E3F9A
:101E900008F0B0CF9395880F08F09927EE0F97952B
:101EA000879508950E94660F0C9447100E94401079
:101EB00058F00E94391040F029F45F3F29F00C944B
:101EC000301051110C947B100C9436100E94581055
:101ED00068F39923B1F3552391F3951B550BBB2759
:101EE000AA2762177307840738F09F5F5F4F220F9E
:101EF000331F441FAA1FA9F335D00E2E3AF0E0E895
:101F000032D091505040E695001CCAF72BD0FE2FDE
:101F100029D0660F771F881FBB1F26173707480772
:101F2000AB07B0E809F0BB0B802DBF01FF2793582A
:101F30005F4F3AF09E3F510578F00C9430100C94AE
:101F40007B105F3FE4F3983ED4F3869577956795D1
:101F5000B795F7959F5FC9F7880F911D969587955F
:101F600097F90895E1E0660F771F881FBB1F62177E
:101F700073078407BA0720F0621B730B840BBA0B3C
:101F8000EE1F88F7E09508950E94601088F09F5733
:101F900098F0B92F9927B751B0F0E1F0660F771F8D
:101FA000881F991F1AF0BA95C9F714C0B13091F083
:101FB0000E947A10B1E008950C947A10672F782F60
:101FC0008827B85F39F0B93FCCF386957795679548
:101FD000B395D9F73EF490958095709561957F4FB4
:101FE0008F4F9F4F0895E89409C097FB3EF490955A
:101FF0008095709561957F4F8F4F9F4F9923A9F0E2
:10200000F92F96E9BB279395F69587957795679570
:10201000B795F111F8CFFAF4BB0F11F460FF1BC0B4
:102020006F5F7F4F8F4F9F4F16C0882311F096E947
:1020300011C0772321F09EE8872F762F05C06623F5
:1020400071F096E8862F70E060E02AF09A95660FAE
:10205000771F881FDAF7880F9695879597F9089567
:1020600097F99F6780E870E060E008959FEF80EC4B
:10207000089500240A9416161706180609060895EE
:1020800000240A9412161306140605060895092E54
:102090000394000C11F4882352F0BB0F40F4BF2BC3
:1020A00011F460FF04C06F5F7F4F8F4F9F4F089503
:1020B00057FD9058440F551F59F05F3F71F04795F9
:1020C000880F97FB991F61F09F3F79F087950895DE
:1020D000121613061406551FF2CF4695F1DF08C0FD
:1020E000161617061806991FF1CF8695710561051A
:1020F00008940895E894BB2766277727CB0197F9C2
:1021000008950E9494100C9447100E94391038F0E2
:102110000E94401020F0952311F00C9430100C9484
:10212000361011240C947B100E94581070F3959F68
:10213000C1F3950F50E0551F629FF001729FBB27BE
:10214000F00DB11D639FAA27F00DB11DAA1F649F5A
:102150006627B00DA11D661F829F2227B00DA11D0D
:10216000621F739FB00DA11D621F839FA00D611D93
:10217000221F749F3327A00D611D231F849F600DB4
:10218000211D822F762F6A2F11249F5750409AF0DD
:10219000F1F088234AF0EE0FFF1FBB1F661F771F69
:1021A000881F91505040A9F79E3F510580F00C9434
:1021B00030100C947B105F3FE4F3983ED4F3869587
:1021C00077956795B795F795E7959F5FC1F7FE2BD4
:1021D000880F911D9695879597F90895FA01EE0F4E
:1021E000FF1F309621053105A1F16115710561F4DC
:1021F0008038BFE39B0749F168949038810561F00E
:102200008038BFEF9B0741F099234AF5FF3FE10576
:102210003105210519F1E8940894E795D901AA231D
:1022200029F4AB2FBE2FF85FD0F310C0FF5F70F41E
:10223000A695E0F7F73950F019F0FF3A38F49F7798
:102240009F930DD00F9007FC9058089546F00C9482
:10225000361060E070E080E89FE308954FE79F77D5
:102260005F934F933F932F930E94EB112F913F91D8
:102270004F915F910E9481100C94461129F416F041
:102280000C9430100C947A100C9436100E9460104C
:10229000A8F39638A0F707F80F92E8942BE33AEAF0
:1022A00048EB5FE70E9497100F920F920F924DB785
:1022B0005EB70F920E943512E2EFF4E2B0E00E94A6
:1022C00079114F915F91EF91FF91E595EE1FFF1FFF
:1022D00049F0FE57E0684427EE0F441FFA95E1F7F6
:1022E0004195550B0E94AD110F9007FE0C94A11162
:1022F0000895DF93CF931F930F93FF92EF92DF9296
:10230000BBBF7B018C01689406C0DA2EEF010E94EE
:102310009410FE01E894A791279137914791579126
:10232000A6F3EF010E94FD0EFE019701A801DA94C9
:1023300069F7DF90EF90FF900F911F91CF91DF91A0
:1023400008959B01AC0160E070E080E89FE30C948D
:10235000520F0C9430100C9469120E946010D8F344
:102360009923C9F3940F511DA3F39150504094F059
:1023700059F0882332F0660F771F881F9150504024
:10238000C1F79E3F51052CF7880F911D96958795B3
:1023900097F908955F3FACF0983E9CF0BB27869577
:1023A00077956795B79508F4B1609395C1F7BB0F22
:1023B00058F711F460FFE8CF6F5F7F4F8F4F9F4F4B
:1023C000E3CF0C947B1016F00C9469120C94361029
:1023D00068940C9430100E946010A8F39923C1F304
:1023E000AEF3DF93CF931F930F93FF92C92FDD2797
:1023F00088232AF02197660F771F881FDAF720E0DD
:1024000030E040E85FEB9FE3883920F0803E40F009
:1024100021968F770E94E60EEAE1F5E2B0E005C072
:102420000E94E60EE7E4F5E2B0E00E9479118B012C
:10243000BE01EC01FB2E6F5771097595771F880B54
:10244000990B0E94F50F28E132E741E35FE30E9418
:102450009410AF2D9801AE01FF900F911F91CF9175
:10246000DF910E94FD0E0C944710FA01DC01AA0FC7
:10247000BB1F9B01AC01BF5728F4222733274427F9
:10248000507820C0B75190F4AB2F00244695379573
:102490002795011CA395D2F3002071F0220F331F62
:1024A000441FB395DAF30ED00C94E50E613071053C
:1024B000A0E88A07B94630F49B01AC01662777276C
:1024C00088279078309621F020833183428353838C
:1024D00008959F3F31F0915020F487957795679547
:1024E000B795880F911D9695879597F90895F8945B
:1024F000FFCF07634236B79BD8A71A39685618AE84
:10250000BAAB558C1D3CB7CC5763BD6DEDFD753E28
:10251000F6177231BF000000803F08000000BE9235
:102520002449123EABAAAA2ABECDCCCC4C3E000018
:102530000080BEABAAAAAA3E00000000BF000000B7
:10254000803F0000000000084178D3BB4387D113CF
:102550003D190E3CC3BD4282AD2B3E68EC8276BE77
:10256000D98FE1A93E4C80EFFFBE01C4FF7F3F0041
:042570000000000067
:0425740001900108C9
:00000001FF
