:100000000C9484050C94A3050C94A3050C94A305EF
:100010000C94A3050C94A3050C94A3050C94A305C0
:100020000C94A3050C94A3050C94A3050C94A305B0
:100030000C94A3050C9415060C94A3050C94A3052D
:100040000C94A3050C94A3050C94A3050C94A30590
:100050000C94A3050C94A3050C94A3050C94A30580
:100060000C94CD050C94A3050C94A3050C94A30546
:100070000C94A3050C94A3050C94A3050C94A30560
:100080000C94A3050C94A3050C94A3058083868986
:100090008C8F9295989B9EA2A5A7AAADB0B3B6B936
:1000A000BCBEC1C4C6C9CBCED0D3D5D7DADCDEE066
:1000B000E2E4E6E8EAEBEDEEF0F1F3F4F5F6F8F958
:1000C000FAFAFBFCFDFDFEFEFEFFFFFFFFFFFFFF58
:1000D000FEFEFEFDFDFCFBFAFAF9F8F6F5F4F3F18D
:1000E000F0EEEDEBEAE8E6E4E2E0DEDCDAD7D5D3E9
:1000F000D0CECBC9C6C4C1BEBCB9B6B3B0ADAAA739
:10010000A5A29E9B9895928F8C898683807C797618
:1001100073706D6A6764615D5A5855524F4C494619
:1001200043413E3B393634312F2C2A282523211FC9
:100130001D1B1917151412110F0E0C0B0A090706B7
:100140000505040302020101010000000000000097
:100150000101010202030405050607090A0B0C0E42
:100160000F1112141517191B1D1F212325282A2CC6
:100170002F313436393B3E414346494C4F52555856
:100180005A5D6164676A6D707376797C000204065B
:10019000080A0C0E10121416181A1C1E20222426EF
:1001A000282A2C2E30323436383A3C3E40424446DF
:1001B000484A4C4E50525456585A5C5E60626466CF
:1001C000686A6C6E70727476787A7C7E80828486BF
:1001D000888A8C8E90929496989A9C9EA0A2A4A6AF
:1001E000A8AAACAEB0B2B4B6B8BABCBEC0C2C4C69F
:1001F000C8CACCCED0D2D4D6D8DADCDEE0E2E4E68F
:10020000E8EAECEEF0F2F4F6F8FAFCFEFEFCFAF89E
:10021000F6F4F2F0EEECEAE8E6E4E2E0DEDCDAD86E
:10022000D6D4D2D0CECCCAC8C6C4C2C0BEBCBAB85E
:10023000B6B4B2B0AEACAAA8A6A4A2A09E9C9A984E
:10024000969492908E8C8A88868482807E7C7A783E
:10025000767472706E6C6A68666462605E5C5A582E
:10026000565452504E4C4A48464442403E3C3A381E
:10027000363432302E2C2A28262422201E1C1A180E
:10028000161412100E0C0A08060402000D1E385532
:100290006F828D9292929192969EA7B4C1CBCFCD50
:1002A000C5BBB1A9A4A19F9E9D9D9EA0A6ADB6C2AF
:1002B000D0DEE6E7DFD2C4B9B4B6BEC7CDCFCCC579
:1002C000BCB0A4998F8A8A8D8F8C816C533C2F305F
:1002D0003E53697B84858078706B6B6E7375736B2E
:1002E0005E51474448505A626768696B727E8E9EC1
:1002F000A8ACA9A09790909AABC4DCEFFBFEFBF5ED
:10030000EEE8E3DDD8D4CFCCC9C7C9CED7DEE3E26F
:10031000DDD7D2D0D4DDE7EDEEEBE2D0B9A69B98E5
:100320009DA6B0B4AEA1907F77798596A1A18F6D7F
:10033000441E05000E28466278858C8F9093969B0C
:100340009FA5ADB6BDC4F7F6F6F6F5F5F4F2F2F1F9
:10035000EEECE9E6E3DFDAD4CFC8C2BBB2ABA39AD6
:1003600092887F756B62584E453C332A221B150FCD
:100370000A060402010204070B11181F27313A452F
:10038000505A646F79838D949CA4ABB1B6BBBFC344
:10039000C8CACDD1D4D7DADCDFE2E5E8EAECEDEF8C
:1003A000EFF0F1F1F0F0F0EFEFEEEEEDECECECEC65
:1003B000ECEBEBEBEAE8E6E3DED8D2CAC2B8ADA2DA
:1003C000978C8074685C51463C332A221C16110DB0
:1003D00009060402010001020305080C10161C2383
:1003E0002B343D48525D6A75818C97A1ACB6BFC76E
:1003F000CFD5DBE1E5E8EBEDEFF0F2F2F3F4F5F564
:10040000F5F5F4F3F1EFEDECEAE8E5E2DED9D4CE70
:10041000C8C2BBB3ABA2988F867D746B625A51473A
:100420003C332A221B15100B070502010204070B9F
:1004300010171E262E37424D5864707A848D949B77
:10044000A2A9AFB5BABEC2C7CBCED2D6D8DBDEDF4B
:10045000E1E3F8FAFBF9F4EEE5DBD0C5BAB0A8A306
:10046000A1A4ACB7C6D5E3EDF2F2EDE4D8CCC1B8A7
:10047000B4B3B7BDC5CED5DADCDAD4C8B8A58F7AA7
:100480006655494342464D57626D78828B92989EDD
:10049000A1A2A19E9A938B82776B60544A413B380C
:1004A000383E4753606C757A7973695D5247403EB8
:1004B0003F46505C697580878A888175644F39240E
:1004C00012060000071220303F4C58626B747B828A
:1004D000888D9091908D877E73675C524A4545491F
:1004E0005361728595A2ABADA9A1968B8079767781
:1004F0007D87929FAAB4BBBDBCB5AA9B8A78685A77
:10050000514E5057616C7781898E93989CA2A7AD0C
:10051000B1B3B4B2ADA79F968D847C746E6B6B6FD4
:100520007883909EAAB2B6B5AFA69C938D8C8E951B
:100530009FACBBC9D6DFE5E6E1D7C7B4A08D7E731B
:100540006E6F757F8C98A4AFB7BFC7CFD8E2ECF5BC
:10055000F601000003070C131B232B343D454E56B8
:100560005D646B71767B7F8386898B8E9093959784
:100570009A9DA0A3A7ABAFB3B7BCC1C5CACED3D712
:10058000DBDFE2E6E9ECEEF1F3F5F7F8FAFBFCFD70
:10059000FDFEFEFEFFFEFEFEFEFDFDFCFBFBFAF98E
:1005A000F8F6F5F4F2F1EFEDECEAE8E6E4E1DFDD90
:1005B000DAD8D5D3D0CDCBC8C5C3C0BDBBB8B5B3D1
:1005C000B0AEABA8A6A3A19E9B999693918E8B8962
:1005D0008683807E7B787573706D6A686562605D06
:1005E0005A585653514F4C4A48464443413F3E3C6B
:1005F0003B393837363534333231302F2F2E2D2DCD
:100600002C2B2B2A2A2A2929292828282828272759
:10061000272728282828282929292A2A2B2B2C2D46
:100620002D2E2F303132333435363738393A3B3D81
:100630003E3F40414344454748494A4C4D4E505146
:10064000525353524F4A433B32281E150D070301A4
:100650007F7F7F7E7E7F7E7F7E7E7E7E7D7F7FA290
:10066000B69987817E8080807F8281817D7B767351
:1006700067110B4E7DAA874F40576A78706A688869
:10068000D6D0A1948B909397989B9D9D9C99948D87
:100690008530175974919374646B717274707679A4
:1006A000ADF6CCA19690929698979B999B93918842
:1006B000812F0B496471756C626261615F63626C6A
:1006C00073C0EBAE918682858F8F928F8E8D8E85D3
:1006D000813604415F6C6C6A646362626164666D5A
:1006E0007287E2E6A6927A7995A39F9A959397945A
:1006F0008F4E184A6B747773726F706A6B6B71747C
:100700007C7CA7F9D5A075537FB2B7A08D838F9756
:1007100095602E516E787B777371706D6E6D747409
:100720007E76C3FFB6968A898E8F8D8C949493883B
:1007300080747535003764969355353F5965675D0C
:100740005A66ADCC9C84808183848A8D93928F89F4
:100750008C85874C0B3E6A80947D66656E737976D6
:10076000747894EBEEB1A09A9A9BA39FA6A8A6A337
:100770009E959360113C6B7A82796E6C67646368B6
:100780006B7376A0EECB9B8883868A9496908C8C34
:1007900090868359051F556770675B5E635C5C5C80
:1007A00062617178B9EDB58F7F7281959E9C948757
:1007B00091938E671A2C6271776E6B6A70706563A5
:1007C0006D707A7A8BE2ECB186566DA6BBA99287E2
:1007D0008E9596804244626E7A787C7E7A6D6F6EDA
:1007E0007274807DA2FACF96908A8C8C8E8B9191B8
:1007F000938884817A54051C57879E75443B5261C7
:100800007064595D89CCBA8F867F7E848D8C94907C
:10081000918F8F8C866B19265D7891856D63686EDC
:100820007372747A7FC6FAC5A292929AA19DA1A50D
:10083000A5A59E92918228235B71817D6E666C6A6C
:100840006565676D7786D6E1A98A81878C919392D9
:1008500096948D86897C1F0F47606E6B655D636122
:100860005C565D646F6F92E3C99385707898A2912E
:10087000918D8C91947F301A506F797070736D6C7C
:1008800063657179777C7EBEF7C194675A8FBEB677
:10089000978C8D9395925938596F807D75767A6FC4
:1008A0006A707875777185EDE3A09383828C94925A
:1008B0009291948E868678661A084774A38B4F357A
:1008C00048616F655B5D72C0CC99867A7E83868B4A
:1008D0009093989087888480310F506F8D95735FC7
:1008E0006575787876797AA9F6D9AA9B949B999CB4
:1008F000A2ABA8A199958E91481445677C83766434
:1009000067686C6C67676E75B7F0BA95847B849185
:10091000929497908887827F44083A5F6B6A6661F9
:10092000636263616264646C7CD1E8AC8F756E8FC6
:10093000A19C968C87909089591B3B637178716D4F
:10094000696E6868686D7076799BEFDCA37856797C
:10095000A7B2A091898E9799713A4D68767C7D7C7B
:100960007A7B706A70787A7D7BD3F4B49E88848AAF
:1009700090918E90948E88877D7B3C00295B929D20
:10098000633E445662665C5E629DD2AE8D837D811D
:100990008888868F95948F8D888959122F617F98CA
:1009A0008467656E727476757B8AD6EFB3A397976A
:1009B000999D9CA0A5A7A09791946D162D6078870E
:1009C0007B6A65676B6D6A686B7092E5D3A2917EF6
:1009D0007D87929398968B8B858367141A4F6674E4
:1009E0006B636363605F5E6465716FAAECC4998139
:1009F0006E80989F998F8B90928F74332F5B6E745B
:100A0000727572706B63686D71767A85CEEDB480A5
:100A10005A6596B0A690868B9494855647606C78FC
:100A20007B7C7D78726C6C74767D7CB5ECBF9E8B24
:100A30007C828D9291938F8F86817E765824275465
:100A40007F8C745649566365656463789FAF9A8559
:100A50007B7379878D8D8B898687888873423B610C
:100A6000879F92786E747F86807D848DA5BDBCAC97
:100A70009888858E9C9D9D9691908E8A81614F600D
:100A80007992927F716E777E7A74757B8696A39D3C
:100A900089777177818283837E7D7A78786A5959E4
:100AA000677A817B716D6E7172717173767A848AE7
:100AB00082776D737A7B7B79797D7E7B7C7B7A789C
:100AC000787E80818182817E7D7F8082817E7F832E
:100AD00084827E7D7F80807F7E808280807F808117
:100AE0007E7E8081828282807F808181807E7F8104
:100AF00082807E7E7E7F7F7F7E7E7F7F7F7F7F7F07
:100B00007E7E7E7F7F7F7F0011241FBECFEFD0E4EB
:100B1000DEBFCDBF11E0A0E0B1E0E8E5FAE100E022
:100B20000BBF02C007900D92AA30B107D9F721E0A0
:100B3000AAE0B1E001C01D92A833B207E1F70E941C
:100B40005C070C94E90C0C940000CF93DF930F9298
:100B5000CDB7DEB7898389818695982F9575898170
:100B6000880F8A7A892B8983898186958695982F23
:100B700093738981880F880F8C7C892B8983898165
:100B800082958F70982F89818295807F892B8983A8
:100B900089810F90DF91CF9108951F920F920FB628
:100BA0000F9211240BB60F928F939F93EF93FF93A5
:100BB000CF93DF93CDB7DEB780913501811551F426
:100BC00088E790E0FC0180819181909307018093F8
:100BD00006010DC080913501813049F488E790E02D
:100BE000FC0180819181909328018093270181E00D
:100BF0008093360110923701809135018F5F809389
:100C0000350180913501823010F0109235010000DD
:100C1000DF91CF91FF91EF919F918F910F900BBE3C
:100C20000F900FBE0F901F9018951F920F920FB646
:100C30000F9211240BB60F922F933F934F935F9314
:100C40008F939F93EF93FF93CF93DF9300D0CDB714
:100C5000DEB780910A018F5F80930A0180910B01BA
:100C60008E5F80930B0180910C0190910D01823376
:100C700021E7920748F480910C0190910D010196B3
:100C800090930D0180930C0180911001482F50E04A
:100C900080910A01882F90E02CE830E0820F931FAA
:100CA000FC018491282F30E0429FC001439F900DAA
:100CB000529F900D11249A83898389819A81292FCB
:100CC00033278BE290E0FC01208300000F900F900F
:100CD000DF91CF91FF91EF919F918F915F914F9114
:100CE0003F912F910F900BBE0F900FBE0F901F9052
:100CF0001895CF93DF93CDB7DEB760970FB6F89412
:100D0000DEBF0FBECDBF988B8F8774C080E090E0B0
:100D1000A0E8BFE389839A83AB83BC8320E030E4FF
:100D20004CE955E469817A818B819C810E94860A15
:100D3000DC01CB018D839E83AF83B88720E030E058
:100D400040E85FE36D817E818F8198850E9429094B
:100D500081152CF481E090E09A87898740C020E0DB
:100D60003FEF4FE757E46D817E818F8198850E9428
:100D7000810A813054F120E030E040E251E46981A1
:100D80007A818B819C810E94860ADC01CB01BC01A7
:100D9000CD010E94A009DC01CB019A87898710C090
:100DA00084EF91E09C878B878B859C850197F1F779
:100DB0009C878B87000089859A8501979A87898708
:100DC00089859A85009761F715C06D817E818F8135
:100DD00098850E94A009DC01CB019A8789878985C3
:100DE0009A859E878D878D859E850197F1F79E87D1
:100DF0008D8700008F8598890197988B8F878F85C5
:100E00009889009709F082CF0000000060960FB625
:100E1000F894DEBF0FBECDBFDF91CF9108950F9341
:100E20001F93CF93DF93CDB7DEB72E970FB6F8940D
:100E3000DEBF0FBECDBF9E838D8378876F835A87B9
:100E400049873C872B871E870D871C821B822D813B
:100E50003E818F819885281739071CF480E090E047
:100E600020C081E090E09A83898305C089819A81BE
:100E700001969A83898329853A858F819885A9016E
:100E8000481B590BCA012B853C85B9010E940109F9
:100E9000CB019C0189819A81821793073CF38B8156
:100EA0009C812E960FB6F894DEBF0FBECDBFDF91AA
:100EB000CF911F910F9108950F931F93CF93DF93BD
:100EC000CDB7DEB728970FB6F894DEBF0FBECDBF03
:100ED00081E290E0FC01108282E290E0FC0110824D
:100EE00084E290E0FC01108285E290E02FEFFC01AB
:100EF00020838AE290E02FEFFC01208380E890E0DD
:100F000023E0FC01208381E890E0FC01208181E85E
:100F100090E02961FC0120838FE690E022E0FC0153
:100F2000208378948AE790E027E8FC0120838AE711
:100F300090E0FC0120818AE790E02068FC0120839A
:100F40008AE790E0FC0120818AE790E02860FC01BC
:100F500020838CE790E0FC0110828AE790E0FC019E
:100F600020818AE790E02064FC0120838FEF80934A
:100F70001001809137018115D9F481E08093370108
:100F80008CE790E0FC0110828CE790E0FC0130815E
:100F9000209135018CE790E0232BFC0120838AE728
:100FA00090E0FC0120818AE790E02064FC0120832E
:100FB0008091160190911701893EF3E09F0708F494
:100FC00057C08091060190910701CC01A0E0B0E0EC
:100FD000BC01CD010E94CF09DC01CB0120E030E053
:100FE00040E054E4BC01CD010E942E09DC01CB019C
:100FF00089839A83AB83BC8389819A81AB81BC81CD
:101000009C01AD0160E070E080E090E40E94F30A92
:10101000DC01CB0120E030E049E153E4BC01CD012B
:101020000E94860ADC01CB018D839E83AF83B88743
:101030008091060190910701893C9105A8F080916B
:10104000060190910701893E23E0920768F408E8C1
:1010500010E06D817E818F8198850E94A009DC015E
:10106000CB01F80191838083109217011092160131
:1010700080911201909113018D3DF5E09F0768F179
:10108000809127019091280189379105E0F08091A6
:10109000270190912801811524E09207A0F4809106
:1010A00027019091280188579109911541F4809169
:1010B0002701909128018857809311010AC08FEF72
:1010C0008093110106C01092110110920D0110922F
:1010D0000C01109213011092120180911E01909147
:1010E0001F018137F7E19F0720F010921F01109236
:1010F0001E018091120190911301019690931301AA
:10110000809312018091180190911901019690939A
:101110001901809318018091160190911701019691
:10112000909317018093160180911A0190911B01F1
:10113000019690931B0180931A0180911A0190915E
:101140001B018430910548F080911C018F5F8093D2
:101150001C0110921B0110921A01809118019091AC
:1011600019018536910508F404CF80911101909101
:101170001001981728F4809110018F5F809310015F
:101180009091110180911001981728F4809110011D
:101190008150809310011092190110921801E9CE2C
:1011A000CF93DF930F92CDB7DEB789838CE790E0C2
:1011B000FC0110828CE790E0FC0130818CE790E02C
:1011C0002981232BFC0120838AE790E0FC01208108
:1011D0008AE790E02064FC01208300008AE790E029
:1011E000FC018081882F90E0807499270097B1F7E7
:1011F00088E790E0FC01808191810F90DF91CF9191
:10120000089597FB072E16F4009407D077FD09D0B8
:101210000E94150907FC05D03EF4909581959F4FDB
:101220000895709561957F4F0895AA1BBB1B51E1EE
:1012300007C0AA1FBB1FA617B70710F0A61BB70B46
:10124000881F991F5A95A9F780959095BC01CD01EB
:1012500008950E940C0A08F481E008950E94420952
:101260000C94470A0E94400A58F00E94390A40F044
:1012700029F45F3F29F00C94300A51110C947B0A39
:101280000C94360A0E94580A68F39923B1F3552347
:1012900091F3951B550BBB27AA2762177307840789
:1012A00038F09F5F5F4F220F331F441FAA1FA9F31F
:1012B00035D00E2E3AF0E0E832D091505040E6950D
:1012C000001CCAF72BD0FE2F29D0660F771F881F6E
:1012D000BB1F261737074807AB07B0E809F0BB0B61
:1012E000802DBF01FF2793585F4F3AF09E3F510575
:1012F00078F00C94300A0C947B0A5F3FE4F3983E3C
:10130000D4F3869577956795B795F7959F5FC9F75D
:10131000880F911D9695879597F90895E1E0660FDE
:10132000771F881FBB1F621773078407BA0720F057
:10133000621B730B840BBA0BEE1F88F7E0950895C0
:101340000E94600A88F09F5798F0B92F9927B751EB
:10135000B0F0E1F0660F771F881F991F1AF0BA9559
:10136000C9F714C0B13091F00E947A0AB1E0089533
:101370000C947A0A672F782F8827B85F39F0B93F25
:10138000CCF3869577956795B395D9F73EF490950C
:101390008095709561957F4F8F4F9F4F0895E8948A
:1013A00009C097FB3EF490958095709561957F4FAD
:1013B0008F4F9F4F9923A9F0F92F96E9BB2793955B
:1013C000F695879577956795B795F111F8CFFAF46B
:1013D000BB0F11F460FF1BC06F5F7F4F8F4F9F4F9C
:1013E00016C0882311F096E911C0772321F09EE8FA
:1013F000872F762F05C0662371F096E8862F70E060
:1014000060E02AF09A95660F771F881FDAF7880F39
:101410009695879597F90895990F0008550FAA0B8F
:10142000E0E8FEEF16161706E807F907C0F01216F7
:101430001306E407F50798F0621B730B840B950BFA
:1014400039F40A2661F0232B242B252B21F408954F
:101450000A2609F4A140A6958FEF811D811D0895EC
:1014600097F99F6780E870E060E008959FEF80EC57
:10147000089500240A9416161706180609060895FA
:1014800000240A9412161306140605060895092E60
:101490000394000C11F4882352F0BB0F40F4BF2BCF
:1014A00011F460FF04C06F5F7F4F8F4F9F4F08950F
:1014B00057FD9058440F551F59F05F3F71F0479505
:1014C000880F97FB991F61F09F3F79F087950895EA
:1014D000121613061406551FF2CF4695F1DF08C009
:1014E000161617061806991FF1CF86957105610526
:1014F00008940895E894BB2766277727CB0197F9CE
:1015000008950E940C0A08F48FEF08950E94990A2A
:101510000C94470A0E94390A38F00E94400A20F0D1
:10152000952311F00C94300A0C94360A11240C9473
:101530007B0A0E94580A70F3959FC1F3950F50E003
:10154000551F629FF001729FBB27F00DB11D639F75
:10155000AA27F00DB11DAA1F649F6627B00DA11D1B
:10156000661F829F2227B00DA11D621F739FB00DC1
:10157000A11D621F839FA00D611D221F749F332731
:10158000A00D611D231F849F600D211D822F762FCA
:101590006A2F11249F5750409AF0F1F088234AF0A7
:1015A000EE0FFF1FBB1F661F771F881F9150504013
:1015B000A9F79E3F510580F00C94300A0C947B0AE9
:1015C0005F3FE4F3983ED4F3869577956795B7959A
:1015D000F795E7959F5FC1F7FE2B880F911D9695B4
:1015E000879597F90895FA01EE0FFF1F30962105B0
:1015F0003105A1F16115710561F48038BFE39B07E6
:1016000049F168949038810561F08038BFEF9B07FD
:1016100041F099234AF5FF3FE1053105210519F114
:10162000E8940894E795D901AA2329F4AB2FBE2F9B
:10163000F85FD0F310C0FF5F70F4A695E0F7F739BC
:1016400050F019F0FF3A38F49F779F930DD00F9028
:1016500007FC9058089546F00C94360A60E070E05C
:1016600080E89FE308954FE79F775F934F933F9301
:101670002F930E94F00B2F913F914F915F910E9409
:10168000860A0C944B0B29F416F00C94300A0C9437
:101690007A0A0C94360A0E94600AA8F39638A0F7DA
:1016A00007F80F92E8942BE33AEA48EB5FE70E94D1
:1016B0009C0A0F920F920F924DB75EB70F920E9445
:1016C0003A0CE6EDF9E1B0E00E947E0B4F915F919C
:1016D000EF91FF91E595EE1FFF1F49F0FE57E0687F
:1016E0004427EE0F441FFA95E1F74195550B0E94F0
:1016F000B20B0F9007FE0C94A60B0895DF93CF93C7
:101700001F930F93FF92EF92DF92BBBF7B018C017F
:10171000689406C0DA2EEF010E94990AFE01E8944F
:10172000A7912791379147915791A6F3EF010E9416
:10173000860CFE019701A801DA9469F7DF90EF901B
:10174000FF900F911F91CF91DF9108959B01AC0104
:1017500060E070E080E89FE30C942E090C94300A5E
:101760000C94DB0C0E94600AD8F39923C9F3940F00
:10177000511DA3F39150504094F059F0882332F05A
:10178000660F771F881F91505040C1F79E3F51054B
:101790002CF7880F911D9695879597F908955F3FCF
:1017A000ACF0983E9CF0BB27869577956795B795EA
:1017B00008F4B1609395C1F7BB0F58F711F460FFBF
:1017C000E8CF6F5F7F4F8F4F9F4FE3CF0C947B0A23
:1017D00016F00C94DB0C0C94360A68940C94300AC6
:1017E0000E94600AA8F39923C1F3AEF3DF93CF936D
:1017F0001F930F93FF92C92FDD2788232AF021978B
:10180000660F771F881FDAF720E030E040E85FEBD3
:101810009FE3883920F0803E40F021968F770E9428
:101820006F0CEEEFF9E1B0E005C00E946F0CEBE247
:10183000FAE1B0E00E947E0B8B01BE01EC01FB2EB1
:101840006F5771097595771F880B990B0E94D10905
:1018500028E132E741E35FE30E94990AAF2D980146
:10186000AE01FF900F911F91CF91DF910E94860CE6
:101870000C94470AFA01DC01AA0FBB1F9B01AC01C3
:10188000BF5728F4222733274427507820C0B75168
:1018900090F4AB2F0024469537952795011CA3950E
:1018A000D2F3002071F0220F331F441FB395DAF3F7
:1018B0000ED00C946E0C61307105A0E88A07B94611
:1018C00030F49B01AC016627772788279078309603
:1018D00021F0208331834283538308955058BB27DE
:1018E000AA270E94860C0C94470A0E94390A38F0F5
:1018F0000E94400A20F039F49F3F19F426F40C941A
:10190000360A0EF4E095E7FB0C94300AE92F0E94AA
:10191000580A58F3BA17620773078407950720F02F
:1019200079F4A6F50C947A0A0EF4E0950B2EBA2FF2
:10193000A02D0B01B90190010C01CA01A0011124D5
:10194000FF27591B99F0593F50F4503E68F11A1681
:10195000F040A22F232F342F4427585FF3CF469512
:1019600037952795A795F0405395C9F77EF41F1634
:10197000BA0B620B730B840BBAF09150A1F0FF0FFE
:10198000BB1F661F771F881FC2F70EC0BA0F621FEA
:10199000731F841F48F4879577956795B795F795DA
:1019A0009E3F08F0B0CF9395880F08F09927EE0F6F
:1019B0009795879508959F3F31F0915020F4879532
:1019C00077956795B795880F911D9695879597F9A7
:1019D0000895F894FFCF07634236B79BD8A71A390A
:1019E000685618AEBAAB558C1D3CB7CC5763BD6D6D
:1019F000EDFD753EF6177231BF000000803F080014
:101A00000000BE922449123EABAAAA2ABECDCCCC7D
:101A10004C3E00000080BEABAAAAAA3E0000000017
:101A2000BF000000803F0000000000084178D3BBE9
:101A30004387D1133D190E3CC3BD4282AD2B3E6896
:101A4000EC8276BED98FE1A93E4C80EFFFBE01C487
:081A5000FF7F3F0000000000D1
:0A1A58000101FF01FF0190010800E9
:00000001FF
