:100000000C9416030C9433030C9433030C943303B5
:100010000C9433030C9433030C9433030C94330388
:100020000C9433030C9433030C9433030C94450366
:100030000C9433030C9433030C9433030C94330368
:100040000C9433030C9433030C9433030C94330358
:100050000C9433030C9433030C9433030C94330348
:100060000C9433030C94330301000003070C131B9F
:10007000232B343D454E565D646B71767B7F8386C2
:10008000898B8E909395979A9DA0A3A7ABAFB3B79A
:10009000BCC1C5CACED3D7DBDFE2E6E9ECEEF1F3B3
:1000A000F5F7F8FAFBFCFDFDFEFEFEFFFEFEFEFE90
:1000B000FDFDFCFBFBFAF9F8F6F5F4F2F1EFEDECDF
:1000C000EAE8E6E4E1DFDDDAD8D5D3D0CDCBC8C5A8
:1000D000C3C0BDBBB8B5B3B0AEABA8A6A3A19E9B31
:1000E000999693918E8B898683807E7B78757370C9
:1000F0006D6A686562605D5A585653514F4C4A4864
:10010000464443413F3E3C3B393837363534333241
:1001100031302F2F2E2D2D2C2B2B2A2A2A2929291D
:100120002828282828272727272828282828292951
:10013000292A2A2B2B2C2D2D2E2F303132333435DA
:10014000363738393A3B3D3E3F40414344454748C6
:10015000494A4C4D4E5051525353524F4A433B32F1
:10016000281E150D070301F8FAFBF9F4EEE5DBD0C4
:10017000C5BAB0A8A3A1A4ACB7C6D5E3EDF2F2ED21
:10018000E4D8CCC1B8B4B3B7BDC5CED5DADCDAD4C7
:10019000C8B8A58F7A6655494342464D57626D7877
:1001A000828B92989EA1A2A19E9A938B82776B607C
:1001B000544A413B38383E4753606C757A797369CD
:1001C0005D5247403E3F46505C697580878A888112
:1001D00075644F392412060000071220303F4C5836
:1001E000626B747B82888D9091908D877E73675C43
:1001F000524A4545495361728595A2ABADA9A19676
:100200008B807976777D87929FAAB4BBBDBCB5AA57
:100210009B8A78685A514E5057616C7781898E93CA
:10022000989CA2A7ADB1B3B4B2ADA79F968D847CC4
:10023000746E6B6B6F7883909EAAB2B6B5AFA69CB6
:10024000938D8C8E959FACBBC9D6DFE5E6E1D7C711
:10025000B4A08D7E736E6F757F8C98A4AFB7BFC747
:10026000CFD8E2ECF5F6F7F6F6F6F5F5F4F2F2F1A2
:10027000EEECE9E6E3DFDAD4CFC8C2BBB2ABA39AB7
:1002800092887F756B62584E453C332A221B150FAE
:100290000A060402010204070B11181F27313A4510
:1002A000505A646F79838D949CA4ABB1B6BBBFC325
:1002B000C8CACDD1D4D7DADCDFE2E5E8EAECEDEF6D
:1002C000EFF0F1F1F0F0F0EFEFEEEEEDECECECEC46
:1002D000ECEBEBEBEAE8E6E3DED8D2CAC2B8ADA2BB
:1002E000978C8074685C51463C332A221C16110D91
:1002F00009060402010001020305080C10161C2364
:100300002B343D48525D6A75818C97A1ACB6BFC74E
:10031000CFD5DBE1E5E8EBEDEFF0F2F2F3F4F5F544
:10032000F5F5F4F3F1EFEDECEAE8E5E2DED9D4CE51
:10033000C8C2BBB3ABA2988F867D746B625A51471B
:100340003C332A221B15100B070502010204070B80
:1003500010171E262E37424D5864707A848D949B58
:10036000A2A9AFB5BABEC2C7CBCED2D6D8DBDEDF2C
:10037000E1E30D1E38556F828D9292929192969E76
:10038000A7B4C1CBCFCDC5BBB1A9A4A19F9E9D9D54
:100390009EA0A6ADB6C2D0DEE6E7DFD2C4B9B4B641
:1003A000BEC7CDCFCCC5BCB0A4998F8A8A8D8F8CA7
:1003B000816C533C2F303E53697B84858078706B11
:1003C0006B6E7375736B5E51474448505A62676831
:1003D000696B727E8E9EA8ACA9A09790909AABC4D0
:1003E000DCEFFBFEFBF5EEE8E3DDD8D4CFCCC9C7EC
:1003F000C9CED7DEE3E2DDD7D2D0D4DDE7EDEEEB38
:10040000E2D0B9A69B989DA6B0B4AEA1907F7779B3
:100410008596A1A18F6D441E05000E284662788541
:100420008C8F9093969B9FA5ADB6BDC40002040629
:10043000080A0C0E10121416181A1C1E202224264C
:10044000282A2C2E30323436383A3C3E404244463C
:10045000484A4C4E50525456585A5C5E606264662C
:10046000686A6C6E70727476787A7C7E808284861C
:10047000888A8C8E90929496989A9C9EA0A2A4A60C
:10048000A8AAACAEB0B2B4B6B8BABCBEC0C2C4C6FC
:10049000C8CACCCED0D2D4D6D8DADCDEE0E2E4E6EC
:1004A000E8EAECEEF0F2F4F6F8FAFCFEFEFCFAF8FC
:1004B000F6F4F2F0EEECEAE8E6E4E2E0DEDCDAD8CC
:1004C000D6D4D2D0CECCCAC8C6C4C2C0BEBCBAB8BC
:1004D000B6B4B2B0AEACAAA8A6A4A2A09E9C9A98AC
:1004E000969492908E8C8A88868482807E7C7A789C
:1004F000767472706E6C6A68666462605E5C5A588C
:10050000565452504E4C4A48464442403E3C3A387B
:10051000363432302E2C2A28262422201E1C1A186B
:10052000161412100E0C0A08060402008083868935
:100530008C8F9295989B9EA2A5A7AAADB0B3B6B991
:10054000BCBEC1C4C6C9CBCED0D3D5D7DADCDEE0C1
:10055000E2E4E6E8EAEBEDEEF0F1F3F4F5F6F8F9B3
:10056000FAFAFBFCFDFDFEFEFEFFFFFFFFFFFFFFB3
:10057000FEFEFEFDFDFCFBFAFAF9F8F6F5F4F3F1E8
:10058000F0EEEDEBEAE8E6E4E2E0DEDCDAD7D5D344
:10059000D0CECBC9C6C4C1BEBCB9B6B3B0ADAAA794
:1005A000A5A29E9B9895928F8C898683807C797674
:1005B00073706D6A6764615D5A5855524F4C494675
:1005C00043413E3B393634312F2C2A282523211F25
:1005D0001D1B1917151412110F0E0C0B0A09070613
:1005E00005050403020201010100000000000000F3
:1005F0000101010202030405050607090A0B0C0E9E
:100600000F1112141517191B1D1F212325282A2C21
:100610002F313436393B3E414346494C4F525558B1
:100620005A5D6164676A6D707376797C11241FBEB0
:10063000CFEFD4E0DEBFCDBF11E0A0E0B1E0E4EE4B
:10064000F1E102C005900D92A630B107D9F721E083
:10065000A6E0B1E001C01D92A032B207E1F70E940E
:10066000C2030C94AF080C940000982F96959575D2
:10067000880F8A7A982B892F869586958373990F90
:10068000990F9C7C892B829508950F920FB60F923B
:100690001F9211242F933F934F938F939F93EF9328
:1006A000FF9380911F018F5F80931F01E0911E01D6
:1006B00042E04E0F40931E0120911C0130911D011C
:1006C0002C3992E3390730F42F5F3F4F20931C0100
:1006D00030931D0120911A0130911B01285D3F4F7D
:1006E000303110F020E030E020931A0130931B01EC
:1006F00020910C0190E089599E4FFC013491E42F28
:10070000F0E0E959FE4F8491289FC0011124239FF6
:10071000800D911D1124892F869586958BB9FF91A7
:10072000EF919F918F914F913F912F911F900F903B
:100730000FBE0F9018959C012150304009F4089588
:1007400087E893E10197F1F700C00000F5CF80E062
:1007500090E0089590917C00907F90937C00909120
:100760007C00982B90937C0080917A008064809329
:100770007A0080917A0086FDFCCF8091780090917C
:1007800079000895CDB7DEB728970FB6F894DEBF8D
:100790000FBECDBF17B818B814B88FEF85B98AB996
:1007A00083E0809380008091810089618093810043
:1007B00082E080936F0088E19BE0909389008093B2
:1007C0008800789487E880937A0080917A00806826
:1007D00080937A001FE780E00E94AA032091120113
:1007E000309113012536310508F455C09C012D5870
:1007F00031092B35334008F0FFC0BC0180E090E0A8
:100800000E942F0620E030E040E05BE30E94BD063E
:100810009B01AC0160E070E080E090E40E942A0758
:1008200069837A838B839C83E0910D01F0E0E45D22
:10083000FA4F649170E080E090E00E94310620E081
:1008400030E047E054E40E948E0520E030E040E7CD
:1008500051E40E94BD066D837E838F83988720E0DC
:1008600030E049E153E469817A818B819C810E9467
:10087000BD069B01AC016D817E818F8198850E94B0
:1008800022050E94000670938900609388001092F0
:1008900012011092130184E00E94AA039C0180912E
:1008A0001401909115018930910580F1C901875497
:1008B0009109893B934008F0ADC0C90164E170E043
:1008C0000E940D0560930C014091020150910301BB
:1008D0002417350728F42093020130930301A9015E
:1008E00080910001909101018217930728F42093D1
:1008F000000130930101C901841B950B86349105D9
:1009000008F07FC01092180180E090E019990AC0A9
:1009100020910A0130910B012F5F3F4F20930A0174
:1009200030930B0120910A0130910B01213737419F
:1009300020F010920A0110920B01209116013091C3
:1009400017012F5F3F4F2093160130931701019637
:1009500080931401909315018091100190911101E1
:1009600001968093100190931101409112015091D2
:1009700013014F5F5F4F4093120150931301409159
:100980000E0150910F014F5F5F4F40930E01509346
:100990000F014430510548F040910D014F5F4093E5
:1009A0000D0110920E0110920F010B9790F0909193
:1009B000180180911901891718F48F5F809319012C
:1009C000981718F481508093190110921001109219
:1009D00011012436310508F4FECE8FEF93E08093A9
:1009E00002019093030110920001109201011092F4
:1009F000160110921701EFCE10921C0110921D01EA
:100A000046CF8038910518F0109318017DCF809360
:100A100018017ACF10920C0177CFAA1BBB1B51E1B2
:100A200007C0AA1FBB1FA617B70710F0A61BB70B5E
:100A3000881F991F5A95A9F780959095BC01CD0103
:100A400008955058BB27AA270E9439050C948306A5
:100A50000E94750638F00E947C0620F039F49F3F12
:100A600019F426F40C9472060EF4E095E7FB0C944E
:100A70006C06E92F0E94940658F3BA1762077307B1
:100A80008407950720F079F4A6F50C94B6060EF4C9
:100A9000E0950B2EBA2FA02D0B01B90190010C018E
:100AA000CA01A0011124FF27591B99F0593F50F4A6
:100AB000503E68F11A16F040A22F232F342F4427FE
:100AC000585FF3CF469537952795A795F0405395F6
:100AD000C9F77EF41F16BA0B620B730B840BBAF0C6
:100AE0009150A1F0FF0FBB1F661F771F881FC2F731
:100AF0000EC0BA0F621F731F841F48F48795779545
:100B00006795B795F7959E3F08F0B0CF9395880FFE
:100B100008F09927EE0F9795879508950E94A205F2
:100B20000C9483060E947C0658F00E94750640F0E3
:100B300029F45F3F29F00C946C0651110C94B70610
:100B40000C9472060E94940668F39923B1F355231E
:100B500091F3951B550BBB27AA27621773078407D0
:100B600038F09F5F5F4F220F331F441FAA1FA9F366
:100B700035D00E2E3AF0E0E832D091505040E69554
:100B8000001CCAF72BD0FE2F29D0660F771F881FB5
:100B9000BB1F261737074807AB07B0E809F0BB0BA8
:100BA000802DBF01FF2793585F4F3AF09E3F5105BC
:100BB00078F00C946C060C94B7065F3FE4F3983E13
:100BC000D4F3869577956795B795F7959F5FC9F7A5
:100BD000880F911D9695879597F90895E1E0660F26
:100BE000771F881FBB1F621773078407BA0720F09F
:100BF000621B730B840BBA0BEE1F88F7E095089508
:100C00000E949C0688F09F5798F0B92F9927B751FA
:100C1000B0F0E1F0660F771F881F991F1AF0BA95A0
:100C2000C9F714C0B13091F00E94B606B1E0089542
:100C30000C94B606672F782F8827B85F39F0B93F34
:100C4000CCF3869577956795B395D9F73EF4909553
:100C50008095709561957F4F8F4F9F4F0895E894D1
:100C600009C097FB3EF490958095709561957F4FF4
:100C70008F4F9F4F9923A9F0F92F96E9BB279395A2
:100C8000F695879577956795B795F111F8CFFAF4B2
:100C9000BB0F11F460FF1BC06F5F7F4F8F4F9F4FE3
:100CA00016C0882311F096E911C0772321F09EE841
:100CB000872F762F05C0662371F096E8862F70E0A7
:100CC00060E02AF09A95660F771F881FDAF7880F81
:100CD0009695879597F9089597F99F6780E870E052
:100CE00060E008959FEF80EC089500240A941616A2
:100CF000170618060906089500240A94121613060A
:100D0000140605060895092E0394000C11F4882397
:100D100052F0BB0F40F4BF2B11F460FF04C06F5FB3
:100D20007F4F8F4F9F4F089557FD9058440F551F89
:100D300059F05F3F71F04795880F97FB991F61F05D
:100D40009F3F79F087950895121613061406551FD4
:100D5000F2CF4695F1DF08C0161617061806991F40
:100D6000F1CF86957105610508940895E894BB2735
:100D700066277727CB0197F908950E94D0060C9437
:100D800083060E94750638F00E947C0620F09523A9
:100D900011F00C946C060C94720611240C94B70696
:100DA0000E94940670F3959FC1F3950F50E0551F74
:100DB000629FF001729FBB27F00DB11D639FAA27B0
:100DC000F00DB11DAA1F649F6627B00DA11D661FFF
:100DD000829F2227B00DA11D621F739FB00DA11D20
:100DE000621F839FA00D611D221F749F3327A00DDA
:100DF000611D231F849F600D211D822F762F6A2F76
:100E000011249F5750409AF0F1F088234AF0EE0FDA
:100E1000FF1FBB1F661F771F881F91505040A9F707
:100E20009E3F510580F00C946C060C94B7065F3F12
:100E3000E4F3983ED4F3869577956795B795F79543
:100E4000E7959F5FC1F7FE2B880F911D96958795BB
:100E500097F90895FA01EE0FFF1F3096210531052D
:100E6000A1F16115710561F48038BFE39B0749F179
:100E700068949038810561F08038BFEF9B0741F09E
:100E800099234AF5FF3FE1053105210519F1E89461
:100E90000894E795D901AA2329F4AB2FBE2FF85F58
:100EA000D0F310C0FF5F70F4A695E0F7F73950F06B
:100EB00019F0FF3A38F49F779F930DD00F9007FCFD
:100EC0009058089546F00C94720660E070E080E857
:100ED0009FE308954FE79F775F934F933F932F933F
:100EE0000E9425082F913F914F915F910E94BD066E
:100EF0000C94820729F416F00C946C060C94B60638
:100F00000C9472060E949C06A8F39638A0F707F886
:100F10000F92E8942BE33AEA48EB5FE70E94D3068E
:100F20000F920F920F924DB75EB70F920E946D080D
:100F3000E2E6F1E10E94B4074F915F91EF91FF91DA
:100F4000E595EE1FFF1F49F0FE57E0684427EE0FBE
:100F5000441FFA95E1F74195550B0E94E7070F9062
:100F600007FE0C94DB070895DF93CF931F930F9335
:100F7000FF92EF92DF927B018C01689406C0DA2E1B
:100F8000EF010E94D006FE01E894A59125913591CC
:100F900045915591A6F3EF010E943905FE01970195
:100FA000A801DA9469F7DF90EF90FF900F911F91FD
:100FB000CF91DF9108959B01AC0160E070E080E883
:100FC0009FE30C948E050C946C060C94A1080E946F
:100FD0009C06D8F39923C9F3940F511DA3F39150A4
:100FE000504094F059F0882332F0660F771F881F25
:100FF00091505040C1F79E3F51052CF7880F911D2D
:101000009695879597F908955F3FACF0983E9CF0D0
:10101000BB27869577956795B79508F4B16093954A
:10102000C1F7BB0F58F711F460FFE8CF6F5F7F4F38
:101030008F4F9F4FE3CF0C94B70616F00C94A10886
:101040000C94720668940C946C060E949C06A8F39B
:101050009923C1F3AEF3DF93CF931F930F93FF92C6
:10106000C92FDD2788232AF02197660F771F881F55
:10107000DAF720E030E040E85FEB9FE3883920F0CA
:10108000803E38F021968F770E942205EAE8F1E150
:1010900004C00E942205E7EBF1E10E94B4078B0136
:1010A000BE01EC01FB2E6F5771097595771F880BF8
:1010B000990B0E94310628E132E741E35FE30E9489
:1010C000D006AF2D9801AE01FF900F911F91CF91E7
:1010D000DF910E9439050C948306FA01DC01AA0F06
:1010E000BB1F9B01AC01BF5728F42227332744279D
:1010F000507820C0B75190F4AB2F00244695379517
:101100002795011CA395D2F3002071F0220F331F05
:10111000441FB395DAF30ED00C94210561307105AC
:10112000A0E88A07B94630F49B01AC01662777270F
:1011300088279078309621F020833183428353832F
:1011400008959F3F31F0915020F4879577956795EA
:10115000B795880F911D9695879597F90895F894FE
:10116000FFCF07634236B79BD8A71A39685618AE27
:10117000BAAB558C1D3CB7CC5763BD6DEDFD753ECC
:10118000F6177231BF000000803F08000000BE92D9
:101190002449123EABAAAA2ABECDCCCC4C3E0000BC
:1011A0000080BEABAAAAAA3E00000000BF0000005B
:1011B000803F0000000000084178D3BB4387D11373
:1011C0003D190E3CC3BD4282AD2B3E68EC8276BE1B
:1011D000D98FE1A93E4C80EFFFBE01C4FF7F3F00E5
:0411E000000000000B
:0611E400FF01FF01010103
:00000001FF
